{
	"contracts/DUUID/university.sol": {
		"University": {
			"abi": [
				{
					"inputs": [
						{
							"internalType": "string",
							"name": "_UniName",
							"type": "string"
						},
						{
							"internalType": "uint256",
							"name": "_fundationYear",
							"type": "uint256"
						}
					],
					"stateMutability": "nonpayable",
					"type": "constructor"
				},
				{
					"inputs": [],
					"name": "UniName",
					"outputs": [
						{
							"internalType": "string",
							"name": "",
							"type": "string"
						}
					],
					"stateMutability": "view",
					"type": "function"
				},
				{
					"inputs": [
						{
							"internalType": "string",
							"name": "name",
							"type": "string"
						},
						{
							"internalType": "uint256",
							"name": "enrollmentYear",
							"type": "uint256"
						},
						{
							"internalType": "string",
							"name": "institutional_ID",
							"type": "string"
						}
					],
					"name": "addStudent",
					"outputs": [],
					"stateMutability": "nonpayable",
					"type": "function"
				},
				{
					"inputs": [],
					"name": "chain",
					"outputs": [
						{
							"internalType": "contract duuid",
							"name": "",
							"type": "address"
						}
					],
					"stateMutability": "view",
					"type": "function"
				},
				{
					"inputs": [
						{
							"internalType": "address",
							"name": "studentAddress",
							"type": "address"
						},
						{
							"internalType": "uint256",
							"name": "CGPA",
							"type": "uint256"
						}
					],
					"name": "changeStudentsCGPA",
					"outputs": [],
					"stateMutability": "nonpayable",
					"type": "function"
				},
				{
					"inputs": [
						{
							"internalType": "address",
							"name": "studentAddress",
							"type": "address"
						},
						{
							"internalType": "uint256",
							"name": "credits",
							"type": "uint256"
						}
					],
					"name": "concedeStudentsCredits",
					"outputs": [],
					"stateMutability": "nonpayable",
					"type": "function"
				},
				{
					"inputs": [],
					"name": "fundationYear",
					"outputs": [
						{
							"internalType": "uint256",
							"name": "",
							"type": "uint256"
						}
					],
					"stateMutability": "view",
					"type": "function"
				},
				{
					"inputs": [
						{
							"internalType": "uint256",
							"name": "",
							"type": "uint256"
						}
					],
					"name": "studentList",
					"outputs": [
						{
							"internalType": "address",
							"name": "",
							"type": "address"
						}
					],
					"stateMutability": "view",
					"type": "function"
				},
				{
					"inputs": [
						{
							"internalType": "address",
							"name": "",
							"type": "address"
						}
					],
					"name": "students",
					"outputs": [
						{
							"internalType": "contract Student",
							"name": "",
							"type": "address"
						}
					],
					"stateMutability": "view",
					"type": "function"
				},
				{
					"inputs": [],
					"name": "studentsSubscribed",
					"outputs": [
						{
							"internalType": "uint256",
							"name": "",
							"type": "uint256"
						}
					],
					"stateMutability": "view",
					"type": "function"
				}
			],
			"devdoc": {
				"kind": "dev",
				"methods": {},
				"version": 1
			},
			"evm": {
				"assembly": "    /* \"contracts/DUUID/university.sol\":148:1192  contract University {... */\n  mstore(0x40, 0x80)\n    /* \"contracts/DUUID/university.sol\":386:387  0 */\n  0x00\n    /* \"contracts/DUUID/university.sol\":353:387  uint public studentsSubscribed = 0 */\n  0x05\n  sstore\n    /* \"contracts/DUUID/university.sol\":398:533  constructor(string memory _UniName, uint _fundationYear) {... */\n  callvalue\n  dup1\n  iszero\n  tag_1\n  jumpi\n  0x00\n  dup1\n  revert\ntag_1:\n  pop\n  mload(0x40)\n  sub(codesize, bytecodeSize)\n  dup1\n  bytecodeSize\n  dup4\n  codecopy\n  dup2\n  dup2\n  add\n  0x40\n  mstore\n  dup2\n  add\n  swap1\n  tag_2\n  swap2\n  swap1\n  tag_3\n  jump\t// in\ntag_2:\n    /* \"contracts/DUUID/university.sol\":476:484  _UniName */\n  dup2\n    /* \"contracts/DUUID/university.sol\":466:473  UniName */\n  0x01\n    /* \"contracts/DUUID/university.sol\":466:484  UniName = _UniName */\n  swap1\n  dup2\n  tag_6\n  swap2\n  swap1\n  tag_7\n  jump\t// in\ntag_6:\n  pop\n    /* \"contracts/DUUID/university.sol\":511:525  _fundationYear */\n  dup1\n    /* \"contracts/DUUID/university.sol\":495:508  fundationYear */\n  0x02\n    /* \"contracts/DUUID/university.sol\":495:525  fundationYear = _fundationYear */\n  dup2\n  swap1\n  sstore\n  pop\n    /* \"contracts/DUUID/university.sol\":398:533  constructor(string memory _UniName, uint _fundationYear) {... */\n  pop\n  pop\n    /* \"contracts/DUUID/university.sol\":148:1192  contract University {... */\n  jump(tag_8)\n    /* \"#utility.yul\":7:82   */\ntag_9:\n    /* \"#utility.yul\":40:46   */\n  0x00\n    /* \"#utility.yul\":73:75   */\n  0x40\n    /* \"#utility.yul\":67:76   */\n  mload\n    /* \"#utility.yul\":57:76   */\n  swap1\n  pop\n    /* \"#utility.yul\":7:82   */\n  swap1\n  jump\t// out\n    /* \"#utility.yul\":88:205   */\ntag_10:\n    /* \"#utility.yul\":197:198   */\n  0x00\n    /* \"#utility.yul\":194:195   */\n  dup1\n    /* \"#utility.yul\":187:199   */\n  revert\n    /* \"#utility.yul\":211:328   */\ntag_11:\n    /* \"#utility.yul\":320:321   */\n  0x00\n    /* \"#utility.yul\":317:318   */\n  dup1\n    /* \"#utility.yul\":310:322   */\n  revert\n    /* \"#utility.yul\":334:451   */\ntag_12:\n    /* \"#utility.yul\":443:444   */\n  0x00\n    /* \"#utility.yul\":440:441   */\n  dup1\n    /* \"#utility.yul\":433:445   */\n  revert\n    /* \"#utility.yul\":457:574   */\ntag_13:\n    /* \"#utility.yul\":566:567   */\n  0x00\n    /* \"#utility.yul\":563:564   */\n  dup1\n    /* \"#utility.yul\":556:568   */\n  revert\n    /* \"#utility.yul\":580:682   */\ntag_14:\n    /* \"#utility.yul\":621:627   */\n  0x00\n    /* \"#utility.yul\":672:674   */\n  0x1f\n    /* \"#utility.yul\":668:675   */\n  not\n    /* \"#utility.yul\":663:665   */\n  0x1f\n    /* \"#utility.yul\":656:661   */\n  dup4\n    /* \"#utility.yul\":652:666   */\n  add\n    /* \"#utility.yul\":648:676   */\n  and\n    /* \"#utility.yul\":638:676   */\n  swap1\n  pop\n    /* \"#utility.yul\":580:682   */\n  swap2\n  swap1\n  pop\n  jump\t// out\n    /* \"#utility.yul\":688:868   */\ntag_15:\n    /* \"#utility.yul\":736:813   */\n  0x4e487b7100000000000000000000000000000000000000000000000000000000\n    /* \"#utility.yul\":733:734   */\n  0x00\n    /* \"#utility.yul\":726:814   */\n  mstore\n    /* \"#utility.yul\":833:837   */\n  0x41\n    /* \"#utility.yul\":830:831   */\n  0x04\n    /* \"#utility.yul\":823:838   */\n  mstore\n    /* \"#utility.yul\":857:861   */\n  0x24\n    /* \"#utility.yul\":854:855   */\n  0x00\n    /* \"#utility.yul\":847:862   */\n  revert\n    /* \"#utility.yul\":874:1155   */\ntag_16:\n    /* \"#utility.yul\":957:984   */\n  tag_52\n    /* \"#utility.yul\":979:983   */\n  dup3\n    /* \"#utility.yul\":957:984   */\n  tag_14\n  jump\t// in\ntag_52:\n    /* \"#utility.yul\":949:955   */\n  dup2\n    /* \"#utility.yul\":945:985   */\n  add\n    /* \"#utility.yul\":1087:1093   */\n  dup2\n    /* \"#utility.yul\":1075:1085   */\n  dup2\n    /* \"#utility.yul\":1072:1094   */\n  lt\n    /* \"#utility.yul\":1051:1069   */\n  0xffffffffffffffff\n    /* \"#utility.yul\":1039:1049   */\n  dup3\n    /* \"#utility.yul\":1036:1070   */\n  gt\n    /* \"#utility.yul\":1033:1095   */\n  or\n    /* \"#utility.yul\":1030:1118   */\n  iszero\n  tag_53\n  jumpi\n    /* \"#utility.yul\":1098:1116   */\n  tag_54\n  tag_15\n  jump\t// in\ntag_54:\n    /* \"#utility.yul\":1030:1118   */\ntag_53:\n    /* \"#utility.yul\":1138:1148   */\n  dup1\n    /* \"#utility.yul\":1134:1136   */\n  0x40\n    /* \"#utility.yul\":1127:1149   */\n  mstore\n    /* \"#utility.yul\":917:1155   */\n  pop\n    /* \"#utility.yul\":874:1155   */\n  pop\n  pop\n  jump\t// out\n    /* \"#utility.yul\":1161:1290   */\ntag_17:\n    /* \"#utility.yul\":1195:1201   */\n  0x00\n    /* \"#utility.yul\":1222:1242   */\n  tag_56\n  tag_9\n  jump\t// in\ntag_56:\n    /* \"#utility.yul\":1212:1242   */\n  swap1\n  pop\n    /* \"#utility.yul\":1251:1284   */\n  tag_57\n    /* \"#utility.yul\":1279:1283   */\n  dup3\n    /* \"#utility.yul\":1271:1277   */\n  dup3\n    /* \"#utility.yul\":1251:1284   */\n  tag_16\n  jump\t// in\ntag_57:\n    /* \"#utility.yul\":1161:1290   */\n  swap2\n  swap1\n  pop\n  jump\t// out\n    /* \"#utility.yul\":1296:1604   */\ntag_18:\n    /* \"#utility.yul\":1358:1362   */\n  0x00\n    /* \"#utility.yul\":1448:1466   */\n  0xffffffffffffffff\n    /* \"#utility.yul\":1440:1446   */\n  dup3\n    /* \"#utility.yul\":1437:1467   */\n  gt\n    /* \"#utility.yul\":1434:1490   */\n  iszero\n  tag_59\n  jumpi\n    /* \"#utility.yul\":1470:1488   */\n  tag_60\n  tag_15\n  jump\t// in\ntag_60:\n    /* \"#utility.yul\":1434:1490   */\ntag_59:\n    /* \"#utility.yul\":1508:1537   */\n  tag_61\n    /* \"#utility.yul\":1530:1536   */\n  dup3\n    /* \"#utility.yul\":1508:1537   */\n  tag_14\n  jump\t// in\ntag_61:\n    /* \"#utility.yul\":1500:1537   */\n  swap1\n  pop\n    /* \"#utility.yul\":1592:1596   */\n  0x20\n    /* \"#utility.yul\":1586:1590   */\n  dup2\n    /* \"#utility.yul\":1582:1597   */\n  add\n    /* \"#utility.yul\":1574:1597   */\n  swap1\n  pop\n    /* \"#utility.yul\":1296:1604   */\n  swap2\n  swap1\n  pop\n  jump\t// out\n    /* \"#utility.yul\":1610:1749   */\ntag_19:\n    /* \"#utility.yul\":1699:1705   */\n  dup3\n    /* \"#utility.yul\":1694:1697   */\n  dup2\n    /* \"#utility.yul\":1689:1692   */\n  dup4\n    /* \"#utility.yul\":1683:1706   */\n  mcopy\n    /* \"#utility.yul\":1740:1741   */\n  0x00\n    /* \"#utility.yul\":1731:1737   */\n  dup4\n    /* \"#utility.yul\":1726:1729   */\n  dup4\n    /* \"#utility.yul\":1722:1738   */\n  add\n    /* \"#utility.yul\":1715:1742   */\n  mstore\n    /* \"#utility.yul\":1610:1749   */\n  pop\n  pop\n  pop\n  jump\t// out\n    /* \"#utility.yul\":1755:2189   */\ntag_20:\n    /* \"#utility.yul\":1844:1849   */\n  0x00\n    /* \"#utility.yul\":1869:1935   */\n  tag_64\n    /* \"#utility.yul\":1885:1934   */\n  tag_65\n    /* \"#utility.yul\":1927:1933   */\n  dup5\n    /* \"#utility.yul\":1885:1934   */\n  tag_18\n  jump\t// in\ntag_65:\n    /* \"#utility.yul\":1869:1935   */\n  tag_17\n  jump\t// in\ntag_64:\n    /* \"#utility.yul\":1860:1935   */\n  swap1\n  pop\n    /* \"#utility.yul\":1958:1964   */\n  dup3\n    /* \"#utility.yul\":1951:1956   */\n  dup2\n    /* \"#utility.yul\":1944:1965   */\n  mstore\n    /* \"#utility.yul\":1996:2000   */\n  0x20\n    /* \"#utility.yul\":1989:1994   */\n  dup2\n    /* \"#utility.yul\":1985:2001   */\n  add\n    /* \"#utility.yul\":2034:2037   */\n  dup5\n    /* \"#utility.yul\":2025:2031   */\n  dup5\n    /* \"#utility.yul\":2020:2023   */\n  dup5\n    /* \"#utility.yul\":2016:2032   */\n  add\n    /* \"#utility.yul\":2013:2038   */\n  gt\n    /* \"#utility.yul\":2010:2122   */\n  iszero\n  tag_66\n  jumpi\n    /* \"#utility.yul\":2041:2120   */\n  tag_67\n  tag_13\n  jump\t// in\ntag_67:\n    /* \"#utility.yul\":2010:2122   */\ntag_66:\n    /* \"#utility.yul\":2131:2183   */\n  tag_68\n    /* \"#utility.yul\":2176:2182   */\n  dup5\n    /* \"#utility.yul\":2171:2174   */\n  dup3\n    /* \"#utility.yul\":2166:2169   */\n  dup6\n    /* \"#utility.yul\":2131:2183   */\n  tag_19\n  jump\t// in\ntag_68:\n    /* \"#utility.yul\":1850:2189   */\n  pop\n    /* \"#utility.yul\":1755:2189   */\n  swap4\n  swap3\n  pop\n  pop\n  pop\n  jump\t// out\n    /* \"#utility.yul\":2209:2564   */\ntag_21:\n    /* \"#utility.yul\":2276:2281   */\n  0x00\n    /* \"#utility.yul\":2325:2328   */\n  dup3\n    /* \"#utility.yul\":2318:2322   */\n  0x1f\n    /* \"#utility.yul\":2310:2316   */\n  dup4\n    /* \"#utility.yul\":2306:2323   */\n  add\n    /* \"#utility.yul\":2302:2329   */\n  slt\n    /* \"#utility.yul\":2292:2414   */\n  tag_70\n  jumpi\n    /* \"#utility.yul\":2333:2412   */\n  tag_71\n  tag_12\n  jump\t// in\ntag_71:\n    /* \"#utility.yul\":2292:2414   */\ntag_70:\n    /* \"#utility.yul\":2443:2449   */\n  dup2\n    /* \"#utility.yul\":2437:2450   */\n  mload\n    /* \"#utility.yul\":2468:2558   */\n  tag_72\n    /* \"#utility.yul\":2554:2557   */\n  dup5\n    /* \"#utility.yul\":2546:2552   */\n  dup3\n    /* \"#utility.yul\":2539:2543   */\n  0x20\n    /* \"#utility.yul\":2531:2537   */\n  dup7\n    /* \"#utility.yul\":2527:2544   */\n  add\n    /* \"#utility.yul\":2468:2558   */\n  tag_20\n  jump\t// in\ntag_72:\n    /* \"#utility.yul\":2459:2558   */\n  swap2\n  pop\n    /* \"#utility.yul\":2282:2564   */\n  pop\n    /* \"#utility.yul\":2209:2564   */\n  swap3\n  swap2\n  pop\n  pop\n  jump\t// out\n    /* \"#utility.yul\":2570:2647   */\ntag_22:\n    /* \"#utility.yul\":2607:2614   */\n  0x00\n    /* \"#utility.yul\":2636:2641   */\n  dup2\n    /* \"#utility.yul\":2625:2641   */\n  swap1\n  pop\n    /* \"#utility.yul\":2570:2647   */\n  swap2\n  swap1\n  pop\n  jump\t// out\n    /* \"#utility.yul\":2653:2775   */\ntag_23:\n    /* \"#utility.yul\":2726:2750   */\n  tag_75\n    /* \"#utility.yul\":2744:2749   */\n  dup2\n    /* \"#utility.yul\":2726:2750   */\n  tag_22\n  jump\t// in\ntag_75:\n    /* \"#utility.yul\":2719:2724   */\n  dup2\n    /* \"#utility.yul\":2716:2751   */\n  eq\n    /* \"#utility.yul\":2706:2769   */\n  tag_76\n  jumpi\n    /* \"#utility.yul\":2765:2766   */\n  0x00\n    /* \"#utility.yul\":2762:2763   */\n  dup1\n    /* \"#utility.yul\":2755:2767   */\n  revert\n    /* \"#utility.yul\":2706:2769   */\ntag_76:\n    /* \"#utility.yul\":2653:2775   */\n  pop\n  jump\t// out\n    /* \"#utility.yul\":2781:2924   */\ntag_24:\n    /* \"#utility.yul\":2838:2843   */\n  0x00\n    /* \"#utility.yul\":2869:2875   */\n  dup2\n    /* \"#utility.yul\":2863:2876   */\n  mload\n    /* \"#utility.yul\":2854:2876   */\n  swap1\n  pop\n    /* \"#utility.yul\":2885:2918   */\n  tag_78\n    /* \"#utility.yul\":2912:2917   */\n  dup2\n    /* \"#utility.yul\":2885:2918   */\n  tag_23\n  jump\t// in\ntag_78:\n    /* \"#utility.yul\":2781:2924   */\n  swap3\n  swap2\n  pop\n  pop\n  jump\t// out\n    /* \"#utility.yul\":2930:3610   */\ntag_3:\n    /* \"#utility.yul\":3019:3025   */\n  0x00\n    /* \"#utility.yul\":3027:3033   */\n  dup1\n    /* \"#utility.yul\":3076:3078   */\n  0x40\n    /* \"#utility.yul\":3064:3073   */\n  dup4\n    /* \"#utility.yul\":3055:3062   */\n  dup6\n    /* \"#utility.yul\":3051:3074   */\n  sub\n    /* \"#utility.yul\":3047:3079   */\n  slt\n    /* \"#utility.yul\":3044:3163   */\n  iszero\n  tag_80\n  jumpi\n    /* \"#utility.yul\":3082:3161   */\n  tag_81\n  tag_10\n  jump\t// in\ntag_81:\n    /* \"#utility.yul\":3044:3163   */\ntag_80:\n    /* \"#utility.yul\":3223:3224   */\n  0x00\n    /* \"#utility.yul\":3212:3221   */\n  dup4\n    /* \"#utility.yul\":3208:3225   */\n  add\n    /* \"#utility.yul\":3202:3226   */\n  mload\n    /* \"#utility.yul\":3253:3271   */\n  0xffffffffffffffff\n    /* \"#utility.yul\":3245:3251   */\n  dup2\n    /* \"#utility.yul\":3242:3272   */\n  gt\n    /* \"#utility.yul\":3239:3356   */\n  iszero\n  tag_82\n  jumpi\n    /* \"#utility.yul\":3275:3354   */\n  tag_83\n  tag_11\n  jump\t// in\ntag_83:\n    /* \"#utility.yul\":3239:3356   */\ntag_82:\n    /* \"#utility.yul\":3380:3454   */\n  tag_84\n    /* \"#utility.yul\":3446:3453   */\n  dup6\n    /* \"#utility.yul\":3437:3443   */\n  dup3\n    /* \"#utility.yul\":3426:3435   */\n  dup7\n    /* \"#utility.yul\":3422:3444   */\n  add\n    /* \"#utility.yul\":3380:3454   */\n  tag_21\n  jump\t// in\ntag_84:\n    /* \"#utility.yul\":3370:3454   */\n  swap3\n  pop\n    /* \"#utility.yul\":3173:3464   */\n  pop\n    /* \"#utility.yul\":3503:3505   */\n  0x20\n    /* \"#utility.yul\":3529:3593   */\n  tag_85\n    /* \"#utility.yul\":3585:3592   */\n  dup6\n    /* \"#utility.yul\":3576:3582   */\n  dup3\n    /* \"#utility.yul\":3565:3574   */\n  dup7\n    /* \"#utility.yul\":3561:3583   */\n  add\n    /* \"#utility.yul\":3529:3593   */\n  tag_24\n  jump\t// in\ntag_85:\n    /* \"#utility.yul\":3519:3593   */\n  swap2\n  pop\n    /* \"#utility.yul\":3474:3603   */\n  pop\n    /* \"#utility.yul\":2930:3610   */\n  swap3\n  pop\n  swap3\n  swap1\n  pop\n  jump\t// out\n    /* \"#utility.yul\":3616:3715   */\ntag_25:\n    /* \"#utility.yul\":3668:3674   */\n  0x00\n    /* \"#utility.yul\":3702:3707   */\n  dup2\n    /* \"#utility.yul\":3696:3708   */\n  mload\n    /* \"#utility.yul\":3686:3708   */\n  swap1\n  pop\n    /* \"#utility.yul\":3616:3715   */\n  swap2\n  swap1\n  pop\n  jump\t// out\n    /* \"#utility.yul\":3721:3901   */\ntag_26:\n    /* \"#utility.yul\":3769:3846   */\n  0x4e487b7100000000000000000000000000000000000000000000000000000000\n    /* \"#utility.yul\":3766:3767   */\n  0x00\n    /* \"#utility.yul\":3759:3847   */\n  mstore\n    /* \"#utility.yul\":3866:3870   */\n  0x22\n    /* \"#utility.yul\":3863:3864   */\n  0x04\n    /* \"#utility.yul\":3856:3871   */\n  mstore\n    /* \"#utility.yul\":3890:3894   */\n  0x24\n    /* \"#utility.yul\":3887:3888   */\n  0x00\n    /* \"#utility.yul\":3880:3895   */\n  revert\n    /* \"#utility.yul\":3907:4227   */\ntag_27:\n    /* \"#utility.yul\":3951:3957   */\n  0x00\n    /* \"#utility.yul\":3988:3989   */\n  0x02\n    /* \"#utility.yul\":3982:3986   */\n  dup3\n    /* \"#utility.yul\":3978:3990   */\n  div\n    /* \"#utility.yul\":3968:3990   */\n  swap1\n  pop\n    /* \"#utility.yul\":4035:4036   */\n  0x01\n    /* \"#utility.yul\":4029:4033   */\n  dup3\n    /* \"#utility.yul\":4025:4037   */\n  and\n    /* \"#utility.yul\":4056:4074   */\n  dup1\n    /* \"#utility.yul\":4046:4127   */\n  tag_89\n  jumpi\n    /* \"#utility.yul\":4112:4116   */\n  0x7f\n    /* \"#utility.yul\":4104:4110   */\n  dup3\n    /* \"#utility.yul\":4100:4117   */\n  and\n    /* \"#utility.yul\":4090:4117   */\n  swap2\n  pop\n    /* \"#utility.yul\":4046:4127   */\ntag_89:\n    /* \"#utility.yul\":4174:4176   */\n  0x20\n    /* \"#utility.yul\":4166:4172   */\n  dup3\n    /* \"#utility.yul\":4163:4177   */\n  lt\n    /* \"#utility.yul\":4143:4161   */\n  dup2\n    /* \"#utility.yul\":4140:4178   */\n  sub\n    /* \"#utility.yul\":4137:4221   */\n  tag_90\n  jumpi\n    /* \"#utility.yul\":4193:4211   */\n  tag_91\n  tag_26\n  jump\t// in\ntag_91:\n    /* \"#utility.yul\":4137:4221   */\ntag_90:\n    /* \"#utility.yul\":3958:4227   */\n  pop\n    /* \"#utility.yul\":3907:4227   */\n  swap2\n  swap1\n  pop\n  jump\t// out\n    /* \"#utility.yul\":4233:4374   */\ntag_28:\n    /* \"#utility.yul\":4282:4286   */\n  0x00\n    /* \"#utility.yul\":4305:4308   */\n  dup2\n    /* \"#utility.yul\":4297:4308   */\n  swap1\n  pop\n    /* \"#utility.yul\":4328:4331   */\n  dup2\n    /* \"#utility.yul\":4325:4326   */\n  0x00\n    /* \"#utility.yul\":4318:4332   */\n  mstore\n    /* \"#utility.yul\":4362:4366   */\n  0x20\n    /* \"#utility.yul\":4359:4360   */\n  0x00\n    /* \"#utility.yul\":4349:4367   */\n  keccak256\n    /* \"#utility.yul\":4341:4367   */\n  swap1\n  pop\n    /* \"#utility.yul\":4233:4374   */\n  swap2\n  swap1\n  pop\n  jump\t// out\n    /* \"#utility.yul\":4380:4473   */\ntag_29:\n    /* \"#utility.yul\":4417:4423   */\n  0x00\n    /* \"#utility.yul\":4464:4466   */\n  0x20\n    /* \"#utility.yul\":4459:4461   */\n  0x1f\n    /* \"#utility.yul\":4452:4457   */\n  dup4\n    /* \"#utility.yul\":4448:4462   */\n  add\n    /* \"#utility.yul\":4444:4467   */\n  div\n    /* \"#utility.yul\":4434:4467   */\n  swap1\n  pop\n    /* \"#utility.yul\":4380:4473   */\n  swap2\n  swap1\n  pop\n  jump\t// out\n    /* \"#utility.yul\":4479:4586   */\ntag_30:\n    /* \"#utility.yul\":4523:4531   */\n  0x00\n    /* \"#utility.yul\":4573:4578   */\n  dup3\n    /* \"#utility.yul\":4567:4571   */\n  dup3\n    /* \"#utility.yul\":4563:4579   */\n  shl\n    /* \"#utility.yul\":4542:4579   */\n  swap1\n  pop\n    /* \"#utility.yul\":4479:4586   */\n  swap3\n  swap2\n  pop\n  pop\n  jump\t// out\n    /* \"#utility.yul\":4592:4985   */\ntag_31:\n    /* \"#utility.yul\":4661:4667   */\n  0x00\n    /* \"#utility.yul\":4711:4712   */\n  0x08\n    /* \"#utility.yul\":4699:4709   */\n  dup4\n    /* \"#utility.yul\":4695:4713   */\n  mul\n    /* \"#utility.yul\":4734:4831   */\n  tag_96\n    /* \"#utility.yul\":4764:4830   */\n  0xffffffffffffffffffffffffffffffffffffffffffffffffffffffffffffffff\n    /* \"#utility.yul\":4753:4762   */\n  dup3\n    /* \"#utility.yul\":4734:4831   */\n  tag_30\n  jump\t// in\ntag_96:\n    /* \"#utility.yul\":4852:4891   */\n  tag_97\n    /* \"#utility.yul\":4882:4890   */\n  dup7\n    /* \"#utility.yul\":4871:4880   */\n  dup4\n    /* \"#utility.yul\":4852:4891   */\n  tag_30\n  jump\t// in\ntag_97:\n    /* \"#utility.yul\":4840:4891   */\n  swap6\n  pop\n    /* \"#utility.yul\":4924:4928   */\n  dup1\n    /* \"#utility.yul\":4920:4929   */\n  not\n    /* \"#utility.yul\":4913:4918   */\n  dup5\n    /* \"#utility.yul\":4909:4930   */\n  and\n    /* \"#utility.yul\":4900:4930   */\n  swap4\n  pop\n    /* \"#utility.yul\":4973:4977   */\n  dup1\n    /* \"#utility.yul\":4963:4971   */\n  dup7\n    /* \"#utility.yul\":4959:4978   */\n  and\n    /* \"#utility.yul\":4952:4957   */\n  dup5\n    /* \"#utility.yul\":4949:4979   */\n  or\n    /* \"#utility.yul\":4939:4979   */\n  swap3\n  pop\n    /* \"#utility.yul\":4668:4985   */\n  pop\n  pop\n    /* \"#utility.yul\":4592:4985   */\n  swap4\n  swap3\n  pop\n  pop\n  pop\n  jump\t// out\n    /* \"#utility.yul\":4991:5051   */\ntag_32:\n    /* \"#utility.yul\":5019:5022   */\n  0x00\n    /* \"#utility.yul\":5040:5045   */\n  dup2\n    /* \"#utility.yul\":5033:5045   */\n  swap1\n  pop\n    /* \"#utility.yul\":4991:5051   */\n  swap2\n  swap1\n  pop\n  jump\t// out\n    /* \"#utility.yul\":5057:5199   */\ntag_33:\n    /* \"#utility.yul\":5107:5116   */\n  0x00\n    /* \"#utility.yul\":5140:5193   */\n  tag_100\n    /* \"#utility.yul\":5158:5192   */\n  tag_101\n    /* \"#utility.yul\":5167:5191   */\n  tag_102\n    /* \"#utility.yul\":5185:5190   */\n  dup5\n    /* \"#utility.yul\":5167:5191   */\n  tag_22\n  jump\t// in\ntag_102:\n    /* \"#utility.yul\":5158:5192   */\n  tag_32\n  jump\t// in\ntag_101:\n    /* \"#utility.yul\":5140:5193   */\n  tag_22\n  jump\t// in\ntag_100:\n    /* \"#utility.yul\":5127:5193   */\n  swap1\n  pop\n    /* \"#utility.yul\":5057:5199   */\n  swap2\n  swap1\n  pop\n  jump\t// out\n    /* \"#utility.yul\":5205:5280   */\ntag_34:\n    /* \"#utility.yul\":5248:5251   */\n  0x00\n    /* \"#utility.yul\":5269:5274   */\n  dup2\n    /* \"#utility.yul\":5262:5274   */\n  swap1\n  pop\n    /* \"#utility.yul\":5205:5280   */\n  swap2\n  swap1\n  pop\n  jump\t// out\n    /* \"#utility.yul\":5286:5555   */\ntag_35:\n    /* \"#utility.yul\":5396:5435   */\n  tag_105\n    /* \"#utility.yul\":5427:5434   */\n  dup4\n    /* \"#utility.yul\":5396:5435   */\n  tag_33\n  jump\t// in\ntag_105:\n    /* \"#utility.yul\":5457:5548   */\n  tag_106\n    /* \"#utility.yul\":5506:5547   */\n  tag_107\n    /* \"#utility.yul\":5530:5546   */\n  dup3\n    /* \"#utility.yul\":5506:5547   */\n  tag_34\n  jump\t// in\ntag_107:\n    /* \"#utility.yul\":5498:5504   */\n  dup5\n    /* \"#utility.yul\":5491:5495   */\n  dup5\n    /* \"#utility.yul\":5485:5496   */\n  sload\n    /* \"#utility.yul\":5457:5548   */\n  tag_31\n  jump\t// in\ntag_106:\n    /* \"#utility.yul\":5451:5455   */\n  dup3\n    /* \"#utility.yul\":5444:5549   */\n  sstore\n    /* \"#utility.yul\":5362:5555   */\n  pop\n    /* \"#utility.yul\":5286:5555   */\n  pop\n  pop\n  pop\n  jump\t// out\n    /* \"#utility.yul\":5561:5634   */\ntag_36:\n    /* \"#utility.yul\":5606:5609   */\n  0x00\n    /* \"#utility.yul\":5561:5634   */\n  swap1\n  jump\t// out\n    /* \"#utility.yul\":5640:5829   */\ntag_37:\n    /* \"#utility.yul\":5717:5749   */\n  tag_110\n  tag_36\n  jump\t// in\ntag_110:\n    /* \"#utility.yul\":5758:5823   */\n  tag_111\n    /* \"#utility.yul\":5816:5822   */\n  dup2\n    /* \"#utility.yul\":5808:5814   */\n  dup5\n    /* \"#utility.yul\":5802:5806   */\n  dup5\n    /* \"#utility.yul\":5758:5823   */\n  tag_35\n  jump\t// in\ntag_111:\n    /* \"#utility.yul\":5693:5829   */\n  pop\n    /* \"#utility.yul\":5640:5829   */\n  pop\n  pop\n  jump\t// out\n    /* \"#utility.yul\":5835:6021   */\ntag_38:\n    /* \"#utility.yul\":5895:6015   */\ntag_113:\n    /* \"#utility.yul\":5912:5915   */\n  dup2\n    /* \"#utility.yul\":5905:5910   */\n  dup2\n    /* \"#utility.yul\":5902:5916   */\n  lt\n    /* \"#utility.yul\":5895:6015   */\n  iszero\n  tag_115\n  jumpi\n    /* \"#utility.yul\":5966:6005   */\n  tag_116\n    /* \"#utility.yul\":6003:6004   */\n  0x00\n    /* \"#utility.yul\":5996:6001   */\n  dup3\n    /* \"#utility.yul\":5966:6005   */\n  tag_37\n  jump\t// in\ntag_116:\n    /* \"#utility.yul\":5939:5940   */\n  0x01\n    /* \"#utility.yul\":5932:5937   */\n  dup2\n    /* \"#utility.yul\":5928:5941   */\n  add\n    /* \"#utility.yul\":5919:5941   */\n  swap1\n  pop\n    /* \"#utility.yul\":5895:6015   */\n  jump(tag_113)\ntag_115:\n    /* \"#utility.yul\":5835:6021   */\n  pop\n  pop\n  jump\t// out\n    /* \"#utility.yul\":6027:6570   */\ntag_39:\n    /* \"#utility.yul\":6128:6130   */\n  0x1f\n    /* \"#utility.yul\":6123:6126   */\n  dup3\n    /* \"#utility.yul\":6120:6131   */\n  gt\n    /* \"#utility.yul\":6117:6563   */\n  iszero\n  tag_118\n  jumpi\n    /* \"#utility.yul\":6162:6200   */\n  tag_119\n    /* \"#utility.yul\":6194:6199   */\n  dup2\n    /* \"#utility.yul\":6162:6200   */\n  tag_28\n  jump\t// in\ntag_119:\n    /* \"#utility.yul\":6246:6275   */\n  tag_120\n    /* \"#utility.yul\":6264:6274   */\n  dup5\n    /* \"#utility.yul\":6246:6275   */\n  tag_29\n  jump\t// in\ntag_120:\n    /* \"#utility.yul\":6236:6244   */\n  dup2\n    /* \"#utility.yul\":6232:6276   */\n  add\n    /* \"#utility.yul\":6429:6431   */\n  0x20\n    /* \"#utility.yul\":6417:6427   */\n  dup6\n    /* \"#utility.yul\":6414:6432   */\n  lt\n    /* \"#utility.yul\":6411:6460   */\n  iszero\n  tag_121\n  jumpi\n    /* \"#utility.yul\":6450:6458   */\n  dup2\n    /* \"#utility.yul\":6435:6458   */\n  swap1\n  pop\n    /* \"#utility.yul\":6411:6460   */\ntag_121:\n    /* \"#utility.yul\":6473:6553   */\n  tag_122\n    /* \"#utility.yul\":6529:6551   */\n  tag_123\n    /* \"#utility.yul\":6547:6550   */\n  dup6\n    /* \"#utility.yul\":6529:6551   */\n  tag_29\n  jump\t// in\ntag_123:\n    /* \"#utility.yul\":6519:6527   */\n  dup4\n    /* \"#utility.yul\":6515:6552   */\n  add\n    /* \"#utility.yul\":6502:6513   */\n  dup3\n    /* \"#utility.yul\":6473:6553   */\n  tag_38\n  jump\t// in\ntag_122:\n    /* \"#utility.yul\":6132:6563   */\n  pop\n  pop\n    /* \"#utility.yul\":6117:6563   */\ntag_118:\n    /* \"#utility.yul\":6027:6570   */\n  pop\n  pop\n  pop\n  jump\t// out\n    /* \"#utility.yul\":6576:6693   */\ntag_40:\n    /* \"#utility.yul\":6630:6638   */\n  0x00\n    /* \"#utility.yul\":6680:6685   */\n  dup3\n    /* \"#utility.yul\":6674:6678   */\n  dup3\n    /* \"#utility.yul\":6670:6686   */\n  shr\n    /* \"#utility.yul\":6649:6686   */\n  swap1\n  pop\n    /* \"#utility.yul\":6576:6693   */\n  swap3\n  swap2\n  pop\n  pop\n  jump\t// out\n    /* \"#utility.yul\":6699:6868   */\ntag_41:\n    /* \"#utility.yul\":6743:6749   */\n  0x00\n    /* \"#utility.yul\":6776:6827   */\n  tag_126\n    /* \"#utility.yul\":6824:6825   */\n  0x00\n    /* \"#utility.yul\":6820:6826   */\n  not\n    /* \"#utility.yul\":6812:6817   */\n  dup5\n    /* \"#utility.yul\":6809:6810   */\n  0x08\n    /* \"#utility.yul\":6805:6818   */\n  mul\n    /* \"#utility.yul\":6776:6827   */\n  tag_40\n  jump\t// in\ntag_126:\n    /* \"#utility.yul\":6772:6828   */\n  not\n    /* \"#utility.yul\":6857:6861   */\n  dup1\n    /* \"#utility.yul\":6851:6855   */\n  dup4\n    /* \"#utility.yul\":6847:6862   */\n  and\n    /* \"#utility.yul\":6837:6862   */\n  swap2\n  pop\n    /* \"#utility.yul\":6750:6868   */\n  pop\n    /* \"#utility.yul\":6699:6868   */\n  swap3\n  swap2\n  pop\n  pop\n  jump\t// out\n    /* \"#utility.yul\":6873:7168   */\ntag_42:\n    /* \"#utility.yul\":6949:6953   */\n  0x00\n    /* \"#utility.yul\":7095:7124   */\n  tag_128\n    /* \"#utility.yul\":7120:7123   */\n  dup4\n    /* \"#utility.yul\":7114:7118   */\n  dup4\n    /* \"#utility.yul\":7095:7124   */\n  tag_41\n  jump\t// in\ntag_128:\n    /* \"#utility.yul\":7087:7124   */\n  swap2\n  pop\n    /* \"#utility.yul\":7157:7160   */\n  dup3\n    /* \"#utility.yul\":7154:7155   */\n  0x02\n    /* \"#utility.yul\":7150:7161   */\n  mul\n    /* \"#utility.yul\":7144:7148   */\n  dup3\n    /* \"#utility.yul\":7141:7162   */\n  or\n    /* \"#utility.yul\":7133:7162   */\n  swap1\n  pop\n    /* \"#utility.yul\":6873:7168   */\n  swap3\n  swap2\n  pop\n  pop\n  jump\t// out\n    /* \"#utility.yul\":7173:8568   */\ntag_7:\n    /* \"#utility.yul\":7290:7327   */\n  tag_130\n    /* \"#utility.yul\":7323:7326   */\n  dup3\n    /* \"#utility.yul\":7290:7327   */\n  tag_25\n  jump\t// in\ntag_130:\n    /* \"#utility.yul\":7392:7410   */\n  0xffffffffffffffff\n    /* \"#utility.yul\":7384:7390   */\n  dup2\n    /* \"#utility.yul\":7381:7411   */\n  gt\n    /* \"#utility.yul\":7378:7434   */\n  iszero\n  tag_131\n  jumpi\n    /* \"#utility.yul\":7414:7432   */\n  tag_132\n  tag_15\n  jump\t// in\ntag_132:\n    /* \"#utility.yul\":7378:7434   */\ntag_131:\n    /* \"#utility.yul\":7458:7496   */\n  tag_133\n    /* \"#utility.yul\":7490:7494   */\n  dup3\n    /* \"#utility.yul\":7484:7495   */\n  sload\n    /* \"#utility.yul\":7458:7496   */\n  tag_27\n  jump\t// in\ntag_133:\n    /* \"#utility.yul\":7543:7610   */\n  tag_134\n    /* \"#utility.yul\":7603:7609   */\n  dup3\n    /* \"#utility.yul\":7595:7601   */\n  dup3\n    /* \"#utility.yul\":7589:7593   */\n  dup6\n    /* \"#utility.yul\":7543:7610   */\n  tag_39\n  jump\t// in\ntag_134:\n    /* \"#utility.yul\":7637:7638   */\n  0x00\n    /* \"#utility.yul\":7661:7665   */\n  0x20\n    /* \"#utility.yul\":7648:7665   */\n  swap1\n  pop\n    /* \"#utility.yul\":7693:7695   */\n  0x1f\n    /* \"#utility.yul\":7685:7691   */\n  dup4\n    /* \"#utility.yul\":7682:7696   */\n  gt\n    /* \"#utility.yul\":7710:7711   */\n  0x01\n    /* \"#utility.yul\":7705:8323   */\n  dup2\n  eq\n  tag_136\n  jumpi\n    /* \"#utility.yul\":8367:8368   */\n  0x00\n    /* \"#utility.yul\":8384:8390   */\n  dup5\n    /* \"#utility.yul\":8381:8458   */\n  iszero\n  tag_137\n  jumpi\n    /* \"#utility.yul\":8433:8442   */\n  dup3\n    /* \"#utility.yul\":8428:8431   */\n  dup8\n    /* \"#utility.yul\":8424:8443   */\n  add\n    /* \"#utility.yul\":8418:8444   */\n  mload\n    /* \"#utility.yul\":8409:8444   */\n  swap1\n  pop\n    /* \"#utility.yul\":8381:8458   */\ntag_137:\n    /* \"#utility.yul\":8484:8551   */\n  tag_138\n    /* \"#utility.yul\":8544:8550   */\n  dup6\n    /* \"#utility.yul\":8537:8542   */\n  dup3\n    /* \"#utility.yul\":8484:8551   */\n  tag_42\n  jump\t// in\ntag_138:\n    /* \"#utility.yul\":8478:8482   */\n  dup7\n    /* \"#utility.yul\":8471:8552   */\n  sstore\n    /* \"#utility.yul\":8340:8562   */\n  pop\n    /* \"#utility.yul\":7675:8562   */\n  jump(tag_135)\n    /* \"#utility.yul\":7705:8323   */\ntag_136:\n    /* \"#utility.yul\":7757:7761   */\n  0x1f\n    /* \"#utility.yul\":7753:7762   */\n  not\n    /* \"#utility.yul\":7745:7751   */\n  dup5\n    /* \"#utility.yul\":7741:7763   */\n  and\n    /* \"#utility.yul\":7791:7828   */\n  tag_139\n    /* \"#utility.yul\":7823:7827   */\n  dup7\n    /* \"#utility.yul\":7791:7828   */\n  tag_28\n  jump\t// in\ntag_139:\n    /* \"#utility.yul\":7850:7851   */\n  0x00\n    /* \"#utility.yul\":7864:8072   */\ntag_140:\n    /* \"#utility.yul\":7878:7885   */\n  dup3\n    /* \"#utility.yul\":7875:7876   */\n  dup2\n    /* \"#utility.yul\":7872:7886   */\n  lt\n    /* \"#utility.yul\":7864:8072   */\n  iszero\n  tag_142\n  jumpi\n    /* \"#utility.yul\":7957:7966   */\n  dup5\n    /* \"#utility.yul\":7952:7955   */\n  dup10\n    /* \"#utility.yul\":7948:7967   */\n  add\n    /* \"#utility.yul\":7942:7968   */\n  mload\n    /* \"#utility.yul\":7934:7940   */\n  dup3\n    /* \"#utility.yul\":7927:7969   */\n  sstore\n    /* \"#utility.yul\":8008:8009   */\n  0x01\n    /* \"#utility.yul\":8000:8006   */\n  dup3\n    /* \"#utility.yul\":7996:8010   */\n  add\n    /* \"#utility.yul\":7986:8010   */\n  swap2\n  pop\n    /* \"#utility.yul\":8055:8057   */\n  0x20\n    /* \"#utility.yul\":8044:8053   */\n  dup6\n    /* \"#utility.yul\":8040:8058   */\n  add\n    /* \"#utility.yul\":8027:8058   */\n  swap5\n  pop\n    /* \"#utility.yul\":7901:7905   */\n  0x20\n    /* \"#utility.yul\":7898:7899   */\n  dup2\n    /* \"#utility.yul\":7894:7906   */\n  add\n    /* \"#utility.yul\":7889:7906   */\n  swap1\n  pop\n    /* \"#utility.yul\":7864:8072   */\n  jump(tag_140)\ntag_142:\n    /* \"#utility.yul\":8100:8106   */\n  dup7\n    /* \"#utility.yul\":8091:8098   */\n  dup4\n    /* \"#utility.yul\":8088:8107   */\n  lt\n    /* \"#utility.yul\":8085:8264   */\n  iszero\n  tag_143\n  jumpi\n    /* \"#utility.yul\":8158:8167   */\n  dup5\n    /* \"#utility.yul\":8153:8156   */\n  dup10\n    /* \"#utility.yul\":8149:8168   */\n  add\n    /* \"#utility.yul\":8143:8169   */\n  mload\n    /* \"#utility.yul\":8201:8249   */\n  tag_144\n    /* \"#utility.yul\":8243:8247   */\n  0x1f\n    /* \"#utility.yul\":8235:8241   */\n  dup10\n    /* \"#utility.yul\":8231:8248   */\n  and\n    /* \"#utility.yul\":8220:8229   */\n  dup3\n    /* \"#utility.yul\":8201:8249   */\n  tag_41\n  jump\t// in\ntag_144:\n    /* \"#utility.yul\":8193:8199   */\n  dup4\n    /* \"#utility.yul\":8186:8250   */\n  sstore\n    /* \"#utility.yul\":8108:8264   */\n  pop\n    /* \"#utility.yul\":8085:8264   */\ntag_143:\n    /* \"#utility.yul\":8310:8311   */\n  0x01\n    /* \"#utility.yul\":8306:8307   */\n  0x02\n    /* \"#utility.yul\":8298:8304   */\n  dup9\n    /* \"#utility.yul\":8294:8308   */\n  mul\n    /* \"#utility.yul\":8290:8312   */\n  add\n    /* \"#utility.yul\":8284:8288   */\n  dup9\n    /* \"#utility.yul\":8277:8313   */\n  sstore\n    /* \"#utility.yul\":7712:8323   */\n  pop\n  pop\n  pop\n    /* \"#utility.yul\":7675:8562   */\ntag_135:\n  pop\n    /* \"#utility.yul\":7265:8568   */\n  pop\n  pop\n  pop\n    /* \"#utility.yul\":7173:8568   */\n  pop\n  pop\n  jump\t// out\n    /* \"contracts/DUUID/university.sol\":148:1192  contract University {... */\ntag_8:\n  dataSize(sub_0)\n  dup1\n  dataOffset(sub_0)\n  0x00\n  codecopy\n  0x00\n  return\nstop\n\nsub_0: assembly {\n        /* \"contracts/DUUID/university.sol\":148:1192  contract University {... */\n      mstore(0x40, 0x80)\n      callvalue\n      dup1\n      iszero\n      tag_1\n      jumpi\n      0x00\n      dup1\n      revert\n    tag_1:\n      pop\n      jumpi(tag_2, lt(calldatasize, 0x04))\n      shr(0xe0, calldataload(0x00))\n      dup1\n      0xa6c807a9\n      gt\n      tag_12\n      jumpi\n      dup1\n      0xa6c807a9\n      eq\n      tag_7\n      jumpi\n      dup1\n      0xb74b70a1\n      eq\n      tag_8\n      jumpi\n      dup1\n      0xc763e5a1\n      eq\n      tag_9\n      jumpi\n      dup1\n      0xe9b42033\n      eq\n      tag_10\n      jumpi\n      dup1\n      0xed32a8a1\n      eq\n      tag_11\n      jumpi\n      jump(tag_2)\n    tag_12:\n      dup1\n      0x2b74ad75\n      eq\n      tag_3\n      jumpi\n      dup1\n      0x3abbed8c\n      eq\n      tag_4\n      jumpi\n      dup1\n      0x5283ce5f\n      eq\n      tag_5\n      jumpi\n      dup1\n      0x7df221e9\n      eq\n      tag_6\n      jumpi\n    tag_2:\n      0x00\n      dup1\n      revert\n        /* \"contracts/DUUID/university.sol\":841:1016  function concedeStudentsCredits(address studentAddress, uint credits) public {... */\n    tag_3:\n      tag_13\n      0x04\n      dup1\n      calldatasize\n      sub\n      dup2\n      add\n      swap1\n      tag_14\n      swap2\n      swap1\n      tag_15\n      jump\t// in\n    tag_14:\n      tag_16\n      jump\t// in\n    tag_13:\n      stop\n        /* \"contracts/DUUID/university.sol\":232:257  uint public fundationYear */\n    tag_4:\n      tag_17\n      tag_18\n      jump\t// in\n    tag_17:\n      mload(0x40)\n      tag_19\n      swap2\n      swap1\n      tag_20\n      jump\t// in\n    tag_19:\n      mload(0x40)\n      dup1\n      swap2\n      sub\n      swap1\n      return\n        /* \"contracts/DUUID/university.sol\":204:225  string public UniName */\n    tag_5:\n      tag_21\n      tag_22\n      jump\t// in\n    tag_21:\n      mload(0x40)\n      tag_23\n      swap2\n      swap1\n      tag_24\n      jump\t// in\n    tag_23:\n      mload(0x40)\n      dup1\n      swap2\n      sub\n      swap1\n      return\n        /* \"contracts/DUUID/university.sol\":266:294  address[] public studentList */\n    tag_6:\n      tag_25\n      0x04\n      dup1\n      calldatasize\n      sub\n      dup2\n      add\n      swap1\n      tag_26\n      swap2\n      swap1\n      tag_27\n      jump\t// in\n    tag_26:\n      tag_28\n      jump\t// in\n    tag_25:\n      mload(0x40)\n      tag_29\n      swap2\n      swap1\n      tag_30\n      jump\t// in\n    tag_29:\n      mload(0x40)\n      dup1\n      swap2\n      sub\n      swap1\n      return\n        /* \"contracts/DUUID/university.sol\":301:344  mapping(address => Student) public students */\n    tag_7:\n      tag_31\n      0x04\n      dup1\n      calldatasize\n      sub\n      dup2\n      add\n      swap1\n      tag_32\n      swap2\n      swap1\n      tag_33\n      jump\t// in\n    tag_32:\n      tag_34\n      jump\t// in\n    tag_31:\n      mload(0x40)\n      tag_35\n      swap2\n      swap1\n      tag_36\n      jump\t// in\n    tag_35:\n      mload(0x40)\n      dup1\n      swap2\n      sub\n      swap1\n      return\n        /* \"contracts/DUUID/university.sol\":353:387  uint public studentsSubscribed = 0 */\n    tag_8:\n      tag_37\n      tag_38\n      jump\t// in\n    tag_37:\n      mload(0x40)\n      tag_39\n      swap2\n      swap1\n      tag_20\n      jump\t// in\n    tag_39:\n      mload(0x40)\n      dup1\n      swap2\n      sub\n      swap1\n      return\n        /* \"contracts/DUUID/university.sol\":177:195  duuid public chain */\n    tag_9:\n      tag_40\n      tag_41\n      jump\t// in\n    tag_40:\n      mload(0x40)\n      tag_42\n      swap2\n      swap1\n      tag_43\n      jump\t// in\n    tag_42:\n      mload(0x40)\n      dup1\n      swap2\n      sub\n      swap1\n      return\n        /* \"contracts/DUUID/university.sol\":1024:1189  function changeStudentsCGPA(address studentAddress, uint CGPA) public {... */\n    tag_10:\n      tag_44\n      0x04\n      dup1\n      calldatasize\n      sub\n      dup2\n      add\n      swap1\n      tag_45\n      swap2\n      swap1\n      tag_15\n      jump\t// in\n    tag_45:\n      tag_46\n      jump\t// in\n    tag_44:\n      stop\n        /* \"contracts/DUUID/university.sol\":541:833  function addStudent(string memory name, uint enrollmentYear, string memory institutional_ID) public {... */\n    tag_11:\n      tag_47\n      0x04\n      dup1\n      calldatasize\n      sub\n      dup2\n      add\n      swap1\n      tag_48\n      swap2\n      swap1\n      tag_49\n      jump\t// in\n    tag_48:\n      tag_50\n      jump\t// in\n    tag_47:\n      stop\n        /* \"contracts/DUUID/university.sol\":841:1016  function concedeStudentsCredits(address studentAddress, uint credits) public {... */\n    tag_16:\n        /* \"contracts/DUUID/university.sol\":929:944  Student student */\n      0x00\n        /* \"contracts/DUUID/university.sol\":955:969  studentAddress */\n      dup3\n        /* \"contracts/DUUID/university.sol\":929:970  Student student = Student(studentAddress) */\n      swap1\n      pop\n        /* \"contracts/DUUID/university.sol\":981:988  student */\n      dup1\n        /* \"contracts/DUUID/university.sol\":981:999  student.addCredits */\n      0xffffffffffffffffffffffffffffffffffffffff\n      and\n      0x2aea58b2\n        /* \"contracts/DUUID/university.sol\":1000:1007  credits */\n      dup4\n        /* \"contracts/DUUID/university.sol\":981:1008  student.addCredits(credits) */\n      mload(0x40)\n      dup3\n      0xffffffff\n      and\n      0xe0\n      shl\n      dup2\n      mstore\n      0x04\n      add\n      tag_52\n      swap2\n      swap1\n      tag_20\n      jump\t// in\n    tag_52:\n      0x00\n      mload(0x40)\n      dup1\n      dup4\n      sub\n      dup2\n      0x00\n      dup8\n      dup1\n      extcodesize\n      iszero\n      dup1\n      iszero\n      tag_53\n      jumpi\n      0x00\n      dup1\n      revert\n    tag_53:\n      pop\n      gas\n      call\n      iszero\n      dup1\n      iszero\n      tag_55\n      jumpi\n      returndatasize\n      0x00\n      dup1\n      returndatacopy\n      revert(0x00, returndatasize)\n    tag_55:\n      pop\n      pop\n      pop\n      pop\n        /* \"contracts/DUUID/university.sol\":918:1016  {... */\n      pop\n        /* \"contracts/DUUID/university.sol\":841:1016  function concedeStudentsCredits(address studentAddress, uint credits) public {... */\n      pop\n      pop\n      jump\t// out\n        /* \"contracts/DUUID/university.sol\":232:257  uint public fundationYear */\n    tag_18:\n      sload(0x02)\n      dup2\n      jump\t// out\n        /* \"contracts/DUUID/university.sol\":204:225  string public UniName */\n    tag_22:\n      0x01\n      dup1\n      sload\n      tag_56\n      swap1\n      tag_57\n      jump\t// in\n    tag_56:\n      dup1\n      0x1f\n      add\n      0x20\n      dup1\n      swap2\n      div\n      mul\n      0x20\n      add\n      mload(0x40)\n      swap1\n      dup2\n      add\n      0x40\n      mstore\n      dup1\n      swap3\n      swap2\n      swap1\n      dup2\n      dup2\n      mstore\n      0x20\n      add\n      dup3\n      dup1\n      sload\n      tag_58\n      swap1\n      tag_57\n      jump\t// in\n    tag_58:\n      dup1\n      iszero\n      tag_59\n      jumpi\n      dup1\n      0x1f\n      lt\n      tag_60\n      jumpi\n      0x0100\n      dup1\n      dup4\n      sload\n      div\n      mul\n      dup4\n      mstore\n      swap2\n      0x20\n      add\n      swap2\n      jump(tag_59)\n    tag_60:\n      dup3\n      add\n      swap2\n      swap1\n      0x00\n      mstore\n      keccak256(0x00, 0x20)\n      swap1\n    tag_61:\n      dup2\n      sload\n      dup2\n      mstore\n      swap1\n      0x01\n      add\n      swap1\n      0x20\n      add\n      dup1\n      dup4\n      gt\n      tag_61\n      jumpi\n      dup3\n      swap1\n      sub\n      0x1f\n      and\n      dup3\n      add\n      swap2\n    tag_59:\n      pop\n      pop\n      pop\n      pop\n      pop\n      dup2\n      jump\t// out\n        /* \"contracts/DUUID/university.sol\":266:294  address[] public studentList */\n    tag_28:\n      0x03\n      dup2\n      dup2\n      sload\n      dup2\n      lt\n      tag_62\n      jumpi\n      0x00\n      dup1\n      revert\n    tag_62:\n      swap1\n      0x00\n      mstore\n      keccak256(0x00, 0x20)\n      add\n      0x00\n      swap2\n      pop\n      sload\n      swap1\n      0x0100\n      exp\n      swap1\n      div\n      0xffffffffffffffffffffffffffffffffffffffff\n      and\n      dup2\n      jump\t// out\n        /* \"contracts/DUUID/university.sol\":301:344  mapping(address => Student) public students */\n    tag_34:\n      mstore(0x20, 0x04)\n      dup1\n      0x00\n      mstore\n      keccak256(0x00, 0x40)\n      0x00\n      swap2\n      pop\n      sload\n      swap1\n      0x0100\n      exp\n      swap1\n      div\n      0xffffffffffffffffffffffffffffffffffffffff\n      and\n      dup2\n      jump\t// out\n        /* \"contracts/DUUID/university.sol\":353:387  uint public studentsSubscribed = 0 */\n    tag_38:\n      sload(0x05)\n      dup2\n      jump\t// out\n        /* \"contracts/DUUID/university.sol\":177:195  duuid public chain */\n    tag_41:\n      0x00\n      dup1\n      sload\n      swap1\n      0x0100\n      exp\n      swap1\n      div\n      0xffffffffffffffffffffffffffffffffffffffff\n      and\n      dup2\n      jump\t// out\n        /* \"contracts/DUUID/university.sol\":1024:1189  function changeStudentsCGPA(address studentAddress, uint CGPA) public {... */\n    tag_46:\n        /* \"contracts/DUUID/university.sol\":1105:1120  Student student */\n      0x00\n        /* \"contracts/DUUID/university.sol\":1131:1145  studentAddress */\n      dup3\n        /* \"contracts/DUUID/university.sol\":1105:1146  Student student = Student(studentAddress) */\n      swap1\n      pop\n        /* \"contracts/DUUID/university.sol\":1157:1164  student */\n      dup1\n        /* \"contracts/DUUID/university.sol\":1157:1175  student.updateCGPA */\n      0xffffffffffffffffffffffffffffffffffffffff\n      and\n      0xd24cc4a9\n        /* \"contracts/DUUID/university.sol\":1176:1180  CGPA */\n      dup4\n        /* \"contracts/DUUID/university.sol\":1157:1181  student.updateCGPA(CGPA) */\n      mload(0x40)\n      dup3\n      0xffffffff\n      and\n      0xe0\n      shl\n      dup2\n      mstore\n      0x04\n      add\n      tag_65\n      swap2\n      swap1\n      tag_20\n      jump\t// in\n    tag_65:\n      0x00\n      mload(0x40)\n      dup1\n      dup4\n      sub\n      dup2\n      0x00\n      dup8\n      dup1\n      extcodesize\n      iszero\n      dup1\n      iszero\n      tag_66\n      jumpi\n      0x00\n      dup1\n      revert\n    tag_66:\n      pop\n      gas\n      call\n      iszero\n      dup1\n      iszero\n      tag_68\n      jumpi\n      returndatasize\n      0x00\n      dup1\n      returndatacopy\n      revert(0x00, returndatasize)\n    tag_68:\n      pop\n      pop\n      pop\n      pop\n        /* \"contracts/DUUID/university.sol\":1094:1189  {... */\n      pop\n        /* \"contracts/DUUID/university.sol\":1024:1189  function changeStudentsCGPA(address studentAddress, uint CGPA) public {... */\n      pop\n      pop\n      jump\t// out\n        /* \"contracts/DUUID/university.sol\":541:833  function addStudent(string memory name, uint enrollmentYear, string memory institutional_ID) public {... */\n    tag_50:\n        /* \"contracts/DUUID/university.sol\":652:670  studentsSubscribed */\n      0x05\n      0x00\n        /* \"contracts/DUUID/university.sol\":652:672  studentsSubscribed++ */\n      dup2\n      sload\n      dup1\n      swap3\n      swap2\n      swap1\n      tag_70\n      swap1\n      tag_71\n      jump\t// in\n    tag_70:\n      swap2\n      swap1\n      pop\n      sstore\n      pop\n        /* \"contracts/DUUID/university.sol\":683:701  Student newStudent */\n      0x00\n        /* \"contracts/DUUID/university.sol\":716:720  name */\n      dup4\n        /* \"contracts/DUUID/university.sol\":722:736  enrollmentYear */\n      dup4\n        /* \"contracts/DUUID/university.sol\":738:754  institutional_ID */\n      dup4\n        /* \"contracts/DUUID/university.sol\":756:774  studentsSubscribed */\n      sload(0x05)\n        /* \"contracts/DUUID/university.sol\":704:775  new Student(name, enrollmentYear, institutional_ID, studentsSubscribed) */\n      mload(0x40)\n      tag_72\n      swap1\n      tag_73\n      jump\t// in\n    tag_72:\n      tag_74\n      swap5\n      swap4\n      swap3\n      swap2\n      swap1\n      tag_75\n      jump\t// in\n    tag_74:\n      mload(0x40)\n      dup1\n      swap2\n      sub\n      swap1\n      0x00\n      create\n      dup1\n      iszero\n      dup1\n      iszero\n      tag_76\n      jumpi\n      returndatasize\n      0x00\n      dup1\n      returndatacopy\n      revert(0x00, returndatasize)\n    tag_76:\n      pop\n        /* \"contracts/DUUID/university.sol\":683:775  Student newStudent = new Student(name, enrollmentYear, institutional_ID, studentsSubscribed) */\n      swap1\n      pop\n        /* \"contracts/DUUID/university.sol\":788:799  studentList */\n      0x03\n        /* \"contracts/DUUID/university.sol\":813:823  newStudent */\n      dup2\n        /* \"contracts/DUUID/university.sol\":788:825  studentList.push(address(newStudent)) */\n      swap1\n      dup1\n      0x01\n      dup2\n      sload\n      add\n      dup1\n      dup3\n      sstore\n      dup1\n      swap2\n      pop\n      pop\n      0x01\n      swap1\n      sub\n      swap1\n      0x00\n      mstore\n      keccak256(0x00, 0x20)\n      add\n      0x00\n      swap1\n      swap2\n      swap1\n      swap2\n      swap1\n      swap2\n      0x0100\n      exp\n      dup2\n      sload\n      dup2\n      0xffffffffffffffffffffffffffffffffffffffff\n      mul\n      not\n      and\n      swap1\n      dup4\n      0xffffffffffffffffffffffffffffffffffffffff\n      and\n      mul\n      or\n      swap1\n      sstore\n      pop\n        /* \"contracts/DUUID/university.sol\":641:833  {... */\n      pop\n        /* \"contracts/DUUID/university.sol\":541:833  function addStudent(string memory name, uint enrollmentYear, string memory institutional_ID) public {... */\n      pop\n      pop\n      pop\n      jump\t// out\n    tag_73:\n      dataSize(sub_0)\n      dup1\n      dataOffset(sub_0)\n      dup4\n      codecopy\n      add\n      swap1\n      jump\t// out\n        /* \"#utility.yul\":7:82   */\n    tag_78:\n        /* \"#utility.yul\":40:46   */\n      0x00\n        /* \"#utility.yul\":73:75   */\n      0x40\n        /* \"#utility.yul\":67:76   */\n      mload\n        /* \"#utility.yul\":57:76   */\n      swap1\n      pop\n        /* \"#utility.yul\":7:82   */\n      swap1\n      jump\t// out\n        /* \"#utility.yul\":88:205   */\n    tag_79:\n        /* \"#utility.yul\":197:198   */\n      0x00\n        /* \"#utility.yul\":194:195   */\n      dup1\n        /* \"#utility.yul\":187:199   */\n      revert\n        /* \"#utility.yul\":211:328   */\n    tag_80:\n        /* \"#utility.yul\":320:321   */\n      0x00\n        /* \"#utility.yul\":317:318   */\n      dup1\n        /* \"#utility.yul\":310:322   */\n      revert\n        /* \"#utility.yul\":334:460   */\n    tag_81:\n        /* \"#utility.yul\":371:378   */\n      0x00\n        /* \"#utility.yul\":411:453   */\n      0xffffffffffffffffffffffffffffffffffffffff\n        /* \"#utility.yul\":404:409   */\n      dup3\n        /* \"#utility.yul\":400:454   */\n      and\n        /* \"#utility.yul\":389:454   */\n      swap1\n      pop\n        /* \"#utility.yul\":334:460   */\n      swap2\n      swap1\n      pop\n      jump\t// out\n        /* \"#utility.yul\":466:562   */\n    tag_82:\n        /* \"#utility.yul\":503:510   */\n      0x00\n        /* \"#utility.yul\":532:556   */\n      tag_119\n        /* \"#utility.yul\":550:555   */\n      dup3\n        /* \"#utility.yul\":532:556   */\n      tag_81\n      jump\t// in\n    tag_119:\n        /* \"#utility.yul\":521:556   */\n      swap1\n      pop\n        /* \"#utility.yul\":466:562   */\n      swap2\n      swap1\n      pop\n      jump\t// out\n        /* \"#utility.yul\":568:690   */\n    tag_83:\n        /* \"#utility.yul\":641:665   */\n      tag_121\n        /* \"#utility.yul\":659:664   */\n      dup2\n        /* \"#utility.yul\":641:665   */\n      tag_82\n      jump\t// in\n    tag_121:\n        /* \"#utility.yul\":634:639   */\n      dup2\n        /* \"#utility.yul\":631:666   */\n      eq\n        /* \"#utility.yul\":621:684   */\n      tag_122\n      jumpi\n        /* \"#utility.yul\":680:681   */\n      0x00\n        /* \"#utility.yul\":677:678   */\n      dup1\n        /* \"#utility.yul\":670:682   */\n      revert\n        /* \"#utility.yul\":621:684   */\n    tag_122:\n        /* \"#utility.yul\":568:690   */\n      pop\n      jump\t// out\n        /* \"#utility.yul\":696:835   */\n    tag_84:\n        /* \"#utility.yul\":742:747   */\n      0x00\n        /* \"#utility.yul\":780:786   */\n      dup2\n        /* \"#utility.yul\":767:787   */\n      calldataload\n        /* \"#utility.yul\":758:787   */\n      swap1\n      pop\n        /* \"#utility.yul\":796:829   */\n      tag_124\n        /* \"#utility.yul\":823:828   */\n      dup2\n        /* \"#utility.yul\":796:829   */\n      tag_83\n      jump\t// in\n    tag_124:\n        /* \"#utility.yul\":696:835   */\n      swap3\n      swap2\n      pop\n      pop\n      jump\t// out\n        /* \"#utility.yul\":841:918   */\n    tag_85:\n        /* \"#utility.yul\":878:885   */\n      0x00\n        /* \"#utility.yul\":907:912   */\n      dup2\n        /* \"#utility.yul\":896:912   */\n      swap1\n      pop\n        /* \"#utility.yul\":841:918   */\n      swap2\n      swap1\n      pop\n      jump\t// out\n        /* \"#utility.yul\":924:1046   */\n    tag_86:\n        /* \"#utility.yul\":997:1021   */\n      tag_127\n        /* \"#utility.yul\":1015:1020   */\n      dup2\n        /* \"#utility.yul\":997:1021   */\n      tag_85\n      jump\t// in\n    tag_127:\n        /* \"#utility.yul\":990:995   */\n      dup2\n        /* \"#utility.yul\":987:1022   */\n      eq\n        /* \"#utility.yul\":977:1040   */\n      tag_128\n      jumpi\n        /* \"#utility.yul\":1036:1037   */\n      0x00\n        /* \"#utility.yul\":1033:1034   */\n      dup1\n        /* \"#utility.yul\":1026:1038   */\n      revert\n        /* \"#utility.yul\":977:1040   */\n    tag_128:\n        /* \"#utility.yul\":924:1046   */\n      pop\n      jump\t// out\n        /* \"#utility.yul\":1052:1191   */\n    tag_87:\n        /* \"#utility.yul\":1098:1103   */\n      0x00\n        /* \"#utility.yul\":1136:1142   */\n      dup2\n        /* \"#utility.yul\":1123:1143   */\n      calldataload\n        /* \"#utility.yul\":1114:1143   */\n      swap1\n      pop\n        /* \"#utility.yul\":1152:1185   */\n      tag_130\n        /* \"#utility.yul\":1179:1184   */\n      dup2\n        /* \"#utility.yul\":1152:1185   */\n      tag_86\n      jump\t// in\n    tag_130:\n        /* \"#utility.yul\":1052:1191   */\n      swap3\n      swap2\n      pop\n      pop\n      jump\t// out\n        /* \"#utility.yul\":1197:1671   */\n    tag_15:\n        /* \"#utility.yul\":1265:1271   */\n      0x00\n        /* \"#utility.yul\":1273:1279   */\n      dup1\n        /* \"#utility.yul\":1322:1324   */\n      0x40\n        /* \"#utility.yul\":1310:1319   */\n      dup4\n        /* \"#utility.yul\":1301:1308   */\n      dup6\n        /* \"#utility.yul\":1297:1320   */\n      sub\n        /* \"#utility.yul\":1293:1325   */\n      slt\n        /* \"#utility.yul\":1290:1409   */\n      iszero\n      tag_132\n      jumpi\n        /* \"#utility.yul\":1328:1407   */\n      tag_133\n      tag_79\n      jump\t// in\n    tag_133:\n        /* \"#utility.yul\":1290:1409   */\n    tag_132:\n        /* \"#utility.yul\":1448:1449   */\n      0x00\n        /* \"#utility.yul\":1473:1526   */\n      tag_134\n        /* \"#utility.yul\":1518:1525   */\n      dup6\n        /* \"#utility.yul\":1509:1515   */\n      dup3\n        /* \"#utility.yul\":1498:1507   */\n      dup7\n        /* \"#utility.yul\":1494:1516   */\n      add\n        /* \"#utility.yul\":1473:1526   */\n      tag_84\n      jump\t// in\n    tag_134:\n        /* \"#utility.yul\":1463:1526   */\n      swap3\n      pop\n        /* \"#utility.yul\":1419:1536   */\n      pop\n        /* \"#utility.yul\":1575:1577   */\n      0x20\n        /* \"#utility.yul\":1601:1654   */\n      tag_135\n        /* \"#utility.yul\":1646:1653   */\n      dup6\n        /* \"#utility.yul\":1637:1643   */\n      dup3\n        /* \"#utility.yul\":1626:1635   */\n      dup7\n        /* \"#utility.yul\":1622:1644   */\n      add\n        /* \"#utility.yul\":1601:1654   */\n      tag_87\n      jump\t// in\n    tag_135:\n        /* \"#utility.yul\":1591:1654   */\n      swap2\n      pop\n        /* \"#utility.yul\":1546:1664   */\n      pop\n        /* \"#utility.yul\":1197:1671   */\n      swap3\n      pop\n      swap3\n      swap1\n      pop\n      jump\t// out\n        /* \"#utility.yul\":1677:1795   */\n    tag_88:\n        /* \"#utility.yul\":1764:1788   */\n      tag_137\n        /* \"#utility.yul\":1782:1787   */\n      dup2\n        /* \"#utility.yul\":1764:1788   */\n      tag_85\n      jump\t// in\n    tag_137:\n        /* \"#utility.yul\":1759:1762   */\n      dup3\n        /* \"#utility.yul\":1752:1789   */\n      mstore\n        /* \"#utility.yul\":1677:1795   */\n      pop\n      pop\n      jump\t// out\n        /* \"#utility.yul\":1801:2023   */\n    tag_20:\n        /* \"#utility.yul\":1894:1898   */\n      0x00\n        /* \"#utility.yul\":1932:1934   */\n      0x20\n        /* \"#utility.yul\":1921:1930   */\n      dup3\n        /* \"#utility.yul\":1917:1935   */\n      add\n        /* \"#utility.yul\":1909:1935   */\n      swap1\n      pop\n        /* \"#utility.yul\":1945:2016   */\n      tag_139\n        /* \"#utility.yul\":2013:2014   */\n      0x00\n        /* \"#utility.yul\":2002:2011   */\n      dup4\n        /* \"#utility.yul\":1998:2015   */\n      add\n        /* \"#utility.yul\":1989:1995   */\n      dup5\n        /* \"#utility.yul\":1945:2016   */\n      tag_88\n      jump\t// in\n    tag_139:\n        /* \"#utility.yul\":1801:2023   */\n      swap3\n      swap2\n      pop\n      pop\n      jump\t// out\n        /* \"#utility.yul\":2029:2128   */\n    tag_89:\n        /* \"#utility.yul\":2081:2087   */\n      0x00\n        /* \"#utility.yul\":2115:2120   */\n      dup2\n        /* \"#utility.yul\":2109:2121   */\n      mload\n        /* \"#utility.yul\":2099:2121   */\n      swap1\n      pop\n        /* \"#utility.yul\":2029:2128   */\n      swap2\n      swap1\n      pop\n      jump\t// out\n        /* \"#utility.yul\":2134:2303   */\n    tag_90:\n        /* \"#utility.yul\":2218:2229   */\n      0x00\n        /* \"#utility.yul\":2252:2258   */\n      dup3\n        /* \"#utility.yul\":2247:2250   */\n      dup3\n        /* \"#utility.yul\":2240:2259   */\n      mstore\n        /* \"#utility.yul\":2292:2296   */\n      0x20\n        /* \"#utility.yul\":2287:2290   */\n      dup3\n        /* \"#utility.yul\":2283:2297   */\n      add\n        /* \"#utility.yul\":2268:2297   */\n      swap1\n      pop\n        /* \"#utility.yul\":2134:2303   */\n      swap3\n      swap2\n      pop\n      pop\n      jump\t// out\n        /* \"#utility.yul\":2309:2448   */\n    tag_91:\n        /* \"#utility.yul\":2398:2404   */\n      dup3\n        /* \"#utility.yul\":2393:2396   */\n      dup2\n        /* \"#utility.yul\":2388:2391   */\n      dup4\n        /* \"#utility.yul\":2382:2405   */\n      mcopy\n        /* \"#utility.yul\":2439:2440   */\n      0x00\n        /* \"#utility.yul\":2430:2436   */\n      dup4\n        /* \"#utility.yul\":2425:2428   */\n      dup4\n        /* \"#utility.yul\":2421:2437   */\n      add\n        /* \"#utility.yul\":2414:2441   */\n      mstore\n        /* \"#utility.yul\":2309:2448   */\n      pop\n      pop\n      pop\n      jump\t// out\n        /* \"#utility.yul\":2454:2556   */\n    tag_92:\n        /* \"#utility.yul\":2495:2501   */\n      0x00\n        /* \"#utility.yul\":2546:2548   */\n      0x1f\n        /* \"#utility.yul\":2542:2549   */\n      not\n        /* \"#utility.yul\":2537:2539   */\n      0x1f\n        /* \"#utility.yul\":2530:2535   */\n      dup4\n        /* \"#utility.yul\":2526:2540   */\n      add\n        /* \"#utility.yul\":2522:2550   */\n      and\n        /* \"#utility.yul\":2512:2550   */\n      swap1\n      pop\n        /* \"#utility.yul\":2454:2556   */\n      swap2\n      swap1\n      pop\n      jump\t// out\n        /* \"#utility.yul\":2562:2939   */\n    tag_93:\n        /* \"#utility.yul\":2650:2653   */\n      0x00\n        /* \"#utility.yul\":2678:2717   */\n      tag_145\n        /* \"#utility.yul\":2711:2716   */\n      dup3\n        /* \"#utility.yul\":2678:2717   */\n      tag_89\n      jump\t// in\n    tag_145:\n        /* \"#utility.yul\":2733:2804   */\n      tag_146\n        /* \"#utility.yul\":2797:2803   */\n      dup2\n        /* \"#utility.yul\":2792:2795   */\n      dup6\n        /* \"#utility.yul\":2733:2804   */\n      tag_90\n      jump\t// in\n    tag_146:\n        /* \"#utility.yul\":2726:2804   */\n      swap4\n      pop\n        /* \"#utility.yul\":2813:2878   */\n      tag_147\n        /* \"#utility.yul\":2871:2877   */\n      dup2\n        /* \"#utility.yul\":2866:2869   */\n      dup6\n        /* \"#utility.yul\":2859:2863   */\n      0x20\n        /* \"#utility.yul\":2852:2857   */\n      dup7\n        /* \"#utility.yul\":2848:2864   */\n      add\n        /* \"#utility.yul\":2813:2878   */\n      tag_91\n      jump\t// in\n    tag_147:\n        /* \"#utility.yul\":2903:2932   */\n      tag_148\n        /* \"#utility.yul\":2925:2931   */\n      dup2\n        /* \"#utility.yul\":2903:2932   */\n      tag_92\n      jump\t// in\n    tag_148:\n        /* \"#utility.yul\":2898:2901   */\n      dup5\n        /* \"#utility.yul\":2894:2933   */\n      add\n        /* \"#utility.yul\":2887:2933   */\n      swap2\n      pop\n        /* \"#utility.yul\":2654:2939   */\n      pop\n        /* \"#utility.yul\":2562:2939   */\n      swap3\n      swap2\n      pop\n      pop\n      jump\t// out\n        /* \"#utility.yul\":2945:3258   */\n    tag_24:\n        /* \"#utility.yul\":3058:3062   */\n      0x00\n        /* \"#utility.yul\":3096:3098   */\n      0x20\n        /* \"#utility.yul\":3085:3094   */\n      dup3\n        /* \"#utility.yul\":3081:3099   */\n      add\n        /* \"#utility.yul\":3073:3099   */\n      swap1\n      pop\n        /* \"#utility.yul\":3145:3154   */\n      dup2\n        /* \"#utility.yul\":3139:3143   */\n      dup2\n        /* \"#utility.yul\":3135:3155   */\n      sub\n        /* \"#utility.yul\":3131:3132   */\n      0x00\n        /* \"#utility.yul\":3120:3129   */\n      dup4\n        /* \"#utility.yul\":3116:3133   */\n      add\n        /* \"#utility.yul\":3109:3156   */\n      mstore\n        /* \"#utility.yul\":3173:3251   */\n      tag_150\n        /* \"#utility.yul\":3246:3250   */\n      dup2\n        /* \"#utility.yul\":3237:3243   */\n      dup5\n        /* \"#utility.yul\":3173:3251   */\n      tag_93\n      jump\t// in\n    tag_150:\n        /* \"#utility.yul\":3165:3251   */\n      swap1\n      pop\n        /* \"#utility.yul\":2945:3258   */\n      swap3\n      swap2\n      pop\n      pop\n      jump\t// out\n        /* \"#utility.yul\":3264:3593   */\n    tag_27:\n        /* \"#utility.yul\":3323:3329   */\n      0x00\n        /* \"#utility.yul\":3372:3374   */\n      0x20\n        /* \"#utility.yul\":3360:3369   */\n      dup3\n        /* \"#utility.yul\":3351:3358   */\n      dup5\n        /* \"#utility.yul\":3347:3370   */\n      sub\n        /* \"#utility.yul\":3343:3375   */\n      slt\n        /* \"#utility.yul\":3340:3459   */\n      iszero\n      tag_152\n      jumpi\n        /* \"#utility.yul\":3378:3457   */\n      tag_153\n      tag_79\n      jump\t// in\n    tag_153:\n        /* \"#utility.yul\":3340:3459   */\n    tag_152:\n        /* \"#utility.yul\":3498:3499   */\n      0x00\n        /* \"#utility.yul\":3523:3576   */\n      tag_154\n        /* \"#utility.yul\":3568:3575   */\n      dup5\n        /* \"#utility.yul\":3559:3565   */\n      dup3\n        /* \"#utility.yul\":3548:3557   */\n      dup6\n        /* \"#utility.yul\":3544:3566   */\n      add\n        /* \"#utility.yul\":3523:3576   */\n      tag_87\n      jump\t// in\n    tag_154:\n        /* \"#utility.yul\":3513:3576   */\n      swap2\n      pop\n        /* \"#utility.yul\":3469:3586   */\n      pop\n        /* \"#utility.yul\":3264:3593   */\n      swap3\n      swap2\n      pop\n      pop\n      jump\t// out\n        /* \"#utility.yul\":3599:3717   */\n    tag_94:\n        /* \"#utility.yul\":3686:3710   */\n      tag_156\n        /* \"#utility.yul\":3704:3709   */\n      dup2\n        /* \"#utility.yul\":3686:3710   */\n      tag_82\n      jump\t// in\n    tag_156:\n        /* \"#utility.yul\":3681:3684   */\n      dup3\n        /* \"#utility.yul\":3674:3711   */\n      mstore\n        /* \"#utility.yul\":3599:3717   */\n      pop\n      pop\n      jump\t// out\n        /* \"#utility.yul\":3723:3945   */\n    tag_30:\n        /* \"#utility.yul\":3816:3820   */\n      0x00\n        /* \"#utility.yul\":3854:3856   */\n      0x20\n        /* \"#utility.yul\":3843:3852   */\n      dup3\n        /* \"#utility.yul\":3839:3857   */\n      add\n        /* \"#utility.yul\":3831:3857   */\n      swap1\n      pop\n        /* \"#utility.yul\":3867:3938   */\n      tag_158\n        /* \"#utility.yul\":3935:3936   */\n      0x00\n        /* \"#utility.yul\":3924:3933   */\n      dup4\n        /* \"#utility.yul\":3920:3937   */\n      add\n        /* \"#utility.yul\":3911:3917   */\n      dup5\n        /* \"#utility.yul\":3867:3938   */\n      tag_94\n      jump\t// in\n    tag_158:\n        /* \"#utility.yul\":3723:3945   */\n      swap3\n      swap2\n      pop\n      pop\n      jump\t// out\n        /* \"#utility.yul\":3951:4280   */\n    tag_33:\n        /* \"#utility.yul\":4010:4016   */\n      0x00\n        /* \"#utility.yul\":4059:4061   */\n      0x20\n        /* \"#utility.yul\":4047:4056   */\n      dup3\n        /* \"#utility.yul\":4038:4045   */\n      dup5\n        /* \"#utility.yul\":4034:4057   */\n      sub\n        /* \"#utility.yul\":4030:4062   */\n      slt\n        /* \"#utility.yul\":4027:4146   */\n      iszero\n      tag_160\n      jumpi\n        /* \"#utility.yul\":4065:4144   */\n      tag_161\n      tag_79\n      jump\t// in\n    tag_161:\n        /* \"#utility.yul\":4027:4146   */\n    tag_160:\n        /* \"#utility.yul\":4185:4186   */\n      0x00\n        /* \"#utility.yul\":4210:4263   */\n      tag_162\n        /* \"#utility.yul\":4255:4262   */\n      dup5\n        /* \"#utility.yul\":4246:4252   */\n      dup3\n        /* \"#utility.yul\":4235:4244   */\n      dup6\n        /* \"#utility.yul\":4231:4253   */\n      add\n        /* \"#utility.yul\":4210:4263   */\n      tag_84\n      jump\t// in\n    tag_162:\n        /* \"#utility.yul\":4200:4263   */\n      swap2\n      pop\n        /* \"#utility.yul\":4156:4273   */\n      pop\n        /* \"#utility.yul\":3951:4280   */\n      swap3\n      swap2\n      pop\n      pop\n      jump\t// out\n        /* \"#utility.yul\":4286:4346   */\n    tag_95:\n        /* \"#utility.yul\":4314:4317   */\n      0x00\n        /* \"#utility.yul\":4335:4340   */\n      dup2\n        /* \"#utility.yul\":4328:4340   */\n      swap1\n      pop\n        /* \"#utility.yul\":4286:4346   */\n      swap2\n      swap1\n      pop\n      jump\t// out\n        /* \"#utility.yul\":4352:4494   */\n    tag_96:\n        /* \"#utility.yul\":4402:4411   */\n      0x00\n        /* \"#utility.yul\":4435:4488   */\n      tag_165\n        /* \"#utility.yul\":4453:4487   */\n      tag_166\n        /* \"#utility.yul\":4462:4486   */\n      tag_167\n        /* \"#utility.yul\":4480:4485   */\n      dup5\n        /* \"#utility.yul\":4462:4486   */\n      tag_81\n      jump\t// in\n    tag_167:\n        /* \"#utility.yul\":4453:4487   */\n      tag_95\n      jump\t// in\n    tag_166:\n        /* \"#utility.yul\":4435:4488   */\n      tag_81\n      jump\t// in\n    tag_165:\n        /* \"#utility.yul\":4422:4488   */\n      swap1\n      pop\n        /* \"#utility.yul\":4352:4494   */\n      swap2\n      swap1\n      pop\n      jump\t// out\n        /* \"#utility.yul\":4500:4626   */\n    tag_97:\n        /* \"#utility.yul\":4550:4559   */\n      0x00\n        /* \"#utility.yul\":4583:4620   */\n      tag_169\n        /* \"#utility.yul\":4614:4619   */\n      dup3\n        /* \"#utility.yul\":4583:4620   */\n      tag_96\n      jump\t// in\n    tag_169:\n        /* \"#utility.yul\":4570:4620   */\n      swap1\n      pop\n        /* \"#utility.yul\":4500:4626   */\n      swap2\n      swap1\n      pop\n      jump\t// out\n        /* \"#utility.yul\":4632:4773   */\n    tag_98:\n        /* \"#utility.yul\":4697:4706   */\n      0x00\n        /* \"#utility.yul\":4730:4767   */\n      tag_171\n        /* \"#utility.yul\":4761:4766   */\n      dup3\n        /* \"#utility.yul\":4730:4767   */\n      tag_97\n      jump\t// in\n    tag_171:\n        /* \"#utility.yul\":4717:4767   */\n      swap1\n      pop\n        /* \"#utility.yul\":4632:4773   */\n      swap2\n      swap1\n      pop\n      jump\t// out\n        /* \"#utility.yul\":4779:4940   */\n    tag_99:\n        /* \"#utility.yul\":4881:4933   */\n      tag_173\n        /* \"#utility.yul\":4927:4932   */\n      dup2\n        /* \"#utility.yul\":4881:4933   */\n      tag_98\n      jump\t// in\n    tag_173:\n        /* \"#utility.yul\":4876:4879   */\n      dup3\n        /* \"#utility.yul\":4869:4934   */\n      mstore\n        /* \"#utility.yul\":4779:4940   */\n      pop\n      pop\n      jump\t// out\n        /* \"#utility.yul\":4946:5198   */\n    tag_36:\n        /* \"#utility.yul\":5054:5058   */\n      0x00\n        /* \"#utility.yul\":5092:5094   */\n      0x20\n        /* \"#utility.yul\":5081:5090   */\n      dup3\n        /* \"#utility.yul\":5077:5095   */\n      add\n        /* \"#utility.yul\":5069:5095   */\n      swap1\n      pop\n        /* \"#utility.yul\":5105:5191   */\n      tag_175\n        /* \"#utility.yul\":5188:5189   */\n      0x00\n        /* \"#utility.yul\":5177:5186   */\n      dup4\n        /* \"#utility.yul\":5173:5190   */\n      add\n        /* \"#utility.yul\":5164:5170   */\n      dup5\n        /* \"#utility.yul\":5105:5191   */\n      tag_99\n      jump\t// in\n    tag_175:\n        /* \"#utility.yul\":4946:5198   */\n      swap3\n      swap2\n      pop\n      pop\n      jump\t// out\n        /* \"#utility.yul\":5204:5342   */\n    tag_100:\n        /* \"#utility.yul\":5266:5275   */\n      0x00\n        /* \"#utility.yul\":5299:5336   */\n      tag_177\n        /* \"#utility.yul\":5330:5335   */\n      dup3\n        /* \"#utility.yul\":5299:5336   */\n      tag_97\n      jump\t// in\n    tag_177:\n        /* \"#utility.yul\":5286:5336   */\n      swap1\n      pop\n        /* \"#utility.yul\":5204:5342   */\n      swap2\n      swap1\n      pop\n      jump\t// out\n        /* \"#utility.yul\":5348:5503   */\n    tag_101:\n        /* \"#utility.yul\":5447:5496   */\n      tag_179\n        /* \"#utility.yul\":5490:5495   */\n      dup2\n        /* \"#utility.yul\":5447:5496   */\n      tag_100\n      jump\t// in\n    tag_179:\n        /* \"#utility.yul\":5442:5445   */\n      dup3\n        /* \"#utility.yul\":5435:5497   */\n      mstore\n        /* \"#utility.yul\":5348:5503   */\n      pop\n      pop\n      jump\t// out\n        /* \"#utility.yul\":5509:5755   */\n    tag_43:\n        /* \"#utility.yul\":5614:5618   */\n      0x00\n        /* \"#utility.yul\":5652:5654   */\n      0x20\n        /* \"#utility.yul\":5641:5650   */\n      dup3\n        /* \"#utility.yul\":5637:5655   */\n      add\n        /* \"#utility.yul\":5629:5655   */\n      swap1\n      pop\n        /* \"#utility.yul\":5665:5748   */\n      tag_181\n        /* \"#utility.yul\":5745:5746   */\n      0x00\n        /* \"#utility.yul\":5734:5743   */\n      dup4\n        /* \"#utility.yul\":5730:5747   */\n      add\n        /* \"#utility.yul\":5721:5727   */\n      dup5\n        /* \"#utility.yul\":5665:5748   */\n      tag_101\n      jump\t// in\n    tag_181:\n        /* \"#utility.yul\":5509:5755   */\n      swap3\n      swap2\n      pop\n      pop\n      jump\t// out\n        /* \"#utility.yul\":5761:5878   */\n    tag_102:\n        /* \"#utility.yul\":5870:5871   */\n      0x00\n        /* \"#utility.yul\":5867:5868   */\n      dup1\n        /* \"#utility.yul\":5860:5872   */\n      revert\n        /* \"#utility.yul\":5884:6001   */\n    tag_103:\n        /* \"#utility.yul\":5993:5994   */\n      0x00\n        /* \"#utility.yul\":5990:5991   */\n      dup1\n        /* \"#utility.yul\":5983:5995   */\n      revert\n        /* \"#utility.yul\":6007:6187   */\n    tag_104:\n        /* \"#utility.yul\":6055:6132   */\n      0x4e487b7100000000000000000000000000000000000000000000000000000000\n        /* \"#utility.yul\":6052:6053   */\n      0x00\n        /* \"#utility.yul\":6045:6133   */\n      mstore\n        /* \"#utility.yul\":6152:6156   */\n      0x41\n        /* \"#utility.yul\":6149:6150   */\n      0x04\n        /* \"#utility.yul\":6142:6157   */\n      mstore\n        /* \"#utility.yul\":6176:6180   */\n      0x24\n        /* \"#utility.yul\":6173:6174   */\n      0x00\n        /* \"#utility.yul\":6166:6181   */\n      revert\n        /* \"#utility.yul\":6193:6474   */\n    tag_105:\n        /* \"#utility.yul\":6276:6303   */\n      tag_186\n        /* \"#utility.yul\":6298:6302   */\n      dup3\n        /* \"#utility.yul\":6276:6303   */\n      tag_92\n      jump\t// in\n    tag_186:\n        /* \"#utility.yul\":6268:6274   */\n      dup2\n        /* \"#utility.yul\":6264:6304   */\n      add\n        /* \"#utility.yul\":6406:6412   */\n      dup2\n        /* \"#utility.yul\":6394:6404   */\n      dup2\n        /* \"#utility.yul\":6391:6413   */\n      lt\n        /* \"#utility.yul\":6370:6388   */\n      0xffffffffffffffff\n        /* \"#utility.yul\":6358:6368   */\n      dup3\n        /* \"#utility.yul\":6355:6389   */\n      gt\n        /* \"#utility.yul\":6352:6414   */\n      or\n        /* \"#utility.yul\":6349:6437   */\n      iszero\n      tag_187\n      jumpi\n        /* \"#utility.yul\":6417:6435   */\n      tag_188\n      tag_104\n      jump\t// in\n    tag_188:\n        /* \"#utility.yul\":6349:6437   */\n    tag_187:\n        /* \"#utility.yul\":6457:6467   */\n      dup1\n        /* \"#utility.yul\":6453:6455   */\n      0x40\n        /* \"#utility.yul\":6446:6468   */\n      mstore\n        /* \"#utility.yul\":6236:6474   */\n      pop\n        /* \"#utility.yul\":6193:6474   */\n      pop\n      pop\n      jump\t// out\n        /* \"#utility.yul\":6480:6609   */\n    tag_106:\n        /* \"#utility.yul\":6514:6520   */\n      0x00\n        /* \"#utility.yul\":6541:6561   */\n      tag_190\n      tag_78\n      jump\t// in\n    tag_190:\n        /* \"#utility.yul\":6531:6561   */\n      swap1\n      pop\n        /* \"#utility.yul\":6570:6603   */\n      tag_191\n        /* \"#utility.yul\":6598:6602   */\n      dup3\n        /* \"#utility.yul\":6590:6596   */\n      dup3\n        /* \"#utility.yul\":6570:6603   */\n      tag_105\n      jump\t// in\n    tag_191:\n        /* \"#utility.yul\":6480:6609   */\n      swap2\n      swap1\n      pop\n      jump\t// out\n        /* \"#utility.yul\":6615:6923   */\n    tag_107:\n        /* \"#utility.yul\":6677:6681   */\n      0x00\n        /* \"#utility.yul\":6767:6785   */\n      0xffffffffffffffff\n        /* \"#utility.yul\":6759:6765   */\n      dup3\n        /* \"#utility.yul\":6756:6786   */\n      gt\n        /* \"#utility.yul\":6753:6809   */\n      iszero\n      tag_193\n      jumpi\n        /* \"#utility.yul\":6789:6807   */\n      tag_194\n      tag_104\n      jump\t// in\n    tag_194:\n        /* \"#utility.yul\":6753:6809   */\n    tag_193:\n        /* \"#utility.yul\":6827:6856   */\n      tag_195\n        /* \"#utility.yul\":6849:6855   */\n      dup3\n        /* \"#utility.yul\":6827:6856   */\n      tag_92\n      jump\t// in\n    tag_195:\n        /* \"#utility.yul\":6819:6856   */\n      swap1\n      pop\n        /* \"#utility.yul\":6911:6915   */\n      0x20\n        /* \"#utility.yul\":6905:6909   */\n      dup2\n        /* \"#utility.yul\":6901:6916   */\n      add\n        /* \"#utility.yul\":6893:6916   */\n      swap1\n      pop\n        /* \"#utility.yul\":6615:6923   */\n      swap2\n      swap1\n      pop\n      jump\t// out\n        /* \"#utility.yul\":6929:7077   */\n    tag_108:\n        /* \"#utility.yul\":7027:7033   */\n      dup3\n        /* \"#utility.yul\":7022:7025   */\n      dup2\n        /* \"#utility.yul\":7017:7020   */\n      dup4\n        /* \"#utility.yul\":7004:7034   */\n      calldatacopy\n        /* \"#utility.yul\":7068:7069   */\n      0x00\n        /* \"#utility.yul\":7059:7065   */\n      dup4\n        /* \"#utility.yul\":7054:7057   */\n      dup4\n        /* \"#utility.yul\":7050:7066   */\n      add\n        /* \"#utility.yul\":7043:7070   */\n      mstore\n        /* \"#utility.yul\":6929:7077   */\n      pop\n      pop\n      pop\n      jump\t// out\n        /* \"#utility.yul\":7083:7508   */\n    tag_109:\n        /* \"#utility.yul\":7161:7166   */\n      0x00\n        /* \"#utility.yul\":7186:7252   */\n      tag_198\n        /* \"#utility.yul\":7202:7251   */\n      tag_199\n        /* \"#utility.yul\":7244:7250   */\n      dup5\n        /* \"#utility.yul\":7202:7251   */\n      tag_107\n      jump\t// in\n    tag_199:\n        /* \"#utility.yul\":7186:7252   */\n      tag_106\n      jump\t// in\n    tag_198:\n        /* \"#utility.yul\":7177:7252   */\n      swap1\n      pop\n        /* \"#utility.yul\":7275:7281   */\n      dup3\n        /* \"#utility.yul\":7268:7273   */\n      dup2\n        /* \"#utility.yul\":7261:7282   */\n      mstore\n        /* \"#utility.yul\":7313:7317   */\n      0x20\n        /* \"#utility.yul\":7306:7311   */\n      dup2\n        /* \"#utility.yul\":7302:7318   */\n      add\n        /* \"#utility.yul\":7351:7354   */\n      dup5\n        /* \"#utility.yul\":7342:7348   */\n      dup5\n        /* \"#utility.yul\":7337:7340   */\n      dup5\n        /* \"#utility.yul\":7333:7349   */\n      add\n        /* \"#utility.yul\":7330:7355   */\n      gt\n        /* \"#utility.yul\":7327:7439   */\n      iszero\n      tag_200\n      jumpi\n        /* \"#utility.yul\":7358:7437   */\n      tag_201\n      tag_103\n      jump\t// in\n    tag_201:\n        /* \"#utility.yul\":7327:7439   */\n    tag_200:\n        /* \"#utility.yul\":7448:7502   */\n      tag_202\n        /* \"#utility.yul\":7495:7501   */\n      dup5\n        /* \"#utility.yul\":7490:7493   */\n      dup3\n        /* \"#utility.yul\":7485:7488   */\n      dup6\n        /* \"#utility.yul\":7448:7502   */\n      tag_108\n      jump\t// in\n    tag_202:\n        /* \"#utility.yul\":7167:7508   */\n      pop\n        /* \"#utility.yul\":7083:7508   */\n      swap4\n      swap3\n      pop\n      pop\n      pop\n      jump\t// out\n        /* \"#utility.yul\":7528:7868   */\n    tag_110:\n        /* \"#utility.yul\":7584:7589   */\n      0x00\n        /* \"#utility.yul\":7633:7636   */\n      dup3\n        /* \"#utility.yul\":7626:7630   */\n      0x1f\n        /* \"#utility.yul\":7618:7624   */\n      dup4\n        /* \"#utility.yul\":7614:7631   */\n      add\n        /* \"#utility.yul\":7610:7637   */\n      slt\n        /* \"#utility.yul\":7600:7722   */\n      tag_204\n      jumpi\n        /* \"#utility.yul\":7641:7720   */\n      tag_205\n      tag_102\n      jump\t// in\n    tag_205:\n        /* \"#utility.yul\":7600:7722   */\n    tag_204:\n        /* \"#utility.yul\":7758:7764   */\n      dup2\n        /* \"#utility.yul\":7745:7765   */\n      calldataload\n        /* \"#utility.yul\":7783:7862   */\n      tag_206\n        /* \"#utility.yul\":7858:7861   */\n      dup5\n        /* \"#utility.yul\":7850:7856   */\n      dup3\n        /* \"#utility.yul\":7843:7847   */\n      0x20\n        /* \"#utility.yul\":7835:7841   */\n      dup7\n        /* \"#utility.yul\":7831:7848   */\n      add\n        /* \"#utility.yul\":7783:7862   */\n      tag_109\n      jump\t// in\n    tag_206:\n        /* \"#utility.yul\":7774:7862   */\n      swap2\n      pop\n        /* \"#utility.yul\":7590:7868   */\n      pop\n        /* \"#utility.yul\":7528:7868   */\n      swap3\n      swap2\n      pop\n      pop\n      jump\t// out\n        /* \"#utility.yul\":7874:8853   */\n    tag_49:\n        /* \"#utility.yul\":7971:7977   */\n      0x00\n        /* \"#utility.yul\":7979:7985   */\n      dup1\n        /* \"#utility.yul\":7987:7993   */\n      0x00\n        /* \"#utility.yul\":8036:8038   */\n      0x60\n        /* \"#utility.yul\":8024:8033   */\n      dup5\n        /* \"#utility.yul\":8015:8022   */\n      dup7\n        /* \"#utility.yul\":8011:8034   */\n      sub\n        /* \"#utility.yul\":8007:8039   */\n      slt\n        /* \"#utility.yul\":8004:8123   */\n      iszero\n      tag_208\n      jumpi\n        /* \"#utility.yul\":8042:8121   */\n      tag_209\n      tag_79\n      jump\t// in\n    tag_209:\n        /* \"#utility.yul\":8004:8123   */\n    tag_208:\n        /* \"#utility.yul\":8190:8191   */\n      0x00\n        /* \"#utility.yul\":8179:8188   */\n      dup5\n        /* \"#utility.yul\":8175:8192   */\n      add\n        /* \"#utility.yul\":8162:8193   */\n      calldataload\n        /* \"#utility.yul\":8220:8238   */\n      0xffffffffffffffff\n        /* \"#utility.yul\":8212:8218   */\n      dup2\n        /* \"#utility.yul\":8209:8239   */\n      gt\n        /* \"#utility.yul\":8206:8323   */\n      iszero\n      tag_210\n      jumpi\n        /* \"#utility.yul\":8242:8321   */\n      tag_211\n      tag_80\n      jump\t// in\n    tag_211:\n        /* \"#utility.yul\":8206:8323   */\n    tag_210:\n        /* \"#utility.yul\":8347:8410   */\n      tag_212\n        /* \"#utility.yul\":8402:8409   */\n      dup7\n        /* \"#utility.yul\":8393:8399   */\n      dup3\n        /* \"#utility.yul\":8382:8391   */\n      dup8\n        /* \"#utility.yul\":8378:8400   */\n      add\n        /* \"#utility.yul\":8347:8410   */\n      tag_110\n      jump\t// in\n    tag_212:\n        /* \"#utility.yul\":8337:8410   */\n      swap4\n      pop\n        /* \"#utility.yul\":8133:8420   */\n      pop\n        /* \"#utility.yul\":8459:8461   */\n      0x20\n        /* \"#utility.yul\":8485:8538   */\n      tag_213\n        /* \"#utility.yul\":8530:8537   */\n      dup7\n        /* \"#utility.yul\":8521:8527   */\n      dup3\n        /* \"#utility.yul\":8510:8519   */\n      dup8\n        /* \"#utility.yul\":8506:8528   */\n      add\n        /* \"#utility.yul\":8485:8538   */\n      tag_87\n      jump\t// in\n    tag_213:\n        /* \"#utility.yul\":8475:8538   */\n      swap3\n      pop\n        /* \"#utility.yul\":8430:8548   */\n      pop\n        /* \"#utility.yul\":8615:8617   */\n      0x40\n        /* \"#utility.yul\":8604:8613   */\n      dup5\n        /* \"#utility.yul\":8600:8618   */\n      add\n        /* \"#utility.yul\":8587:8619   */\n      calldataload\n        /* \"#utility.yul\":8646:8664   */\n      0xffffffffffffffff\n        /* \"#utility.yul\":8638:8644   */\n      dup2\n        /* \"#utility.yul\":8635:8665   */\n      gt\n        /* \"#utility.yul\":8632:8749   */\n      iszero\n      tag_214\n      jumpi\n        /* \"#utility.yul\":8668:8747   */\n      tag_215\n      tag_80\n      jump\t// in\n    tag_215:\n        /* \"#utility.yul\":8632:8749   */\n    tag_214:\n        /* \"#utility.yul\":8773:8836   */\n      tag_216\n        /* \"#utility.yul\":8828:8835   */\n      dup7\n        /* \"#utility.yul\":8819:8825   */\n      dup3\n        /* \"#utility.yul\":8808:8817   */\n      dup8\n        /* \"#utility.yul\":8804:8826   */\n      add\n        /* \"#utility.yul\":8773:8836   */\n      tag_110\n      jump\t// in\n    tag_216:\n        /* \"#utility.yul\":8763:8836   */\n      swap2\n      pop\n        /* \"#utility.yul\":8558:8846   */\n      pop\n        /* \"#utility.yul\":7874:8853   */\n      swap3\n      pop\n      swap3\n      pop\n      swap3\n      jump\t// out\n        /* \"#utility.yul\":8859:9039   */\n    tag_111:\n        /* \"#utility.yul\":8907:8984   */\n      0x4e487b7100000000000000000000000000000000000000000000000000000000\n        /* \"#utility.yul\":8904:8905   */\n      0x00\n        /* \"#utility.yul\":8897:8985   */\n      mstore\n        /* \"#utility.yul\":9004:9008   */\n      0x22\n        /* \"#utility.yul\":9001:9002   */\n      0x04\n        /* \"#utility.yul\":8994:9009   */\n      mstore\n        /* \"#utility.yul\":9028:9032   */\n      0x24\n        /* \"#utility.yul\":9025:9026   */\n      0x00\n        /* \"#utility.yul\":9018:9033   */\n      revert\n        /* \"#utility.yul\":9045:9365   */\n    tag_57:\n        /* \"#utility.yul\":9089:9095   */\n      0x00\n        /* \"#utility.yul\":9126:9127   */\n      0x02\n        /* \"#utility.yul\":9120:9124   */\n      dup3\n        /* \"#utility.yul\":9116:9128   */\n      div\n        /* \"#utility.yul\":9106:9128   */\n      swap1\n      pop\n        /* \"#utility.yul\":9173:9174   */\n      0x01\n        /* \"#utility.yul\":9167:9171   */\n      dup3\n        /* \"#utility.yul\":9163:9175   */\n      and\n        /* \"#utility.yul\":9194:9212   */\n      dup1\n        /* \"#utility.yul\":9184:9265   */\n      tag_219\n      jumpi\n        /* \"#utility.yul\":9250:9254   */\n      0x7f\n        /* \"#utility.yul\":9242:9248   */\n      dup3\n        /* \"#utility.yul\":9238:9255   */\n      and\n        /* \"#utility.yul\":9228:9255   */\n      swap2\n      pop\n        /* \"#utility.yul\":9184:9265   */\n    tag_219:\n        /* \"#utility.yul\":9312:9314   */\n      0x20\n        /* \"#utility.yul\":9304:9310   */\n      dup3\n        /* \"#utility.yul\":9301:9315   */\n      lt\n        /* \"#utility.yul\":9281:9299   */\n      dup2\n        /* \"#utility.yul\":9278:9316   */\n      sub\n        /* \"#utility.yul\":9275:9359   */\n      tag_220\n      jumpi\n        /* \"#utility.yul\":9331:9349   */\n      tag_221\n      tag_111\n      jump\t// in\n    tag_221:\n        /* \"#utility.yul\":9275:9359   */\n    tag_220:\n        /* \"#utility.yul\":9096:9365   */\n      pop\n        /* \"#utility.yul\":9045:9365   */\n      swap2\n      swap1\n      pop\n      jump\t// out\n        /* \"#utility.yul\":9371:9551   */\n    tag_112:\n        /* \"#utility.yul\":9419:9496   */\n      0x4e487b7100000000000000000000000000000000000000000000000000000000\n        /* \"#utility.yul\":9416:9417   */\n      0x00\n        /* \"#utility.yul\":9409:9497   */\n      mstore\n        /* \"#utility.yul\":9516:9520   */\n      0x11\n        /* \"#utility.yul\":9513:9514   */\n      0x04\n        /* \"#utility.yul\":9506:9521   */\n      mstore\n        /* \"#utility.yul\":9540:9544   */\n      0x24\n        /* \"#utility.yul\":9537:9538   */\n      0x00\n        /* \"#utility.yul\":9530:9545   */\n      revert\n        /* \"#utility.yul\":9557:9790   */\n    tag_71:\n        /* \"#utility.yul\":9596:9599   */\n      0x00\n        /* \"#utility.yul\":9619:9643   */\n      tag_224\n        /* \"#utility.yul\":9637:9642   */\n      dup3\n        /* \"#utility.yul\":9619:9643   */\n      tag_85\n      jump\t// in\n    tag_224:\n        /* \"#utility.yul\":9610:9643   */\n      swap2\n      pop\n        /* \"#utility.yul\":9665:9731   */\n      0xffffffffffffffffffffffffffffffffffffffffffffffffffffffffffffffff\n        /* \"#utility.yul\":9658:9663   */\n      dup3\n        /* \"#utility.yul\":9655:9732   */\n      sub\n        /* \"#utility.yul\":9652:9755   */\n      tag_225\n      jumpi\n        /* \"#utility.yul\":9735:9753   */\n      tag_226\n      tag_112\n      jump\t// in\n    tag_226:\n        /* \"#utility.yul\":9652:9755   */\n    tag_225:\n        /* \"#utility.yul\":9782:9783   */\n      0x01\n        /* \"#utility.yul\":9775:9780   */\n      dup3\n        /* \"#utility.yul\":9771:9784   */\n      add\n        /* \"#utility.yul\":9764:9784   */\n      swap1\n      pop\n        /* \"#utility.yul\":9557:9790   */\n      swap2\n      swap1\n      pop\n      jump\t// out\n        /* \"#utility.yul\":9796:10531   */\n    tag_75:\n        /* \"#utility.yul\":10013:10017   */\n      0x00\n        /* \"#utility.yul\":10051:10054   */\n      0x80\n        /* \"#utility.yul\":10040:10049   */\n      dup3\n        /* \"#utility.yul\":10036:10055   */\n      add\n        /* \"#utility.yul\":10028:10055   */\n      swap1\n      pop\n        /* \"#utility.yul\":10101:10110   */\n      dup2\n        /* \"#utility.yul\":10095:10099   */\n      dup2\n        /* \"#utility.yul\":10091:10111   */\n      sub\n        /* \"#utility.yul\":10087:10088   */\n      0x00\n        /* \"#utility.yul\":10076:10085   */\n      dup4\n        /* \"#utility.yul\":10072:10089   */\n      add\n        /* \"#utility.yul\":10065:10112   */\n      mstore\n        /* \"#utility.yul\":10129:10207   */\n      tag_228\n        /* \"#utility.yul\":10202:10206   */\n      dup2\n        /* \"#utility.yul\":10193:10199   */\n      dup8\n        /* \"#utility.yul\":10129:10207   */\n      tag_93\n      jump\t// in\n    tag_228:\n        /* \"#utility.yul\":10121:10207   */\n      swap1\n      pop\n        /* \"#utility.yul\":10217:10289   */\n      tag_229\n        /* \"#utility.yul\":10285:10287   */\n      0x20\n        /* \"#utility.yul\":10274:10283   */\n      dup4\n        /* \"#utility.yul\":10270:10288   */\n      add\n        /* \"#utility.yul\":10261:10267   */\n      dup7\n        /* \"#utility.yul\":10217:10289   */\n      tag_88\n      jump\t// in\n    tag_229:\n        /* \"#utility.yul\":10336:10345   */\n      dup2\n        /* \"#utility.yul\":10330:10334   */\n      dup2\n        /* \"#utility.yul\":10326:10346   */\n      sub\n        /* \"#utility.yul\":10321:10323   */\n      0x40\n        /* \"#utility.yul\":10310:10319   */\n      dup4\n        /* \"#utility.yul\":10306:10324   */\n      add\n        /* \"#utility.yul\":10299:10347   */\n      mstore\n        /* \"#utility.yul\":10364:10442   */\n      tag_230\n        /* \"#utility.yul\":10437:10441   */\n      dup2\n        /* \"#utility.yul\":10428:10434   */\n      dup6\n        /* \"#utility.yul\":10364:10442   */\n      tag_93\n      jump\t// in\n    tag_230:\n        /* \"#utility.yul\":10356:10442   */\n      swap1\n      pop\n        /* \"#utility.yul\":10452:10524   */\n      tag_231\n        /* \"#utility.yul\":10520:10522   */\n      0x60\n        /* \"#utility.yul\":10509:10518   */\n      dup4\n        /* \"#utility.yul\":10505:10523   */\n      add\n        /* \"#utility.yul\":10496:10502   */\n      dup5\n        /* \"#utility.yul\":10452:10524   */\n      tag_88\n      jump\t// in\n    tag_231:\n        /* \"#utility.yul\":9796:10531   */\n      swap6\n      swap5\n      pop\n      pop\n      pop\n      pop\n      pop\n      jump\t// out\n    stop\n\n    sub_0: assembly {\n            /* \"contracts/DUUID/student.sol\":123:1083  contract Student {... */\n          mstore(0x40, 0x80)\n            /* \"contracts/DUUID/student.sol\":294:295  0 */\n          0x00\n            /* \"contracts/DUUID/student.sol\":275:295  uint public CGPA = 0 */\n          0x04\n          sstore\n            /* \"contracts/DUUID/student.sol\":330:331  0 */\n          0x00\n            /* \"contracts/DUUID/student.sol\":302:331  uint public creditsEarned = 0 */\n          0x05\n          sstore\n            /* \"contracts/DUUID/student.sol\":340:608  constructor(string memory _name, uint _enrollmentYear, string memory _institutional_ID, uint _duuID_number) {... */\n          callvalue\n          dup1\n          iszero\n          tag_1\n          jumpi\n          0x00\n          dup1\n          revert\n        tag_1:\n          pop\n          mload(0x40)\n          sub(codesize, bytecodeSize)\n          dup1\n          bytecodeSize\n          dup4\n          codecopy\n          dup2\n          dup2\n          add\n          0x40\n          mstore\n          dup2\n          add\n          swap1\n          tag_2\n          swap2\n          swap1\n          tag_3\n          jump\t// in\n        tag_2:\n            /* \"contracts/DUUID/student.sol\":466:471  _name */\n          dup4\n            /* \"contracts/DUUID/student.sol\":459:463  name */\n          0x00\n            /* \"contracts/DUUID/student.sol\":459:471  name = _name */\n          swap1\n          dup2\n          tag_6\n          swap2\n          swap1\n          tag_7\n          jump\t// in\n        tag_6:\n          pop\n            /* \"contracts/DUUID/student.sol\":499:514  _enrollmentYear */\n          dup3\n            /* \"contracts/DUUID/student.sol\":482:496  enrollmentYear */\n          0x01\n            /* \"contracts/DUUID/student.sol\":482:514  enrollmentYear = _enrollmentYear */\n          dup2\n          swap1\n          sstore\n          pop\n            /* \"contracts/DUUID/student.sol\":544:561  _institutional_ID */\n          dup2\n            /* \"contracts/DUUID/student.sol\":525:541  institutional_ID */\n          0x02\n            /* \"contracts/DUUID/student.sol\":525:561  institutional_ID = _institutional_ID */\n          swap1\n          dup2\n          tag_8\n          swap2\n          swap1\n          tag_7\n          jump\t// in\n        tag_8:\n          pop\n            /* \"contracts/DUUID/student.sol\":587:600  _duuID_number */\n          dup1\n            /* \"contracts/DUUID/student.sol\":572:584  duuID_number */\n          0x03\n            /* \"contracts/DUUID/student.sol\":572:600  duuID_number = _duuID_number */\n          dup2\n          swap1\n          sstore\n          pop\n            /* \"contracts/DUUID/student.sol\":340:608  constructor(string memory _name, uint _enrollmentYear, string memory _institutional_ID, uint _duuID_number) {... */\n          pop\n          pop\n          pop\n          pop\n            /* \"contracts/DUUID/student.sol\":123:1083  contract Student {... */\n          jump(tag_9)\n            /* \"#utility.yul\":7:82   */\n        tag_10:\n            /* \"#utility.yul\":40:46   */\n          0x00\n            /* \"#utility.yul\":73:75   */\n          0x40\n            /* \"#utility.yul\":67:76   */\n          mload\n            /* \"#utility.yul\":57:76   */\n          swap1\n          pop\n            /* \"#utility.yul\":7:82   */\n          swap1\n          jump\t// out\n            /* \"#utility.yul\":88:205   */\n        tag_11:\n            /* \"#utility.yul\":197:198   */\n          0x00\n            /* \"#utility.yul\":194:195   */\n          dup1\n            /* \"#utility.yul\":187:199   */\n          revert\n            /* \"#utility.yul\":211:328   */\n        tag_12:\n            /* \"#utility.yul\":320:321   */\n          0x00\n            /* \"#utility.yul\":317:318   */\n          dup1\n            /* \"#utility.yul\":310:322   */\n          revert\n            /* \"#utility.yul\":334:451   */\n        tag_13:\n            /* \"#utility.yul\":443:444   */\n          0x00\n            /* \"#utility.yul\":440:441   */\n          dup1\n            /* \"#utility.yul\":433:445   */\n          revert\n            /* \"#utility.yul\":457:574   */\n        tag_14:\n            /* \"#utility.yul\":566:567   */\n          0x00\n            /* \"#utility.yul\":563:564   */\n          dup1\n            /* \"#utility.yul\":556:568   */\n          revert\n            /* \"#utility.yul\":580:682   */\n        tag_15:\n            /* \"#utility.yul\":621:627   */\n          0x00\n            /* \"#utility.yul\":672:674   */\n          0x1f\n            /* \"#utility.yul\":668:675   */\n          not\n            /* \"#utility.yul\":663:665   */\n          0x1f\n            /* \"#utility.yul\":656:661   */\n          dup4\n            /* \"#utility.yul\":652:666   */\n          add\n            /* \"#utility.yul\":648:676   */\n          and\n            /* \"#utility.yul\":638:676   */\n          swap1\n          pop\n            /* \"#utility.yul\":580:682   */\n          swap2\n          swap1\n          pop\n          jump\t// out\n            /* \"#utility.yul\":688:868   */\n        tag_16:\n            /* \"#utility.yul\":736:813   */\n          0x4e487b7100000000000000000000000000000000000000000000000000000000\n            /* \"#utility.yul\":733:734   */\n          0x00\n            /* \"#utility.yul\":726:814   */\n          mstore\n            /* \"#utility.yul\":833:837   */\n          0x41\n            /* \"#utility.yul\":830:831   */\n          0x04\n            /* \"#utility.yul\":823:838   */\n          mstore\n            /* \"#utility.yul\":857:861   */\n          0x24\n            /* \"#utility.yul\":854:855   */\n          0x00\n            /* \"#utility.yul\":847:862   */\n          revert\n            /* \"#utility.yul\":874:1155   */\n        tag_17:\n            /* \"#utility.yul\":957:984   */\n          tag_53\n            /* \"#utility.yul\":979:983   */\n          dup3\n            /* \"#utility.yul\":957:984   */\n          tag_15\n          jump\t// in\n        tag_53:\n            /* \"#utility.yul\":949:955   */\n          dup2\n            /* \"#utility.yul\":945:985   */\n          add\n            /* \"#utility.yul\":1087:1093   */\n          dup2\n            /* \"#utility.yul\":1075:1085   */\n          dup2\n            /* \"#utility.yul\":1072:1094   */\n          lt\n            /* \"#utility.yul\":1051:1069   */\n          0xffffffffffffffff\n            /* \"#utility.yul\":1039:1049   */\n          dup3\n            /* \"#utility.yul\":1036:1070   */\n          gt\n            /* \"#utility.yul\":1033:1095   */\n          or\n            /* \"#utility.yul\":1030:1118   */\n          iszero\n          tag_54\n          jumpi\n            /* \"#utility.yul\":1098:1116   */\n          tag_55\n          tag_16\n          jump\t// in\n        tag_55:\n            /* \"#utility.yul\":1030:1118   */\n        tag_54:\n            /* \"#utility.yul\":1138:1148   */\n          dup1\n            /* \"#utility.yul\":1134:1136   */\n          0x40\n            /* \"#utility.yul\":1127:1149   */\n          mstore\n            /* \"#utility.yul\":917:1155   */\n          pop\n            /* \"#utility.yul\":874:1155   */\n          pop\n          pop\n          jump\t// out\n            /* \"#utility.yul\":1161:1290   */\n        tag_18:\n            /* \"#utility.yul\":1195:1201   */\n          0x00\n            /* \"#utility.yul\":1222:1242   */\n          tag_57\n          tag_10\n          jump\t// in\n        tag_57:\n            /* \"#utility.yul\":1212:1242   */\n          swap1\n          pop\n            /* \"#utility.yul\":1251:1284   */\n          tag_58\n            /* \"#utility.yul\":1279:1283   */\n          dup3\n            /* \"#utility.yul\":1271:1277   */\n          dup3\n            /* \"#utility.yul\":1251:1284   */\n          tag_17\n          jump\t// in\n        tag_58:\n            /* \"#utility.yul\":1161:1290   */\n          swap2\n          swap1\n          pop\n          jump\t// out\n            /* \"#utility.yul\":1296:1604   */\n        tag_19:\n            /* \"#utility.yul\":1358:1362   */\n          0x00\n            /* \"#utility.yul\":1448:1466   */\n          0xffffffffffffffff\n            /* \"#utility.yul\":1440:1446   */\n          dup3\n            /* \"#utility.yul\":1437:1467   */\n          gt\n            /* \"#utility.yul\":1434:1490   */\n          iszero\n          tag_60\n          jumpi\n            /* \"#utility.yul\":1470:1488   */\n          tag_61\n          tag_16\n          jump\t// in\n        tag_61:\n            /* \"#utility.yul\":1434:1490   */\n        tag_60:\n            /* \"#utility.yul\":1508:1537   */\n          tag_62\n            /* \"#utility.yul\":1530:1536   */\n          dup3\n            /* \"#utility.yul\":1508:1537   */\n          tag_15\n          jump\t// in\n        tag_62:\n            /* \"#utility.yul\":1500:1537   */\n          swap1\n          pop\n            /* \"#utility.yul\":1592:1596   */\n          0x20\n            /* \"#utility.yul\":1586:1590   */\n          dup2\n            /* \"#utility.yul\":1582:1597   */\n          add\n            /* \"#utility.yul\":1574:1597   */\n          swap1\n          pop\n            /* \"#utility.yul\":1296:1604   */\n          swap2\n          swap1\n          pop\n          jump\t// out\n            /* \"#utility.yul\":1610:1749   */\n        tag_20:\n            /* \"#utility.yul\":1699:1705   */\n          dup3\n            /* \"#utility.yul\":1694:1697   */\n          dup2\n            /* \"#utility.yul\":1689:1692   */\n          dup4\n            /* \"#utility.yul\":1683:1706   */\n          mcopy\n            /* \"#utility.yul\":1740:1741   */\n          0x00\n            /* \"#utility.yul\":1731:1737   */\n          dup4\n            /* \"#utility.yul\":1726:1729   */\n          dup4\n            /* \"#utility.yul\":1722:1738   */\n          add\n            /* \"#utility.yul\":1715:1742   */\n          mstore\n            /* \"#utility.yul\":1610:1749   */\n          pop\n          pop\n          pop\n          jump\t// out\n            /* \"#utility.yul\":1755:2189   */\n        tag_21:\n            /* \"#utility.yul\":1844:1849   */\n          0x00\n            /* \"#utility.yul\":1869:1935   */\n          tag_65\n            /* \"#utility.yul\":1885:1934   */\n          tag_66\n            /* \"#utility.yul\":1927:1933   */\n          dup5\n            /* \"#utility.yul\":1885:1934   */\n          tag_19\n          jump\t// in\n        tag_66:\n            /* \"#utility.yul\":1869:1935   */\n          tag_18\n          jump\t// in\n        tag_65:\n            /* \"#utility.yul\":1860:1935   */\n          swap1\n          pop\n            /* \"#utility.yul\":1958:1964   */\n          dup3\n            /* \"#utility.yul\":1951:1956   */\n          dup2\n            /* \"#utility.yul\":1944:1965   */\n          mstore\n            /* \"#utility.yul\":1996:2000   */\n          0x20\n            /* \"#utility.yul\":1989:1994   */\n          dup2\n            /* \"#utility.yul\":1985:2001   */\n          add\n            /* \"#utility.yul\":2034:2037   */\n          dup5\n            /* \"#utility.yul\":2025:2031   */\n          dup5\n            /* \"#utility.yul\":2020:2023   */\n          dup5\n            /* \"#utility.yul\":2016:2032   */\n          add\n            /* \"#utility.yul\":2013:2038   */\n          gt\n            /* \"#utility.yul\":2010:2122   */\n          iszero\n          tag_67\n          jumpi\n            /* \"#utility.yul\":2041:2120   */\n          tag_68\n          tag_14\n          jump\t// in\n        tag_68:\n            /* \"#utility.yul\":2010:2122   */\n        tag_67:\n            /* \"#utility.yul\":2131:2183   */\n          tag_69\n            /* \"#utility.yul\":2176:2182   */\n          dup5\n            /* \"#utility.yul\":2171:2174   */\n          dup3\n            /* \"#utility.yul\":2166:2169   */\n          dup6\n            /* \"#utility.yul\":2131:2183   */\n          tag_20\n          jump\t// in\n        tag_69:\n            /* \"#utility.yul\":1850:2189   */\n          pop\n            /* \"#utility.yul\":1755:2189   */\n          swap4\n          swap3\n          pop\n          pop\n          pop\n          jump\t// out\n            /* \"#utility.yul\":2209:2564   */\n        tag_22:\n            /* \"#utility.yul\":2276:2281   */\n          0x00\n            /* \"#utility.yul\":2325:2328   */\n          dup3\n            /* \"#utility.yul\":2318:2322   */\n          0x1f\n            /* \"#utility.yul\":2310:2316   */\n          dup4\n            /* \"#utility.yul\":2306:2323   */\n          add\n            /* \"#utility.yul\":2302:2329   */\n          slt\n            /* \"#utility.yul\":2292:2414   */\n          tag_71\n          jumpi\n            /* \"#utility.yul\":2333:2412   */\n          tag_72\n          tag_13\n          jump\t// in\n        tag_72:\n            /* \"#utility.yul\":2292:2414   */\n        tag_71:\n            /* \"#utility.yul\":2443:2449   */\n          dup2\n            /* \"#utility.yul\":2437:2450   */\n          mload\n            /* \"#utility.yul\":2468:2558   */\n          tag_73\n            /* \"#utility.yul\":2554:2557   */\n          dup5\n            /* \"#utility.yul\":2546:2552   */\n          dup3\n            /* \"#utility.yul\":2539:2543   */\n          0x20\n            /* \"#utility.yul\":2531:2537   */\n          dup7\n            /* \"#utility.yul\":2527:2544   */\n          add\n            /* \"#utility.yul\":2468:2558   */\n          tag_21\n          jump\t// in\n        tag_73:\n            /* \"#utility.yul\":2459:2558   */\n          swap2\n          pop\n            /* \"#utility.yul\":2282:2564   */\n          pop\n            /* \"#utility.yul\":2209:2564   */\n          swap3\n          swap2\n          pop\n          pop\n          jump\t// out\n            /* \"#utility.yul\":2570:2647   */\n        tag_23:\n            /* \"#utility.yul\":2607:2614   */\n          0x00\n            /* \"#utility.yul\":2636:2641   */\n          dup2\n            /* \"#utility.yul\":2625:2641   */\n          swap1\n          pop\n            /* \"#utility.yul\":2570:2647   */\n          swap2\n          swap1\n          pop\n          jump\t// out\n            /* \"#utility.yul\":2653:2775   */\n        tag_24:\n            /* \"#utility.yul\":2726:2750   */\n          tag_76\n            /* \"#utility.yul\":2744:2749   */\n          dup2\n            /* \"#utility.yul\":2726:2750   */\n          tag_23\n          jump\t// in\n        tag_76:\n            /* \"#utility.yul\":2719:2724   */\n          dup2\n            /* \"#utility.yul\":2716:2751   */\n          eq\n            /* \"#utility.yul\":2706:2769   */\n          tag_77\n          jumpi\n            /* \"#utility.yul\":2765:2766   */\n          0x00\n            /* \"#utility.yul\":2762:2763   */\n          dup1\n            /* \"#utility.yul\":2755:2767   */\n          revert\n            /* \"#utility.yul\":2706:2769   */\n        tag_77:\n            /* \"#utility.yul\":2653:2775   */\n          pop\n          jump\t// out\n            /* \"#utility.yul\":2781:2924   */\n        tag_25:\n            /* \"#utility.yul\":2838:2843   */\n          0x00\n            /* \"#utility.yul\":2869:2875   */\n          dup2\n            /* \"#utility.yul\":2863:2876   */\n          mload\n            /* \"#utility.yul\":2854:2876   */\n          swap1\n          pop\n            /* \"#utility.yul\":2885:2918   */\n          tag_79\n            /* \"#utility.yul\":2912:2917   */\n          dup2\n            /* \"#utility.yul\":2885:2918   */\n          tag_24\n          jump\t// in\n        tag_79:\n            /* \"#utility.yul\":2781:2924   */\n          swap3\n          swap2\n          pop\n          pop\n          jump\t// out\n            /* \"#utility.yul\":2930:4096   */\n        tag_3:\n            /* \"#utility.yul\":3047:3053   */\n          0x00\n            /* \"#utility.yul\":3055:3061   */\n          dup1\n            /* \"#utility.yul\":3063:3069   */\n          0x00\n            /* \"#utility.yul\":3071:3077   */\n          dup1\n            /* \"#utility.yul\":3120:3123   */\n          0x80\n            /* \"#utility.yul\":3108:3117   */\n          dup6\n            /* \"#utility.yul\":3099:3106   */\n          dup8\n            /* \"#utility.yul\":3095:3118   */\n          sub\n            /* \"#utility.yul\":3091:3124   */\n          slt\n            /* \"#utility.yul\":3088:3208   */\n          iszero\n          tag_81\n          jumpi\n            /* \"#utility.yul\":3127:3206   */\n          tag_82\n          tag_11\n          jump\t// in\n        tag_82:\n            /* \"#utility.yul\":3088:3208   */\n        tag_81:\n            /* \"#utility.yul\":3268:3269   */\n          0x00\n            /* \"#utility.yul\":3257:3266   */\n          dup6\n            /* \"#utility.yul\":3253:3270   */\n          add\n            /* \"#utility.yul\":3247:3271   */\n          mload\n            /* \"#utility.yul\":3298:3316   */\n          0xffffffffffffffff\n            /* \"#utility.yul\":3290:3296   */\n          dup2\n            /* \"#utility.yul\":3287:3317   */\n          gt\n            /* \"#utility.yul\":3284:3401   */\n          iszero\n          tag_83\n          jumpi\n            /* \"#utility.yul\":3320:3399   */\n          tag_84\n          tag_12\n          jump\t// in\n        tag_84:\n            /* \"#utility.yul\":3284:3401   */\n        tag_83:\n            /* \"#utility.yul\":3425:3499   */\n          tag_85\n            /* \"#utility.yul\":3491:3498   */\n          dup8\n            /* \"#utility.yul\":3482:3488   */\n          dup3\n            /* \"#utility.yul\":3471:3480   */\n          dup9\n            /* \"#utility.yul\":3467:3489   */\n          add\n            /* \"#utility.yul\":3425:3499   */\n          tag_22\n          jump\t// in\n        tag_85:\n            /* \"#utility.yul\":3415:3499   */\n          swap5\n          pop\n            /* \"#utility.yul\":3218:3509   */\n          pop\n            /* \"#utility.yul\":3548:3550   */\n          0x20\n            /* \"#utility.yul\":3574:3638   */\n          tag_86\n            /* \"#utility.yul\":3630:3637   */\n          dup8\n            /* \"#utility.yul\":3621:3627   */\n          dup3\n            /* \"#utility.yul\":3610:3619   */\n          dup9\n            /* \"#utility.yul\":3606:3628   */\n          add\n            /* \"#utility.yul\":3574:3638   */\n          tag_25\n          jump\t// in\n        tag_86:\n            /* \"#utility.yul\":3564:3638   */\n          swap4\n          pop\n            /* \"#utility.yul\":3519:3648   */\n          pop\n            /* \"#utility.yul\":3708:3710   */\n          0x40\n            /* \"#utility.yul\":3697:3706   */\n          dup6\n            /* \"#utility.yul\":3693:3711   */\n          add\n            /* \"#utility.yul\":3687:3712   */\n          mload\n            /* \"#utility.yul\":3739:3757   */\n          0xffffffffffffffff\n            /* \"#utility.yul\":3731:3737   */\n          dup2\n            /* \"#utility.yul\":3728:3758   */\n          gt\n            /* \"#utility.yul\":3725:3842   */\n          iszero\n          tag_87\n          jumpi\n            /* \"#utility.yul\":3761:3840   */\n          tag_88\n          tag_12\n          jump\t// in\n        tag_88:\n            /* \"#utility.yul\":3725:3842   */\n        tag_87:\n            /* \"#utility.yul\":3866:3940   */\n          tag_89\n            /* \"#utility.yul\":3932:3939   */\n          dup8\n            /* \"#utility.yul\":3923:3929   */\n          dup3\n            /* \"#utility.yul\":3912:3921   */\n          dup9\n            /* \"#utility.yul\":3908:3930   */\n          add\n            /* \"#utility.yul\":3866:3940   */\n          tag_22\n          jump\t// in\n        tag_89:\n            /* \"#utility.yul\":3856:3940   */\n          swap3\n          pop\n            /* \"#utility.yul\":3658:3950   */\n          pop\n            /* \"#utility.yul\":3989:3991   */\n          0x60\n            /* \"#utility.yul\":4015:4079   */\n          tag_90\n            /* \"#utility.yul\":4071:4078   */\n          dup8\n            /* \"#utility.yul\":4062:4068   */\n          dup3\n            /* \"#utility.yul\":4051:4060   */\n          dup9\n            /* \"#utility.yul\":4047:4069   */\n          add\n            /* \"#utility.yul\":4015:4079   */\n          tag_25\n          jump\t// in\n        tag_90:\n            /* \"#utility.yul\":4005:4079   */\n          swap2\n          pop\n            /* \"#utility.yul\":3960:4089   */\n          pop\n            /* \"#utility.yul\":2930:4096   */\n          swap3\n          swap6\n          swap2\n          swap5\n          pop\n          swap3\n          pop\n          jump\t// out\n            /* \"#utility.yul\":4102:4201   */\n        tag_26:\n            /* \"#utility.yul\":4154:4160   */\n          0x00\n            /* \"#utility.yul\":4188:4193   */\n          dup2\n            /* \"#utility.yul\":4182:4194   */\n          mload\n            /* \"#utility.yul\":4172:4194   */\n          swap1\n          pop\n            /* \"#utility.yul\":4102:4201   */\n          swap2\n          swap1\n          pop\n          jump\t// out\n            /* \"#utility.yul\":4207:4387   */\n        tag_27:\n            /* \"#utility.yul\":4255:4332   */\n          0x4e487b7100000000000000000000000000000000000000000000000000000000\n            /* \"#utility.yul\":4252:4253   */\n          0x00\n            /* \"#utility.yul\":4245:4333   */\n          mstore\n            /* \"#utility.yul\":4352:4356   */\n          0x22\n            /* \"#utility.yul\":4349:4350   */\n          0x04\n            /* \"#utility.yul\":4342:4357   */\n          mstore\n            /* \"#utility.yul\":4376:4380   */\n          0x24\n            /* \"#utility.yul\":4373:4374   */\n          0x00\n            /* \"#utility.yul\":4366:4381   */\n          revert\n            /* \"#utility.yul\":4393:4713   */\n        tag_28:\n            /* \"#utility.yul\":4437:4443   */\n          0x00\n            /* \"#utility.yul\":4474:4475   */\n          0x02\n            /* \"#utility.yul\":4468:4472   */\n          dup3\n            /* \"#utility.yul\":4464:4476   */\n          div\n            /* \"#utility.yul\":4454:4476   */\n          swap1\n          pop\n            /* \"#utility.yul\":4521:4522   */\n          0x01\n            /* \"#utility.yul\":4515:4519   */\n          dup3\n            /* \"#utility.yul\":4511:4523   */\n          and\n            /* \"#utility.yul\":4542:4560   */\n          dup1\n            /* \"#utility.yul\":4532:4613   */\n          tag_94\n          jumpi\n            /* \"#utility.yul\":4598:4602   */\n          0x7f\n            /* \"#utility.yul\":4590:4596   */\n          dup3\n            /* \"#utility.yul\":4586:4603   */\n          and\n            /* \"#utility.yul\":4576:4603   */\n          swap2\n          pop\n            /* \"#utility.yul\":4532:4613   */\n        tag_94:\n            /* \"#utility.yul\":4660:4662   */\n          0x20\n            /* \"#utility.yul\":4652:4658   */\n          dup3\n            /* \"#utility.yul\":4649:4663   */\n          lt\n            /* \"#utility.yul\":4629:4647   */\n          dup2\n            /* \"#utility.yul\":4626:4664   */\n          sub\n            /* \"#utility.yul\":4623:4707   */\n          tag_95\n          jumpi\n            /* \"#utility.yul\":4679:4697   */\n          tag_96\n          tag_27\n          jump\t// in\n        tag_96:\n            /* \"#utility.yul\":4623:4707   */\n        tag_95:\n            /* \"#utility.yul\":4444:4713   */\n          pop\n            /* \"#utility.yul\":4393:4713   */\n          swap2\n          swap1\n          pop\n          jump\t// out\n            /* \"#utility.yul\":4719:4860   */\n        tag_29:\n            /* \"#utility.yul\":4768:4772   */\n          0x00\n            /* \"#utility.yul\":4791:4794   */\n          dup2\n            /* \"#utility.yul\":4783:4794   */\n          swap1\n          pop\n            /* \"#utility.yul\":4814:4817   */\n          dup2\n            /* \"#utility.yul\":4811:4812   */\n          0x00\n            /* \"#utility.yul\":4804:4818   */\n          mstore\n            /* \"#utility.yul\":4848:4852   */\n          0x20\n            /* \"#utility.yul\":4845:4846   */\n          0x00\n            /* \"#utility.yul\":4835:4853   */\n          keccak256\n            /* \"#utility.yul\":4827:4853   */\n          swap1\n          pop\n            /* \"#utility.yul\":4719:4860   */\n          swap2\n          swap1\n          pop\n          jump\t// out\n            /* \"#utility.yul\":4866:4959   */\n        tag_30:\n            /* \"#utility.yul\":4903:4909   */\n          0x00\n            /* \"#utility.yul\":4950:4952   */\n          0x20\n            /* \"#utility.yul\":4945:4947   */\n          0x1f\n            /* \"#utility.yul\":4938:4943   */\n          dup4\n            /* \"#utility.yul\":4934:4948   */\n          add\n            /* \"#utility.yul\":4930:4953   */\n          div\n            /* \"#utility.yul\":4920:4953   */\n          swap1\n          pop\n            /* \"#utility.yul\":4866:4959   */\n          swap2\n          swap1\n          pop\n          jump\t// out\n            /* \"#utility.yul\":4965:5072   */\n        tag_31:\n            /* \"#utility.yul\":5009:5017   */\n          0x00\n            /* \"#utility.yul\":5059:5064   */\n          dup3\n            /* \"#utility.yul\":5053:5057   */\n          dup3\n            /* \"#utility.yul\":5049:5065   */\n          shl\n            /* \"#utility.yul\":5028:5065   */\n          swap1\n          pop\n            /* \"#utility.yul\":4965:5072   */\n          swap3\n          swap2\n          pop\n          pop\n          jump\t// out\n            /* \"#utility.yul\":5078:5471   */\n        tag_32:\n            /* \"#utility.yul\":5147:5153   */\n          0x00\n            /* \"#utility.yul\":5197:5198   */\n          0x08\n            /* \"#utility.yul\":5185:5195   */\n          dup4\n            /* \"#utility.yul\":5181:5199   */\n          mul\n            /* \"#utility.yul\":5220:5317   */\n          tag_101\n            /* \"#utility.yul\":5250:5316   */\n          0xffffffffffffffffffffffffffffffffffffffffffffffffffffffffffffffff\n            /* \"#utility.yul\":5239:5248   */\n          dup3\n            /* \"#utility.yul\":5220:5317   */\n          tag_31\n          jump\t// in\n        tag_101:\n            /* \"#utility.yul\":5338:5377   */\n          tag_102\n            /* \"#utility.yul\":5368:5376   */\n          dup7\n            /* \"#utility.yul\":5357:5366   */\n          dup4\n            /* \"#utility.yul\":5338:5377   */\n          tag_31\n          jump\t// in\n        tag_102:\n            /* \"#utility.yul\":5326:5377   */\n          swap6\n          pop\n            /* \"#utility.yul\":5410:5414   */\n          dup1\n            /* \"#utility.yul\":5406:5415   */\n          not\n            /* \"#utility.yul\":5399:5404   */\n          dup5\n            /* \"#utility.yul\":5395:5416   */\n          and\n            /* \"#utility.yul\":5386:5416   */\n          swap4\n          pop\n            /* \"#utility.yul\":5459:5463   */\n          dup1\n            /* \"#utility.yul\":5449:5457   */\n          dup7\n            /* \"#utility.yul\":5445:5464   */\n          and\n            /* \"#utility.yul\":5438:5443   */\n          dup5\n            /* \"#utility.yul\":5435:5465   */\n          or\n            /* \"#utility.yul\":5425:5465   */\n          swap3\n          pop\n            /* \"#utility.yul\":5154:5471   */\n          pop\n          pop\n            /* \"#utility.yul\":5078:5471   */\n          swap4\n          swap3\n          pop\n          pop\n          pop\n          jump\t// out\n            /* \"#utility.yul\":5477:5537   */\n        tag_33:\n            /* \"#utility.yul\":5505:5508   */\n          0x00\n            /* \"#utility.yul\":5526:5531   */\n          dup2\n            /* \"#utility.yul\":5519:5531   */\n          swap1\n          pop\n            /* \"#utility.yul\":5477:5537   */\n          swap2\n          swap1\n          pop\n          jump\t// out\n            /* \"#utility.yul\":5543:5685   */\n        tag_34:\n            /* \"#utility.yul\":5593:5602   */\n          0x00\n            /* \"#utility.yul\":5626:5679   */\n          tag_105\n            /* \"#utility.yul\":5644:5678   */\n          tag_106\n            /* \"#utility.yul\":5653:5677   */\n          tag_107\n            /* \"#utility.yul\":5671:5676   */\n          dup5\n            /* \"#utility.yul\":5653:5677   */\n          tag_23\n          jump\t// in\n        tag_107:\n            /* \"#utility.yul\":5644:5678   */\n          tag_33\n          jump\t// in\n        tag_106:\n            /* \"#utility.yul\":5626:5679   */\n          tag_23\n          jump\t// in\n        tag_105:\n            /* \"#utility.yul\":5613:5679   */\n          swap1\n          pop\n            /* \"#utility.yul\":5543:5685   */\n          swap2\n          swap1\n          pop\n          jump\t// out\n            /* \"#utility.yul\":5691:5766   */\n        tag_35:\n            /* \"#utility.yul\":5734:5737   */\n          0x00\n            /* \"#utility.yul\":5755:5760   */\n          dup2\n            /* \"#utility.yul\":5748:5760   */\n          swap1\n          pop\n            /* \"#utility.yul\":5691:5766   */\n          swap2\n          swap1\n          pop\n          jump\t// out\n            /* \"#utility.yul\":5772:6041   */\n        tag_36:\n            /* \"#utility.yul\":5882:5921   */\n          tag_110\n            /* \"#utility.yul\":5913:5920   */\n          dup4\n            /* \"#utility.yul\":5882:5921   */\n          tag_34\n          jump\t// in\n        tag_110:\n            /* \"#utility.yul\":5943:6034   */\n          tag_111\n            /* \"#utility.yul\":5992:6033   */\n          tag_112\n            /* \"#utility.yul\":6016:6032   */\n          dup3\n            /* \"#utility.yul\":5992:6033   */\n          tag_35\n          jump\t// in\n        tag_112:\n            /* \"#utility.yul\":5984:5990   */\n          dup5\n            /* \"#utility.yul\":5977:5981   */\n          dup5\n            /* \"#utility.yul\":5971:5982   */\n          sload\n            /* \"#utility.yul\":5943:6034   */\n          tag_32\n          jump\t// in\n        tag_111:\n            /* \"#utility.yul\":5937:5941   */\n          dup3\n            /* \"#utility.yul\":5930:6035   */\n          sstore\n            /* \"#utility.yul\":5848:6041   */\n          pop\n            /* \"#utility.yul\":5772:6041   */\n          pop\n          pop\n          pop\n          jump\t// out\n            /* \"#utility.yul\":6047:6120   */\n        tag_37:\n            /* \"#utility.yul\":6092:6095   */\n          0x00\n            /* \"#utility.yul\":6047:6120   */\n          swap1\n          jump\t// out\n            /* \"#utility.yul\":6126:6315   */\n        tag_38:\n            /* \"#utility.yul\":6203:6235   */\n          tag_115\n          tag_37\n          jump\t// in\n        tag_115:\n            /* \"#utility.yul\":6244:6309   */\n          tag_116\n            /* \"#utility.yul\":6302:6308   */\n          dup2\n            /* \"#utility.yul\":6294:6300   */\n          dup5\n            /* \"#utility.yul\":6288:6292   */\n          dup5\n            /* \"#utility.yul\":6244:6309   */\n          tag_36\n          jump\t// in\n        tag_116:\n            /* \"#utility.yul\":6179:6315   */\n          pop\n            /* \"#utility.yul\":6126:6315   */\n          pop\n          pop\n          jump\t// out\n            /* \"#utility.yul\":6321:6507   */\n        tag_39:\n            /* \"#utility.yul\":6381:6501   */\n        tag_118:\n            /* \"#utility.yul\":6398:6401   */\n          dup2\n            /* \"#utility.yul\":6391:6396   */\n          dup2\n            /* \"#utility.yul\":6388:6402   */\n          lt\n            /* \"#utility.yul\":6381:6501   */\n          iszero\n          tag_120\n          jumpi\n            /* \"#utility.yul\":6452:6491   */\n          tag_121\n            /* \"#utility.yul\":6489:6490   */\n          0x00\n            /* \"#utility.yul\":6482:6487   */\n          dup3\n            /* \"#utility.yul\":6452:6491   */\n          tag_38\n          jump\t// in\n        tag_121:\n            /* \"#utility.yul\":6425:6426   */\n          0x01\n            /* \"#utility.yul\":6418:6423   */\n          dup2\n            /* \"#utility.yul\":6414:6427   */\n          add\n            /* \"#utility.yul\":6405:6427   */\n          swap1\n          pop\n            /* \"#utility.yul\":6381:6501   */\n          jump(tag_118)\n        tag_120:\n            /* \"#utility.yul\":6321:6507   */\n          pop\n          pop\n          jump\t// out\n            /* \"#utility.yul\":6513:7056   */\n        tag_40:\n            /* \"#utility.yul\":6614:6616   */\n          0x1f\n            /* \"#utility.yul\":6609:6612   */\n          dup3\n            /* \"#utility.yul\":6606:6617   */\n          gt\n            /* \"#utility.yul\":6603:7049   */\n          iszero\n          tag_123\n          jumpi\n            /* \"#utility.yul\":6648:6686   */\n          tag_124\n            /* \"#utility.yul\":6680:6685   */\n          dup2\n            /* \"#utility.yul\":6648:6686   */\n          tag_29\n          jump\t// in\n        tag_124:\n            /* \"#utility.yul\":6732:6761   */\n          tag_125\n            /* \"#utility.yul\":6750:6760   */\n          dup5\n            /* \"#utility.yul\":6732:6761   */\n          tag_30\n          jump\t// in\n        tag_125:\n            /* \"#utility.yul\":6722:6730   */\n          dup2\n            /* \"#utility.yul\":6718:6762   */\n          add\n            /* \"#utility.yul\":6915:6917   */\n          0x20\n            /* \"#utility.yul\":6903:6913   */\n          dup6\n            /* \"#utility.yul\":6900:6918   */\n          lt\n            /* \"#utility.yul\":6897:6946   */\n          iszero\n          tag_126\n          jumpi\n            /* \"#utility.yul\":6936:6944   */\n          dup2\n            /* \"#utility.yul\":6921:6944   */\n          swap1\n          pop\n            /* \"#utility.yul\":6897:6946   */\n        tag_126:\n            /* \"#utility.yul\":6959:7039   */\n          tag_127\n            /* \"#utility.yul\":7015:7037   */\n          tag_128\n            /* \"#utility.yul\":7033:7036   */\n          dup6\n            /* \"#utility.yul\":7015:7037   */\n          tag_30\n          jump\t// in\n        tag_128:\n            /* \"#utility.yul\":7005:7013   */\n          dup4\n            /* \"#utility.yul\":7001:7038   */\n          add\n            /* \"#utility.yul\":6988:6999   */\n          dup3\n            /* \"#utility.yul\":6959:7039   */\n          tag_39\n          jump\t// in\n        tag_127:\n            /* \"#utility.yul\":6618:7049   */\n          pop\n          pop\n            /* \"#utility.yul\":6603:7049   */\n        tag_123:\n            /* \"#utility.yul\":6513:7056   */\n          pop\n          pop\n          pop\n          jump\t// out\n            /* \"#utility.yul\":7062:7179   */\n        tag_41:\n            /* \"#utility.yul\":7116:7124   */\n          0x00\n            /* \"#utility.yul\":7166:7171   */\n          dup3\n            /* \"#utility.yul\":7160:7164   */\n          dup3\n            /* \"#utility.yul\":7156:7172   */\n          shr\n            /* \"#utility.yul\":7135:7172   */\n          swap1\n          pop\n            /* \"#utility.yul\":7062:7179   */\n          swap3\n          swap2\n          pop\n          pop\n          jump\t// out\n            /* \"#utility.yul\":7185:7354   */\n        tag_42:\n            /* \"#utility.yul\":7229:7235   */\n          0x00\n            /* \"#utility.yul\":7262:7313   */\n          tag_131\n            /* \"#utility.yul\":7310:7311   */\n          0x00\n            /* \"#utility.yul\":7306:7312   */\n          not\n            /* \"#utility.yul\":7298:7303   */\n          dup5\n            /* \"#utility.yul\":7295:7296   */\n          0x08\n            /* \"#utility.yul\":7291:7304   */\n          mul\n            /* \"#utility.yul\":7262:7313   */\n          tag_41\n          jump\t// in\n        tag_131:\n            /* \"#utility.yul\":7258:7314   */\n          not\n            /* \"#utility.yul\":7343:7347   */\n          dup1\n            /* \"#utility.yul\":7337:7341   */\n          dup4\n            /* \"#utility.yul\":7333:7348   */\n          and\n            /* \"#utility.yul\":7323:7348   */\n          swap2\n          pop\n            /* \"#utility.yul\":7236:7354   */\n          pop\n            /* \"#utility.yul\":7185:7354   */\n          swap3\n          swap2\n          pop\n          pop\n          jump\t// out\n            /* \"#utility.yul\":7359:7654   */\n        tag_43:\n            /* \"#utility.yul\":7435:7439   */\n          0x00\n            /* \"#utility.yul\":7581:7610   */\n          tag_133\n            /* \"#utility.yul\":7606:7609   */\n          dup4\n            /* \"#utility.yul\":7600:7604   */\n          dup4\n            /* \"#utility.yul\":7581:7610   */\n          tag_42\n          jump\t// in\n        tag_133:\n            /* \"#utility.yul\":7573:7610   */\n          swap2\n          pop\n            /* \"#utility.yul\":7643:7646   */\n          dup3\n            /* \"#utility.yul\":7640:7641   */\n          0x02\n            /* \"#utility.yul\":7636:7647   */\n          mul\n            /* \"#utility.yul\":7630:7634   */\n          dup3\n            /* \"#utility.yul\":7627:7648   */\n          or\n            /* \"#utility.yul\":7619:7648   */\n          swap1\n          pop\n            /* \"#utility.yul\":7359:7654   */\n          swap3\n          swap2\n          pop\n          pop\n          jump\t// out\n            /* \"#utility.yul\":7659:9054   */\n        tag_7:\n            /* \"#utility.yul\":7776:7813   */\n          tag_135\n            /* \"#utility.yul\":7809:7812   */\n          dup3\n            /* \"#utility.yul\":7776:7813   */\n          tag_26\n          jump\t// in\n        tag_135:\n            /* \"#utility.yul\":7878:7896   */\n          0xffffffffffffffff\n            /* \"#utility.yul\":7870:7876   */\n          dup2\n            /* \"#utility.yul\":7867:7897   */\n          gt\n            /* \"#utility.yul\":7864:7920   */\n          iszero\n          tag_136\n          jumpi\n            /* \"#utility.yul\":7900:7918   */\n          tag_137\n          tag_16\n          jump\t// in\n        tag_137:\n            /* \"#utility.yul\":7864:7920   */\n        tag_136:\n            /* \"#utility.yul\":7944:7982   */\n          tag_138\n            /* \"#utility.yul\":7976:7980   */\n          dup3\n            /* \"#utility.yul\":7970:7981   */\n          sload\n            /* \"#utility.yul\":7944:7982   */\n          tag_28\n          jump\t// in\n        tag_138:\n            /* \"#utility.yul\":8029:8096   */\n          tag_139\n            /* \"#utility.yul\":8089:8095   */\n          dup3\n            /* \"#utility.yul\":8081:8087   */\n          dup3\n            /* \"#utility.yul\":8075:8079   */\n          dup6\n            /* \"#utility.yul\":8029:8096   */\n          tag_40\n          jump\t// in\n        tag_139:\n            /* \"#utility.yul\":8123:8124   */\n          0x00\n            /* \"#utility.yul\":8147:8151   */\n          0x20\n            /* \"#utility.yul\":8134:8151   */\n          swap1\n          pop\n            /* \"#utility.yul\":8179:8181   */\n          0x1f\n            /* \"#utility.yul\":8171:8177   */\n          dup4\n            /* \"#utility.yul\":8168:8182   */\n          gt\n            /* \"#utility.yul\":8196:8197   */\n          0x01\n            /* \"#utility.yul\":8191:8809   */\n          dup2\n          eq\n          tag_141\n          jumpi\n            /* \"#utility.yul\":8853:8854   */\n          0x00\n            /* \"#utility.yul\":8870:8876   */\n          dup5\n            /* \"#utility.yul\":8867:8944   */\n          iszero\n          tag_142\n          jumpi\n            /* \"#utility.yul\":8919:8928   */\n          dup3\n            /* \"#utility.yul\":8914:8917   */\n          dup8\n            /* \"#utility.yul\":8910:8929   */\n          add\n            /* \"#utility.yul\":8904:8930   */\n          mload\n            /* \"#utility.yul\":8895:8930   */\n          swap1\n          pop\n            /* \"#utility.yul\":8867:8944   */\n        tag_142:\n            /* \"#utility.yul\":8970:9037   */\n          tag_143\n            /* \"#utility.yul\":9030:9036   */\n          dup6\n            /* \"#utility.yul\":9023:9028   */\n          dup3\n            /* \"#utility.yul\":8970:9037   */\n          tag_43\n          jump\t// in\n        tag_143:\n            /* \"#utility.yul\":8964:8968   */\n          dup7\n            /* \"#utility.yul\":8957:9038   */\n          sstore\n            /* \"#utility.yul\":8826:9048   */\n          pop\n            /* \"#utility.yul\":8161:9048   */\n          jump(tag_140)\n            /* \"#utility.yul\":8191:8809   */\n        tag_141:\n            /* \"#utility.yul\":8243:8247   */\n          0x1f\n            /* \"#utility.yul\":8239:8248   */\n          not\n            /* \"#utility.yul\":8231:8237   */\n          dup5\n            /* \"#utility.yul\":8227:8249   */\n          and\n            /* \"#utility.yul\":8277:8314   */\n          tag_144\n            /* \"#utility.yul\":8309:8313   */\n          dup7\n            /* \"#utility.yul\":8277:8314   */\n          tag_29\n          jump\t// in\n        tag_144:\n            /* \"#utility.yul\":8336:8337   */\n          0x00\n            /* \"#utility.yul\":8350:8558   */\n        tag_145:\n            /* \"#utility.yul\":8364:8371   */\n          dup3\n            /* \"#utility.yul\":8361:8362   */\n          dup2\n            /* \"#utility.yul\":8358:8372   */\n          lt\n            /* \"#utility.yul\":8350:8558   */\n          iszero\n          tag_147\n          jumpi\n            /* \"#utility.yul\":8443:8452   */\n          dup5\n            /* \"#utility.yul\":8438:8441   */\n          dup10\n            /* \"#utility.yul\":8434:8453   */\n          add\n            /* \"#utility.yul\":8428:8454   */\n          mload\n            /* \"#utility.yul\":8420:8426   */\n          dup3\n            /* \"#utility.yul\":8413:8455   */\n          sstore\n            /* \"#utility.yul\":8494:8495   */\n          0x01\n            /* \"#utility.yul\":8486:8492   */\n          dup3\n            /* \"#utility.yul\":8482:8496   */\n          add\n            /* \"#utility.yul\":8472:8496   */\n          swap2\n          pop\n            /* \"#utility.yul\":8541:8543   */\n          0x20\n            /* \"#utility.yul\":8530:8539   */\n          dup6\n            /* \"#utility.yul\":8526:8544   */\n          add\n            /* \"#utility.yul\":8513:8544   */\n          swap5\n          pop\n            /* \"#utility.yul\":8387:8391   */\n          0x20\n            /* \"#utility.yul\":8384:8385   */\n          dup2\n            /* \"#utility.yul\":8380:8392   */\n          add\n            /* \"#utility.yul\":8375:8392   */\n          swap1\n          pop\n            /* \"#utility.yul\":8350:8558   */\n          jump(tag_145)\n        tag_147:\n            /* \"#utility.yul\":8586:8592   */\n          dup7\n            /* \"#utility.yul\":8577:8584   */\n          dup4\n            /* \"#utility.yul\":8574:8593   */\n          lt\n            /* \"#utility.yul\":8571:8750   */\n          iszero\n          tag_148\n          jumpi\n            /* \"#utility.yul\":8644:8653   */\n          dup5\n            /* \"#utility.yul\":8639:8642   */\n          dup10\n            /* \"#utility.yul\":8635:8654   */\n          add\n            /* \"#utility.yul\":8629:8655   */\n          mload\n            /* \"#utility.yul\":8687:8735   */\n          tag_149\n            /* \"#utility.yul\":8729:8733   */\n          0x1f\n            /* \"#utility.yul\":8721:8727   */\n          dup10\n            /* \"#utility.yul\":8717:8734   */\n          and\n            /* \"#utility.yul\":8706:8715   */\n          dup3\n            /* \"#utility.yul\":8687:8735   */\n          tag_42\n          jump\t// in\n        tag_149:\n            /* \"#utility.yul\":8679:8685   */\n          dup4\n            /* \"#utility.yul\":8672:8736   */\n          sstore\n            /* \"#utility.yul\":8594:8750   */\n          pop\n            /* \"#utility.yul\":8571:8750   */\n        tag_148:\n            /* \"#utility.yul\":8796:8797   */\n          0x01\n            /* \"#utility.yul\":8792:8793   */\n          0x02\n            /* \"#utility.yul\":8784:8790   */\n          dup9\n            /* \"#utility.yul\":8780:8794   */\n          mul\n            /* \"#utility.yul\":8776:8798   */\n          add\n            /* \"#utility.yul\":8770:8774   */\n          dup9\n            /* \"#utility.yul\":8763:8799   */\n          sstore\n            /* \"#utility.yul\":8198:8809   */\n          pop\n          pop\n          pop\n            /* \"#utility.yul\":8161:9048   */\n        tag_140:\n          pop\n            /* \"#utility.yul\":7751:9054   */\n          pop\n          pop\n          pop\n            /* \"#utility.yul\":7659:9054   */\n          pop\n          pop\n          jump\t// out\n            /* \"contracts/DUUID/student.sol\":123:1083  contract Student {... */\n        tag_9:\n          dataSize(sub_0)\n          dup1\n          dataOffset(sub_0)\n          0x00\n          codecopy\n          0x00\n          return\n        stop\n\n        sub_0: assembly {\n                /* \"contracts/DUUID/student.sol\":123:1083  contract Student {... */\n              mstore(0x40, 0x80)\n              callvalue\n              dup1\n              iszero\n              tag_1\n              jumpi\n              0x00\n              dup1\n              revert\n            tag_1:\n              pop\n              jumpi(tag_2, lt(calldatasize, 0x04))\n              shr(0xe0, calldataload(0x00))\n              dup1\n              0x5750653d\n              gt\n              tag_13\n              jumpi\n              dup1\n              0x5750653d\n              eq\n              tag_8\n              jumpi\n              dup1\n              0x68852bc0\n              eq\n              tag_9\n              jumpi\n              dup1\n              0xbc658659\n              eq\n              tag_10\n              jumpi\n              dup1\n              0xd24cc4a9\n              eq\n              tag_11\n              jumpi\n              dup1\n              0xde734f70\n              eq\n              tag_12\n              jumpi\n              jump(tag_2)\n            tag_13:\n              dup1\n              0x06fdde03\n              eq\n              tag_3\n              jumpi\n              dup1\n              0x0b50ecde\n              eq\n              tag_4\n              jumpi\n              dup1\n              0x19cf67ce\n              eq\n              tag_5\n              jumpi\n              dup1\n              0x2aea58b2\n              eq\n              tag_6\n              jumpi\n              dup1\n              0x4fcb113f\n              eq\n              tag_7\n              jumpi\n            tag_2:\n              0x00\n              dup1\n              revert\n                /* \"contracts/DUUID/student.sol\":149:167  string public name */\n            tag_3:\n              tag_14\n              tag_15\n              jump\t// in\n            tag_14:\n              mload(0x40)\n              tag_16\n              swap2\n              swap1\n              tag_17\n              jump\t// in\n            tag_16:\n              mload(0x40)\n              dup1\n              swap2\n              sub\n              swap1\n              return\n                /* \"contracts/DUUID/student.sol\":302:331  uint public creditsEarned = 0 */\n            tag_4:\n              tag_18\n              tag_19\n              jump\t// in\n            tag_18:\n              mload(0x40)\n              tag_20\n              swap2\n              swap1\n              tag_21\n              jump\t// in\n            tag_20:\n              mload(0x40)\n              dup1\n              swap2\n              sub\n              swap1\n              return\n                /* \"contracts/DUUID/student.sol\":275:295  uint public CGPA = 0 */\n            tag_5:\n              tag_22\n              tag_23\n              jump\t// in\n            tag_22:\n              mload(0x40)\n              tag_24\n              swap2\n              swap1\n              tag_21\n              jump\t// in\n            tag_24:\n              mload(0x40)\n              dup1\n              swap2\n              sub\n              swap1\n              return\n                /* \"contracts/DUUID/student.sol\":918:1002  function addCredits(uint credits) public {... */\n            tag_6:\n              tag_25\n              0x04\n              dup1\n              calldatasize\n              sub\n              dup2\n              add\n              swap1\n              tag_26\n              swap2\n              swap1\n              tag_27\n              jump\t// in\n            tag_26:\n              tag_28\n              jump\t// in\n            tag_25:\n              stop\n                /* \"contracts/DUUID/student.sol\":807:910  function giveStudentChainID() public view returns (uint) {... */\n            tag_7:\n              tag_29\n              tag_30\n              jump\t// in\n            tag_29:\n              mload(0x40)\n              tag_31\n              swap2\n              swap1\n              tag_21\n              jump\t// in\n            tag_31:\n              mload(0x40)\n              dup1\n              swap2\n              sub\n              swap1\n              return\n                /* \"contracts/DUUID/student.sol\":244:268  uint public duuID_number */\n            tag_8:\n              tag_32\n              tag_33\n              jump\t// in\n            tag_32:\n              mload(0x40)\n              tag_34\n              swap2\n              swap1\n              tag_21\n              jump\t// in\n            tag_34:\n              mload(0x40)\n              dup1\n              swap2\n              sub\n              swap1\n              return\n                /* \"contracts/DUUID/student.sol\":207:237  string public institutional_ID */\n            tag_9:\n              tag_35\n              tag_36\n              jump\t// in\n            tag_35:\n              mload(0x40)\n              tag_37\n              swap2\n              swap1\n              tag_17\n              jump\t// in\n            tag_37:\n              mload(0x40)\n              dup1\n              swap2\n              sub\n              swap1\n              return\n                /* \"contracts/DUUID/student.sol\":616:799  function getStudentDetails() public view returns (string memory, string memory, uint, uint, uint) {... */\n            tag_10:\n              tag_38\n              tag_39\n              jump\t// in\n            tag_38:\n              mload(0x40)\n              tag_40\n              swap6\n              swap5\n              swap4\n              swap3\n              swap2\n              swap1\n              tag_41\n              jump\t// in\n            tag_40:\n              mload(0x40)\n              dup1\n              swap2\n              sub\n              swap1\n              return\n                /* \"contracts/DUUID/student.sol\":1010:1080  function updateCGPA(uint _CGPA) public {... */\n            tag_11:\n              tag_42\n              0x04\n              dup1\n              calldatasize\n              sub\n              dup2\n              add\n              swap1\n              tag_43\n              swap2\n              swap1\n              tag_27\n              jump\t// in\n            tag_43:\n              tag_44\n              jump\t// in\n            tag_42:\n              stop\n                /* \"contracts/DUUID/student.sol\":174:200  uint public enrollmentYear */\n            tag_12:\n              tag_45\n              tag_46\n              jump\t// in\n            tag_45:\n              mload(0x40)\n              tag_47\n              swap2\n              swap1\n              tag_21\n              jump\t// in\n            tag_47:\n              mload(0x40)\n              dup1\n              swap2\n              sub\n              swap1\n              return\n                /* \"contracts/DUUID/student.sol\":149:167  string public name */\n            tag_15:\n              0x00\n              dup1\n              sload\n              tag_48\n              swap1\n              tag_49\n              jump\t// in\n            tag_48:\n              dup1\n              0x1f\n              add\n              0x20\n              dup1\n              swap2\n              div\n              mul\n              0x20\n              add\n              mload(0x40)\n              swap1\n              dup2\n              add\n              0x40\n              mstore\n              dup1\n              swap3\n              swap2\n              swap1\n              dup2\n              dup2\n              mstore\n              0x20\n              add\n              dup3\n              dup1\n              sload\n              tag_50\n              swap1\n              tag_49\n              jump\t// in\n            tag_50:\n              dup1\n              iszero\n              tag_51\n              jumpi\n              dup1\n              0x1f\n              lt\n              tag_52\n              jumpi\n              0x0100\n              dup1\n              dup4\n              sload\n              div\n              mul\n              dup4\n              mstore\n              swap2\n              0x20\n              add\n              swap2\n              jump(tag_51)\n            tag_52:\n              dup3\n              add\n              swap2\n              swap1\n              0x00\n              mstore\n              keccak256(0x00, 0x20)\n              swap1\n            tag_53:\n              dup2\n              sload\n              dup2\n              mstore\n              swap1\n              0x01\n              add\n              swap1\n              0x20\n              add\n              dup1\n              dup4\n              gt\n              tag_53\n              jumpi\n              dup3\n              swap1\n              sub\n              0x1f\n              and\n              dup3\n              add\n              swap2\n            tag_51:\n              pop\n              pop\n              pop\n              pop\n              pop\n              dup2\n              jump\t// out\n                /* \"contracts/DUUID/student.sol\":302:331  uint public creditsEarned = 0 */\n            tag_19:\n              sload(0x05)\n              dup2\n              jump\t// out\n                /* \"contracts/DUUID/student.sol\":275:295  uint public CGPA = 0 */\n            tag_23:\n              sload(0x04)\n              dup2\n              jump\t// out\n                /* \"contracts/DUUID/student.sol\":918:1002  function addCredits(uint credits) public {... */\n            tag_28:\n                /* \"contracts/DUUID/student.sol\":987:994  credits */\n              dup1\n                /* \"contracts/DUUID/student.sol\":970:983  creditsEarned */\n              0x05\n              0x00\n                /* \"contracts/DUUID/student.sol\":970:994  creditsEarned += credits */\n              dup3\n              dup3\n              sload\n              tag_55\n              swap2\n              swap1\n              tag_56\n              jump\t// in\n            tag_55:\n              swap3\n              pop\n              pop\n              dup2\n              swap1\n              sstore\n              pop\n                /* \"contracts/DUUID/student.sol\":918:1002  function addCredits(uint credits) public {... */\n              pop\n              jump\t// out\n                /* \"contracts/DUUID/student.sol\":807:910  function giveStudentChainID() public view returns (uint) {... */\n            tag_30:\n                /* \"contracts/DUUID/student.sol\":858:862  uint */\n              0x00\n                /* \"contracts/DUUID/student.sol\":882:902  giveStudentChainID() */\n              tag_58\n                /* \"contracts/DUUID/student.sol\":882:900  giveStudentChainID */\n              tag_30\n                /* \"contracts/DUUID/student.sol\":882:902  giveStudentChainID() */\n              jump\t// in\n            tag_58:\n                /* \"contracts/DUUID/student.sol\":875:902  return giveStudentChainID() */\n              swap1\n              pop\n                /* \"contracts/DUUID/student.sol\":807:910  function giveStudentChainID() public view returns (uint) {... */\n              swap1\n              jump\t// out\n                /* \"contracts/DUUID/student.sol\":244:268  uint public duuID_number */\n            tag_33:\n              sload(0x03)\n              dup2\n              jump\t// out\n                /* \"contracts/DUUID/student.sol\":207:237  string public institutional_ID */\n            tag_36:\n              0x02\n              dup1\n              sload\n              tag_59\n              swap1\n              tag_49\n              jump\t// in\n            tag_59:\n              dup1\n              0x1f\n              add\n              0x20\n              dup1\n              swap2\n              div\n              mul\n              0x20\n              add\n              mload(0x40)\n              swap1\n              dup2\n              add\n              0x40\n              mstore\n              dup1\n              swap3\n              swap2\n              swap1\n              dup2\n              dup2\n              mstore\n              0x20\n              add\n              dup3\n              dup1\n              sload\n              tag_60\n              swap1\n              tag_49\n              jump\t// in\n            tag_60:\n              dup1\n              iszero\n              tag_61\n              jumpi\n              dup1\n              0x1f\n              lt\n              tag_62\n              jumpi\n              0x0100\n              dup1\n              dup4\n              sload\n              div\n              mul\n              dup4\n              mstore\n              swap2\n              0x20\n              add\n              swap2\n              jump(tag_61)\n            tag_62:\n              dup3\n              add\n              swap2\n              swap1\n              0x00\n              mstore\n              keccak256(0x00, 0x20)\n              swap1\n            tag_63:\n              dup2\n              sload\n              dup2\n              mstore\n              swap1\n              0x01\n              add\n              swap1\n              0x20\n              add\n              dup1\n              dup4\n              gt\n              tag_63\n              jumpi\n              dup3\n              swap1\n              sub\n              0x1f\n              and\n              dup3\n              add\n              swap2\n            tag_61:\n              pop\n              pop\n              pop\n              pop\n              pop\n              dup2\n              jump\t// out\n                /* \"contracts/DUUID/student.sol\":616:799  function getStudentDetails() public view returns (string memory, string memory, uint, uint, uint) {... */\n            tag_39:\n                /* \"contracts/DUUID/student.sol\":666:679  string memory */\n              0x60\n                /* \"contracts/DUUID/student.sol\":681:694  string memory */\n              dup1\n                /* \"contracts/DUUID/student.sol\":696:700  uint */\n              0x00\n                /* \"contracts/DUUID/student.sol\":702:706  uint */\n              dup1\n                /* \"contracts/DUUID/student.sol\":708:712  uint */\n              0x00\n                /* \"contracts/DUUID/student.sol\":733:737  name */\n              dup1\n                /* \"contracts/DUUID/student.sol\":739:755  institutional_ID */\n              0x02\n                /* \"contracts/DUUID/student.sol\":757:761  CGPA */\n              sload(0x04)\n                /* \"contracts/DUUID/student.sol\":763:775  duuID_number */\n              sload(0x03)\n                /* \"contracts/DUUID/student.sol\":777:790  creditsEarned */\n              sload(0x05)\n                /* \"contracts/DUUID/student.sol\":725:791  return (name, institutional_ID, CGPA, duuID_number, creditsEarned) */\n              dup5\n              dup1\n              sload\n              tag_65\n              swap1\n              tag_49\n              jump\t// in\n            tag_65:\n              dup1\n              0x1f\n              add\n              0x20\n              dup1\n              swap2\n              div\n              mul\n              0x20\n              add\n              mload(0x40)\n              swap1\n              dup2\n              add\n              0x40\n              mstore\n              dup1\n              swap3\n              swap2\n              swap1\n              dup2\n              dup2\n              mstore\n              0x20\n              add\n              dup3\n              dup1\n              sload\n              tag_66\n              swap1\n              tag_49\n              jump\t// in\n            tag_66:\n              dup1\n              iszero\n              tag_67\n              jumpi\n              dup1\n              0x1f\n              lt\n              tag_68\n              jumpi\n              0x0100\n              dup1\n              dup4\n              sload\n              div\n              mul\n              dup4\n              mstore\n              swap2\n              0x20\n              add\n              swap2\n              jump(tag_67)\n            tag_68:\n              dup3\n              add\n              swap2\n              swap1\n              0x00\n              mstore\n              keccak256(0x00, 0x20)\n              swap1\n            tag_69:\n              dup2\n              sload\n              dup2\n              mstore\n              swap1\n              0x01\n              add\n              swap1\n              0x20\n              add\n              dup1\n              dup4\n              gt\n              tag_69\n              jumpi\n              dup3\n              swap1\n              sub\n              0x1f\n              and\n              dup3\n              add\n              swap2\n            tag_67:\n              pop\n              pop\n              pop\n              pop\n              pop\n              swap5\n              pop\n              dup4\n              dup1\n              sload\n              tag_70\n              swap1\n              tag_49\n              jump\t// in\n            tag_70:\n              dup1\n              0x1f\n              add\n              0x20\n              dup1\n              swap2\n              div\n              mul\n              0x20\n              add\n              mload(0x40)\n              swap1\n              dup2\n              add\n              0x40\n              mstore\n              dup1\n              swap3\n              swap2\n              swap1\n              dup2\n              dup2\n              mstore\n              0x20\n              add\n              dup3\n              dup1\n              sload\n              tag_71\n              swap1\n              tag_49\n              jump\t// in\n            tag_71:\n              dup1\n              iszero\n              tag_72\n              jumpi\n              dup1\n              0x1f\n              lt\n              tag_73\n              jumpi\n              0x0100\n              dup1\n              dup4\n              sload\n              div\n              mul\n              dup4\n              mstore\n              swap2\n              0x20\n              add\n              swap2\n              jump(tag_72)\n            tag_73:\n              dup3\n              add\n              swap2\n              swap1\n              0x00\n              mstore\n              keccak256(0x00, 0x20)\n              swap1\n            tag_74:\n              dup2\n              sload\n              dup2\n              mstore\n              swap1\n              0x01\n              add\n              swap1\n              0x20\n              add\n              dup1\n              dup4\n              gt\n              tag_74\n              jumpi\n              dup3\n              swap1\n              sub\n              0x1f\n              and\n              dup3\n              add\n              swap2\n            tag_72:\n              pop\n              pop\n              pop\n              pop\n              pop\n              swap4\n              pop\n              swap5\n              pop\n              swap5\n              pop\n              swap5\n              pop\n              swap5\n              pop\n              swap5\n              pop\n                /* \"contracts/DUUID/student.sol\":616:799  function getStudentDetails() public view returns (string memory, string memory, uint, uint, uint) {... */\n              swap1\n              swap2\n              swap3\n              swap4\n              swap5\n              jump\t// out\n                /* \"contracts/DUUID/student.sol\":1010:1080  function updateCGPA(uint _CGPA) public {... */\n            tag_44:\n                /* \"contracts/DUUID/student.sol\":1067:1072  _CGPA */\n              dup1\n                /* \"contracts/DUUID/student.sol\":1060:1064  CGPA */\n              0x04\n                /* \"contracts/DUUID/student.sol\":1060:1072  CGPA = _CGPA */\n              dup2\n              swap1\n              sstore\n              pop\n                /* \"contracts/DUUID/student.sol\":1010:1080  function updateCGPA(uint _CGPA) public {... */\n              pop\n              jump\t// out\n                /* \"contracts/DUUID/student.sol\":174:200  uint public enrollmentYear */\n            tag_46:\n              sload(0x01)\n              dup2\n              jump\t// out\n                /* \"#utility.yul\":7:106   */\n            tag_76:\n                /* \"#utility.yul\":59:65   */\n              0x00\n                /* \"#utility.yul\":93:98   */\n              dup2\n                /* \"#utility.yul\":87:99   */\n              mload\n                /* \"#utility.yul\":77:99   */\n              swap1\n              pop\n                /* \"#utility.yul\":7:106   */\n              swap2\n              swap1\n              pop\n              jump\t// out\n                /* \"#utility.yul\":112:281   */\n            tag_77:\n                /* \"#utility.yul\":196:207   */\n              0x00\n                /* \"#utility.yul\":230:236   */\n              dup3\n                /* \"#utility.yul\":225:228   */\n              dup3\n                /* \"#utility.yul\":218:237   */\n              mstore\n                /* \"#utility.yul\":270:274   */\n              0x20\n                /* \"#utility.yul\":265:268   */\n              dup3\n                /* \"#utility.yul\":261:275   */\n              add\n                /* \"#utility.yul\":246:275   */\n              swap1\n              pop\n                /* \"#utility.yul\":112:281   */\n              swap3\n              swap2\n              pop\n              pop\n              jump\t// out\n                /* \"#utility.yul\":287:426   */\n            tag_78:\n                /* \"#utility.yul\":376:382   */\n              dup3\n                /* \"#utility.yul\":371:374   */\n              dup2\n                /* \"#utility.yul\":366:369   */\n              dup4\n                /* \"#utility.yul\":360:383   */\n              mcopy\n                /* \"#utility.yul\":417:418   */\n              0x00\n                /* \"#utility.yul\":408:414   */\n              dup4\n                /* \"#utility.yul\":403:406   */\n              dup4\n                /* \"#utility.yul\":399:415   */\n              add\n                /* \"#utility.yul\":392:419   */\n              mstore\n                /* \"#utility.yul\":287:426   */\n              pop\n              pop\n              pop\n              jump\t// out\n                /* \"#utility.yul\":432:534   */\n            tag_79:\n                /* \"#utility.yul\":473:479   */\n              0x00\n                /* \"#utility.yul\":524:526   */\n              0x1f\n                /* \"#utility.yul\":520:527   */\n              not\n                /* \"#utility.yul\":515:517   */\n              0x1f\n                /* \"#utility.yul\":508:513   */\n              dup4\n                /* \"#utility.yul\":504:518   */\n              add\n                /* \"#utility.yul\":500:528   */\n              and\n                /* \"#utility.yul\":490:528   */\n              swap1\n              pop\n                /* \"#utility.yul\":432:534   */\n              swap2\n              swap1\n              pop\n              jump\t// out\n                /* \"#utility.yul\":540:917   */\n            tag_80:\n                /* \"#utility.yul\":628:631   */\n              0x00\n                /* \"#utility.yul\":656:695   */\n              tag_96\n                /* \"#utility.yul\":689:694   */\n              dup3\n                /* \"#utility.yul\":656:695   */\n              tag_76\n              jump\t// in\n            tag_96:\n                /* \"#utility.yul\":711:782   */\n              tag_97\n                /* \"#utility.yul\":775:781   */\n              dup2\n                /* \"#utility.yul\":770:773   */\n              dup6\n                /* \"#utility.yul\":711:782   */\n              tag_77\n              jump\t// in\n            tag_97:\n                /* \"#utility.yul\":704:782   */\n              swap4\n              pop\n                /* \"#utility.yul\":791:856   */\n              tag_98\n                /* \"#utility.yul\":849:855   */\n              dup2\n                /* \"#utility.yul\":844:847   */\n              dup6\n                /* \"#utility.yul\":837:841   */\n              0x20\n                /* \"#utility.yul\":830:835   */\n              dup7\n                /* \"#utility.yul\":826:842   */\n              add\n                /* \"#utility.yul\":791:856   */\n              tag_78\n              jump\t// in\n            tag_98:\n                /* \"#utility.yul\":881:910   */\n              tag_99\n                /* \"#utility.yul\":903:909   */\n              dup2\n                /* \"#utility.yul\":881:910   */\n              tag_79\n              jump\t// in\n            tag_99:\n                /* \"#utility.yul\":876:879   */\n              dup5\n                /* \"#utility.yul\":872:911   */\n              add\n                /* \"#utility.yul\":865:911   */\n              swap2\n              pop\n                /* \"#utility.yul\":632:917   */\n              pop\n                /* \"#utility.yul\":540:917   */\n              swap3\n              swap2\n              pop\n              pop\n              jump\t// out\n                /* \"#utility.yul\":923:1236   */\n            tag_17:\n                /* \"#utility.yul\":1036:1040   */\n              0x00\n                /* \"#utility.yul\":1074:1076   */\n              0x20\n                /* \"#utility.yul\":1063:1072   */\n              dup3\n                /* \"#utility.yul\":1059:1077   */\n              add\n                /* \"#utility.yul\":1051:1077   */\n              swap1\n              pop\n                /* \"#utility.yul\":1123:1132   */\n              dup2\n                /* \"#utility.yul\":1117:1121   */\n              dup2\n                /* \"#utility.yul\":1113:1133   */\n              sub\n                /* \"#utility.yul\":1109:1110   */\n              0x00\n                /* \"#utility.yul\":1098:1107   */\n              dup4\n                /* \"#utility.yul\":1094:1111   */\n              add\n                /* \"#utility.yul\":1087:1134   */\n              mstore\n                /* \"#utility.yul\":1151:1229   */\n              tag_101\n                /* \"#utility.yul\":1224:1228   */\n              dup2\n                /* \"#utility.yul\":1215:1221   */\n              dup5\n                /* \"#utility.yul\":1151:1229   */\n              tag_80\n              jump\t// in\n            tag_101:\n                /* \"#utility.yul\":1143:1229   */\n              swap1\n              pop\n                /* \"#utility.yul\":923:1236   */\n              swap3\n              swap2\n              pop\n              pop\n              jump\t// out\n                /* \"#utility.yul\":1242:1319   */\n            tag_81:\n                /* \"#utility.yul\":1279:1286   */\n              0x00\n                /* \"#utility.yul\":1308:1313   */\n              dup2\n                /* \"#utility.yul\":1297:1313   */\n              swap1\n              pop\n                /* \"#utility.yul\":1242:1319   */\n              swap2\n              swap1\n              pop\n              jump\t// out\n                /* \"#utility.yul\":1325:1443   */\n            tag_82:\n                /* \"#utility.yul\":1412:1436   */\n              tag_104\n                /* \"#utility.yul\":1430:1435   */\n              dup2\n                /* \"#utility.yul\":1412:1436   */\n              tag_81\n              jump\t// in\n            tag_104:\n                /* \"#utility.yul\":1407:1410   */\n              dup3\n                /* \"#utility.yul\":1400:1437   */\n              mstore\n                /* \"#utility.yul\":1325:1443   */\n              pop\n              pop\n              jump\t// out\n                /* \"#utility.yul\":1449:1671   */\n            tag_21:\n                /* \"#utility.yul\":1542:1546   */\n              0x00\n                /* \"#utility.yul\":1580:1582   */\n              0x20\n                /* \"#utility.yul\":1569:1578   */\n              dup3\n                /* \"#utility.yul\":1565:1583   */\n              add\n                /* \"#utility.yul\":1557:1583   */\n              swap1\n              pop\n                /* \"#utility.yul\":1593:1664   */\n              tag_106\n                /* \"#utility.yul\":1661:1662   */\n              0x00\n                /* \"#utility.yul\":1650:1659   */\n              dup4\n                /* \"#utility.yul\":1646:1663   */\n              add\n                /* \"#utility.yul\":1637:1643   */\n              dup5\n                /* \"#utility.yul\":1593:1664   */\n              tag_82\n              jump\t// in\n            tag_106:\n                /* \"#utility.yul\":1449:1671   */\n              swap3\n              swap2\n              pop\n              pop\n              jump\t// out\n                /* \"#utility.yul\":1758:1875   */\n            tag_84:\n                /* \"#utility.yul\":1867:1868   */\n              0x00\n                /* \"#utility.yul\":1864:1865   */\n              dup1\n                /* \"#utility.yul\":1857:1869   */\n              revert\n                /* \"#utility.yul\":2004:2126   */\n            tag_86:\n                /* \"#utility.yul\":2077:2101   */\n              tag_111\n                /* \"#utility.yul\":2095:2100   */\n              dup2\n                /* \"#utility.yul\":2077:2101   */\n              tag_81\n              jump\t// in\n            tag_111:\n                /* \"#utility.yul\":2070:2075   */\n              dup2\n                /* \"#utility.yul\":2067:2102   */\n              eq\n                /* \"#utility.yul\":2057:2120   */\n              tag_112\n              jumpi\n                /* \"#utility.yul\":2116:2117   */\n              0x00\n                /* \"#utility.yul\":2113:2114   */\n              dup1\n                /* \"#utility.yul\":2106:2118   */\n              revert\n                /* \"#utility.yul\":2057:2120   */\n            tag_112:\n                /* \"#utility.yul\":2004:2126   */\n              pop\n              jump\t// out\n                /* \"#utility.yul\":2132:2271   */\n            tag_87:\n                /* \"#utility.yul\":2178:2183   */\n              0x00\n                /* \"#utility.yul\":2216:2222   */\n              dup2\n                /* \"#utility.yul\":2203:2223   */\n              calldataload\n                /* \"#utility.yul\":2194:2223   */\n              swap1\n              pop\n                /* \"#utility.yul\":2232:2265   */\n              tag_114\n                /* \"#utility.yul\":2259:2264   */\n              dup2\n                /* \"#utility.yul\":2232:2265   */\n              tag_86\n              jump\t// in\n            tag_114:\n                /* \"#utility.yul\":2132:2271   */\n              swap3\n              swap2\n              pop\n              pop\n              jump\t// out\n                /* \"#utility.yul\":2277:2606   */\n            tag_27:\n                /* \"#utility.yul\":2336:2342   */\n              0x00\n                /* \"#utility.yul\":2385:2387   */\n              0x20\n                /* \"#utility.yul\":2373:2382   */\n              dup3\n                /* \"#utility.yul\":2364:2371   */\n              dup5\n                /* \"#utility.yul\":2360:2383   */\n              sub\n                /* \"#utility.yul\":2356:2388   */\n              slt\n                /* \"#utility.yul\":2353:2472   */\n              iszero\n              tag_116\n              jumpi\n                /* \"#utility.yul\":2391:2470   */\n              tag_117\n              tag_84\n              jump\t// in\n            tag_117:\n                /* \"#utility.yul\":2353:2472   */\n            tag_116:\n                /* \"#utility.yul\":2511:2512   */\n              0x00\n                /* \"#utility.yul\":2536:2589   */\n              tag_118\n                /* \"#utility.yul\":2581:2588   */\n              dup5\n                /* \"#utility.yul\":2572:2578   */\n              dup3\n                /* \"#utility.yul\":2561:2570   */\n              dup6\n                /* \"#utility.yul\":2557:2579   */\n              add\n                /* \"#utility.yul\":2536:2589   */\n              tag_87\n              jump\t// in\n            tag_118:\n                /* \"#utility.yul\":2526:2589   */\n              swap2\n              pop\n                /* \"#utility.yul\":2482:2599   */\n              pop\n                /* \"#utility.yul\":2277:2606   */\n              swap3\n              swap2\n              pop\n              pop\n              jump\t// out\n                /* \"#utility.yul\":2612:3458   */\n            tag_41:\n                /* \"#utility.yul\":2857:2861   */\n              0x00\n                /* \"#utility.yul\":2895:2898   */\n              0xa0\n                /* \"#utility.yul\":2884:2893   */\n              dup3\n                /* \"#utility.yul\":2880:2899   */\n              add\n                /* \"#utility.yul\":2872:2899   */\n              swap1\n              pop\n                /* \"#utility.yul\":2945:2954   */\n              dup2\n                /* \"#utility.yul\":2939:2943   */\n              dup2\n                /* \"#utility.yul\":2935:2955   */\n              sub\n                /* \"#utility.yul\":2931:2932   */\n              0x00\n                /* \"#utility.yul\":2920:2929   */\n              dup4\n                /* \"#utility.yul\":2916:2933   */\n              add\n                /* \"#utility.yul\":2909:2956   */\n              mstore\n                /* \"#utility.yul\":2973:3051   */\n              tag_120\n                /* \"#utility.yul\":3046:3050   */\n              dup2\n                /* \"#utility.yul\":3037:3043   */\n              dup9\n                /* \"#utility.yul\":2973:3051   */\n              tag_80\n              jump\t// in\n            tag_120:\n                /* \"#utility.yul\":2965:3051   */\n              swap1\n              pop\n                /* \"#utility.yul\":3098:3107   */\n              dup2\n                /* \"#utility.yul\":3092:3096   */\n              dup2\n                /* \"#utility.yul\":3088:3108   */\n              sub\n                /* \"#utility.yul\":3083:3085   */\n              0x20\n                /* \"#utility.yul\":3072:3081   */\n              dup4\n                /* \"#utility.yul\":3068:3086   */\n              add\n                /* \"#utility.yul\":3061:3109   */\n              mstore\n                /* \"#utility.yul\":3126:3204   */\n              tag_121\n                /* \"#utility.yul\":3199:3203   */\n              dup2\n                /* \"#utility.yul\":3190:3196   */\n              dup8\n                /* \"#utility.yul\":3126:3204   */\n              tag_80\n              jump\t// in\n            tag_121:\n                /* \"#utility.yul\":3118:3204   */\n              swap1\n              pop\n                /* \"#utility.yul\":3214:3286   */\n              tag_122\n                /* \"#utility.yul\":3282:3284   */\n              0x40\n                /* \"#utility.yul\":3271:3280   */\n              dup4\n                /* \"#utility.yul\":3267:3285   */\n              add\n                /* \"#utility.yul\":3258:3264   */\n              dup7\n                /* \"#utility.yul\":3214:3286   */\n              tag_82\n              jump\t// in\n            tag_122:\n                /* \"#utility.yul\":3296:3368   */\n              tag_123\n                /* \"#utility.yul\":3364:3366   */\n              0x60\n                /* \"#utility.yul\":3353:3362   */\n              dup4\n                /* \"#utility.yul\":3349:3367   */\n              add\n                /* \"#utility.yul\":3340:3346   */\n              dup6\n                /* \"#utility.yul\":3296:3368   */\n              tag_82\n              jump\t// in\n            tag_123:\n                /* \"#utility.yul\":3378:3451   */\n              tag_124\n                /* \"#utility.yul\":3446:3449   */\n              0x80\n                /* \"#utility.yul\":3435:3444   */\n              dup4\n                /* \"#utility.yul\":3431:3450   */\n              add\n                /* \"#utility.yul\":3422:3428   */\n              dup5\n                /* \"#utility.yul\":3378:3451   */\n              tag_82\n              jump\t// in\n            tag_124:\n                /* \"#utility.yul\":2612:3458   */\n              swap7\n              swap6\n              pop\n              pop\n              pop\n              pop\n              pop\n              pop\n              jump\t// out\n                /* \"#utility.yul\":3464:3644   */\n            tag_88:\n                /* \"#utility.yul\":3512:3589   */\n              0x4e487b7100000000000000000000000000000000000000000000000000000000\n                /* \"#utility.yul\":3509:3510   */\n              0x00\n                /* \"#utility.yul\":3502:3590   */\n              mstore\n                /* \"#utility.yul\":3609:3613   */\n              0x22\n                /* \"#utility.yul\":3606:3607   */\n              0x04\n                /* \"#utility.yul\":3599:3614   */\n              mstore\n                /* \"#utility.yul\":3633:3637   */\n              0x24\n                /* \"#utility.yul\":3630:3631   */\n              0x00\n                /* \"#utility.yul\":3623:3638   */\n              revert\n                /* \"#utility.yul\":3650:3970   */\n            tag_49:\n                /* \"#utility.yul\":3694:3700   */\n              0x00\n                /* \"#utility.yul\":3731:3732   */\n              0x02\n                /* \"#utility.yul\":3725:3729   */\n              dup3\n                /* \"#utility.yul\":3721:3733   */\n              div\n                /* \"#utility.yul\":3711:3733   */\n              swap1\n              pop\n                /* \"#utility.yul\":3778:3779   */\n              0x01\n                /* \"#utility.yul\":3772:3776   */\n              dup3\n                /* \"#utility.yul\":3768:3780   */\n              and\n                /* \"#utility.yul\":3799:3817   */\n              dup1\n                /* \"#utility.yul\":3789:3870   */\n              tag_127\n              jumpi\n                /* \"#utility.yul\":3855:3859   */\n              0x7f\n                /* \"#utility.yul\":3847:3853   */\n              dup3\n                /* \"#utility.yul\":3843:3860   */\n              and\n                /* \"#utility.yul\":3833:3860   */\n              swap2\n              pop\n                /* \"#utility.yul\":3789:3870   */\n            tag_127:\n                /* \"#utility.yul\":3917:3919   */\n              0x20\n                /* \"#utility.yul\":3909:3915   */\n              dup3\n                /* \"#utility.yul\":3906:3920   */\n              lt\n                /* \"#utility.yul\":3886:3904   */\n              dup2\n                /* \"#utility.yul\":3883:3921   */\n              sub\n                /* \"#utility.yul\":3880:3964   */\n              tag_128\n              jumpi\n                /* \"#utility.yul\":3936:3954   */\n              tag_129\n              tag_88\n              jump\t// in\n            tag_129:\n                /* \"#utility.yul\":3880:3964   */\n            tag_128:\n                /* \"#utility.yul\":3701:3970   */\n              pop\n                /* \"#utility.yul\":3650:3970   */\n              swap2\n              swap1\n              pop\n              jump\t// out\n                /* \"#utility.yul\":3976:4156   */\n            tag_89:\n                /* \"#utility.yul\":4024:4101   */\n              0x4e487b7100000000000000000000000000000000000000000000000000000000\n                /* \"#utility.yul\":4021:4022   */\n              0x00\n                /* \"#utility.yul\":4014:4102   */\n              mstore\n                /* \"#utility.yul\":4121:4125   */\n              0x11\n                /* \"#utility.yul\":4118:4119   */\n              0x04\n                /* \"#utility.yul\":4111:4126   */\n              mstore\n                /* \"#utility.yul\":4145:4149   */\n              0x24\n                /* \"#utility.yul\":4142:4143   */\n              0x00\n                /* \"#utility.yul\":4135:4150   */\n              revert\n                /* \"#utility.yul\":4162:4353   */\n            tag_56:\n                /* \"#utility.yul\":4202:4205   */\n              0x00\n                /* \"#utility.yul\":4221:4241   */\n              tag_132\n                /* \"#utility.yul\":4239:4240   */\n              dup3\n                /* \"#utility.yul\":4221:4241   */\n              tag_81\n              jump\t// in\n            tag_132:\n                /* \"#utility.yul\":4216:4241   */\n              swap2\n              pop\n                /* \"#utility.yul\":4255:4275   */\n              tag_133\n                /* \"#utility.yul\":4273:4274   */\n              dup4\n                /* \"#utility.yul\":4255:4275   */\n              tag_81\n              jump\t// in\n            tag_133:\n                /* \"#utility.yul\":4250:4275   */\n              swap3\n              pop\n                /* \"#utility.yul\":4298:4299   */\n              dup3\n                /* \"#utility.yul\":4295:4296   */\n              dup3\n                /* \"#utility.yul\":4291:4300   */\n              add\n                /* \"#utility.yul\":4284:4300   */\n              swap1\n              pop\n                /* \"#utility.yul\":4319:4322   */\n              dup1\n                /* \"#utility.yul\":4316:4317   */\n              dup3\n                /* \"#utility.yul\":4313:4323   */\n              gt\n                /* \"#utility.yul\":4310:4346   */\n              iszero\n              tag_134\n              jumpi\n                /* \"#utility.yul\":4326:4344   */\n              tag_135\n              tag_89\n              jump\t// in\n            tag_135:\n                /* \"#utility.yul\":4310:4346   */\n            tag_134:\n                /* \"#utility.yul\":4162:4353   */\n              swap3\n              swap2\n              pop\n              pop\n              jump\t// out\n\n            auxdata: 0xa26469706673582212200bf69bfdb490afe861ff6c77a0881638fdafdeb965d31a8301e5757e85e80aca64736f6c634300081a0033\n        }\n    }\n\n    auxdata: 0xa2646970667358221220903b9a145392a8f4c85ef91946b9de3e65673df46db89af28d8a2ad57a45edc364736f6c634300081a0033\n}\n",
				"bytecode": {
					"linkReferences": {},
					"object": "60806040525f600555348015610013575f80fd5b50604051611b9f380380611b9f833981810160405281019061003591906101d3565b81600190816100449190610431565b50806002819055505050610500565b5f604051905090565b5f80fd5b5f80fd5b5f80fd5b5f80fd5b5f601f19601f8301169050919050565b7f4e487b71000000000000000000000000000000000000000000000000000000005f52604160045260245ffd5b6100b28261006c565b810181811067ffffffffffffffff821117156100d1576100d061007c565b5b80604052505050565b5f6100e3610053565b90506100ef82826100a9565b919050565b5f67ffffffffffffffff82111561010e5761010d61007c565b5b6101178261006c565b9050602081019050919050565b8281835e5f83830152505050565b5f61014461013f846100f4565b6100da565b9050828152602081018484840111156101605761015f610068565b5b61016b848285610124565b509392505050565b5f82601f83011261018757610186610064565b5b8151610197848260208601610132565b91505092915050565b5f819050919050565b6101b2816101a0565b81146101bc575f80fd5b50565b5f815190506101cd816101a9565b92915050565b5f80604083850312156101e9576101e861005c565b5b5f83015167ffffffffffffffff81111561020657610205610060565b5b61021285828601610173565b9250506020610223858286016101bf565b9150509250929050565b5f81519050919050565b7f4e487b71000000000000000000000000000000000000000000000000000000005f52602260045260245ffd5b5f600282049050600182168061027b57607f821691505b60208210810361028e5761028d610237565b5b50919050565b5f819050815f5260205f209050919050565b5f6020601f8301049050919050565b5f82821b905092915050565b5f600883026102f07fffffffffffffffffffffffffffffffffffffffffffffffffffffffffffffffff826102b5565b6102fa86836102b5565b95508019841693508086168417925050509392505050565b5f819050919050565b5f61033561033061032b846101a0565b610312565b6101a0565b9050919050565b5f819050919050565b61034e8361031b565b61036261035a8261033c565b8484546102c1565b825550505050565b5f90565b61037661036a565b610381818484610345565b505050565b5b818110156103a4576103995f8261036e565b600181019050610387565b5050565b601f8211156103e9576103ba81610294565b6103c3846102a6565b810160208510156103d2578190505b6103e66103de856102a6565b830182610386565b50505b505050565b5f82821c905092915050565b5f6104095f19846008026103ee565b1980831691505092915050565b5f61042183836103fa565b9150826002028217905092915050565b61043a8261022d565b67ffffffffffffffff8111156104535761045261007c565b5b61045d8254610264565b6104688282856103a8565b5f60209050601f831160018114610499575f8415610487578287015190505b6104918582610416565b8655506104f8565b601f1984166104a786610294565b5f5b828110156104ce578489015182556001820191506020850194506020810190506104a9565b868310156104eb57848901516104e7601f8916826103fa565b8355505b6001600288020188555050505b505050505050565b6116928061050d5f395ff3fe608060405234801561000f575f80fd5b5060043610610091575f3560e01c8063a6c807a911610064578063a6c807a91461011d578063b74b70a11461014d578063c763e5a11461016b578063e9b4203314610189578063ed32a8a1146101a557610091565b80632b74ad75146100955780633abbed8c146100b15780635283ce5f146100cf5780637df221e9146100ed575b5f80fd5b6100af60048036038101906100aa9190610529565b6101c1565b005b6100b9610230565b6040516100c69190610576565b60405180910390f35b6100d7610236565b6040516100e491906105ff565b60405180910390f35b6101076004803603810190610102919061061f565b6102c2565b6040516101149190610659565b60405180910390f35b61013760048036038101906101329190610672565b6102fd565b60405161014491906106f8565b60405180910390f35b61015561032d565b6040516101629190610576565b60405180910390f35b610173610333565b6040516101809190610731565b60405180910390f35b6101a3600480360381019061019e9190610529565b610356565b005b6101bf60048036038101906101ba9190610876565b6103c5565b005b5f8290508073ffffffffffffffffffffffffffffffffffffffff16632aea58b2836040518263ffffffff1660e01b81526004016101fe9190610576565b5f604051808303815f87803b158015610215575f80fd5b505af1158015610227573d5f803e3d5ffd5b50505050505050565b60025481565b600180546102439061092b565b80601f016020809104026020016040519081016040528092919081815260200182805461026f9061092b565b80156102ba5780601f10610291576101008083540402835291602001916102ba565b820191905f5260205f20905b81548152906001019060200180831161029d57829003601f168201915b505050505081565b600381815481106102d1575f80fd5b905f5260205f20015f915054906101000a900473ffffffffffffffffffffffffffffffffffffffff1681565b6004602052805f5260405f205f915054906101000a900473ffffffffffffffffffffffffffffffffffffffff1681565b60055481565b5f8054906101000a900473ffffffffffffffffffffffffffffffffffffffff1681565b5f8290508073ffffffffffffffffffffffffffffffffffffffff1663d24cc4a9836040518263ffffffff1660e01b81526004016103939190610576565b5f604051808303815f87803b1580156103aa575f80fd5b505af11580156103bc573d5f803e3d5ffd5b50505050505050565b60055f8154809291906103d790610988565b91905055505f8383836005546040516103ef9061047e565b6103fc94939291906109cf565b604051809103905ff080158015610415573d5f803e3d5ffd5b509050600381908060018154018082558091505060019003905f5260205f20015f9091909190916101000a81548173ffffffffffffffffffffffffffffffffffffffff021916908373ffffffffffffffffffffffffffffffffffffffff16021790555050505050565b610c3c80610a2183390190565b5f604051905090565b5f80fd5b5f80fd5b5f73ffffffffffffffffffffffffffffffffffffffff82169050919050565b5f6104c58261049c565b9050919050565b6104d5816104bb565b81146104df575f80fd5b50565b5f813590506104f0816104cc565b92915050565b5f819050919050565b610508816104f6565b8114610512575f80fd5b50565b5f81359050610523816104ff565b92915050565b5f806040838503121561053f5761053e610494565b5b5f61054c858286016104e2565b925050602061055d85828601610515565b9150509250929050565b610570816104f6565b82525050565b5f6020820190506105895f830184610567565b92915050565b5f81519050919050565b5f82825260208201905092915050565b8281835e5f83830152505050565b5f601f19601f8301169050919050565b5f6105d18261058f565b6105db8185610599565b93506105eb8185602086016105a9565b6105f4816105b7565b840191505092915050565b5f6020820190508181035f83015261061781846105c7565b905092915050565b5f6020828403121561063457610633610494565b5b5f61064184828501610515565b91505092915050565b610653816104bb565b82525050565b5f60208201905061066c5f83018461064a565b92915050565b5f6020828403121561068757610686610494565b5b5f610694848285016104e2565b91505092915050565b5f819050919050565b5f6106c06106bb6106b68461049c565b61069d565b61049c565b9050919050565b5f6106d1826106a6565b9050919050565b5f6106e2826106c7565b9050919050565b6106f2816106d8565b82525050565b5f60208201905061070b5f8301846106e9565b92915050565b5f61071b826106c7565b9050919050565b61072b81610711565b82525050565b5f6020820190506107445f830184610722565b92915050565b5f80fd5b5f80fd5b7f4e487b71000000000000000000000000000000000000000000000000000000005f52604160045260245ffd5b610788826105b7565b810181811067ffffffffffffffff821117156107a7576107a6610752565b5b80604052505050565b5f6107b961048b565b90506107c5828261077f565b919050565b5f67ffffffffffffffff8211156107e4576107e3610752565b5b6107ed826105b7565b9050602081019050919050565b828183375f83830152505050565b5f61081a610815846107ca565b6107b0565b9050828152602081018484840111156108365761083561074e565b5b6108418482856107fa565b509392505050565b5f82601f83011261085d5761085c61074a565b5b813561086d848260208601610808565b91505092915050565b5f805f6060848603121561088d5761088c610494565b5b5f84013567ffffffffffffffff8111156108aa576108a9610498565b5b6108b686828701610849565b93505060206108c786828701610515565b925050604084013567ffffffffffffffff8111156108e8576108e7610498565b5b6108f486828701610849565b9150509250925092565b7f4e487b71000000000000000000000000000000000000000000000000000000005f52602260045260245ffd5b5f600282049050600182168061094257607f821691505b602082108103610955576109546108fe565b5b50919050565b7f4e487b71000000000000000000000000000000000000000000000000000000005f52601160045260245ffd5b5f610992826104f6565b91507fffffffffffffffffffffffffffffffffffffffffffffffffffffffffffffffff82036109c4576109c361095b565b5b600182019050919050565b5f6080820190508181035f8301526109e781876105c7565b90506109f66020830186610567565b8181036040830152610a0881856105c7565b9050610a176060830184610567565b9594505050505056fe60806040525f6004555f600555348015610017575f80fd5b50604051610c3c380380610c3c833981810160405281019061003991906101ef565b835f9081610047919061048f565b5082600181905550816002908161005e919061048f565b50806003819055505050505061055e565b5f604051905090565b5f80fd5b5f80fd5b5f80fd5b5f80fd5b5f601f19601f8301169050919050565b7f4e487b71000000000000000000000000000000000000000000000000000000005f52604160045260245ffd5b6100ce82610088565b810181811067ffffffffffffffff821117156100ed576100ec610098565b5b80604052505050565b5f6100ff61006f565b905061010b82826100c5565b919050565b5f67ffffffffffffffff82111561012a57610129610098565b5b61013382610088565b9050602081019050919050565b8281835e5f83830152505050565b5f61016061015b84610110565b6100f6565b90508281526020810184848401111561017c5761017b610084565b5b610187848285610140565b509392505050565b5f82601f8301126101a3576101a2610080565b5b81516101b384826020860161014e565b91505092915050565b5f819050919050565b6101ce816101bc565b81146101d8575f80fd5b50565b5f815190506101e9816101c5565b92915050565b5f805f806080858703121561020757610206610078565b5b5f85015167ffffffffffffffff8111156102245761022361007c565b5b6102308782880161018f565b9450506020610241878288016101db565b935050604085015167ffffffffffffffff8111156102625761026161007c565b5b61026e8782880161018f565b925050606061027f878288016101db565b91505092959194509250565b5f81519050919050565b7f4e487b71000000000000000000000000000000000000000000000000000000005f52602260045260245ffd5b5f60028204905060018216806102d957607f821691505b6020821081036102ec576102eb610295565b5b50919050565b5f819050815f5260205f209050919050565b5f6020601f8301049050919050565b5f82821b905092915050565b5f6008830261034e7fffffffffffffffffffffffffffffffffffffffffffffffffffffffffffffffff82610313565b6103588683610313565b95508019841693508086168417925050509392505050565b5f819050919050565b5f61039361038e610389846101bc565b610370565b6101bc565b9050919050565b5f819050919050565b6103ac83610379565b6103c06103b88261039a565b84845461031f565b825550505050565b5f90565b6103d46103c8565b6103df8184846103a3565b505050565b5b81811015610402576103f75f826103cc565b6001810190506103e5565b5050565b601f82111561044757610418816102f2565b61042184610304565b81016020851015610430578190505b61044461043c85610304565b8301826103e4565b50505b505050565b5f82821c905092915050565b5f6104675f198460080261044c565b1980831691505092915050565b5f61047f8383610458565b9150826002028217905092915050565b6104988261028b565b67ffffffffffffffff8111156104b1576104b0610098565b5b6104bb82546102c2565b6104c6828285610406565b5f60209050601f8311600181146104f7575f84156104e5578287015190505b6104ef8582610474565b865550610556565b601f198416610505866102f2565b5f5b8281101561052c57848901518255600182019150602085019450602081019050610507565b868310156105495784890151610545601f891682610458565b8355505b6001600288020188555050505b505050505050565b6106d18061056b5f395ff3fe608060405234801561000f575f80fd5b506004361061009c575f3560e01c80635750653d116100645780635750653d1461013457806368852bc014610152578063bc65865914610170578063d24cc4a914610192578063de734f70146101ae5761009c565b806306fdde03146100a05780630b50ecde146100be57806319cf67ce146100dc5780632aea58b2146100fa5780634fcb113f14610116575b5f80fd5b6100a86101cc565b6040516100b591906104d5565b60405180910390f35b6100c6610257565b6040516100d3919061050d565b60405180910390f35b6100e461025d565b6040516100f1919061050d565b60405180910390f35b610114600480360381019061010f9190610554565b610263565b005b61011e61027e565b60405161012b919061050d565b60405180910390f35b61013c61028c565b604051610149919061050d565b60405180910390f35b61015a610292565b60405161016791906104d5565b60405180910390f35b61017861031e565b60405161018995949392919061057f565b60405180910390f35b6101ac60048036038101906101a79190610554565b610455565b005b6101b661045f565b6040516101c3919061050d565b60405180910390f35b5f80546101d89061060b565b80601f01602080910402602001604051908101604052809291908181526020018280546102049061060b565b801561024f5780601f106102265761010080835404028352916020019161024f565b820191905f5260205f20905b81548152906001019060200180831161023257829003601f168201915b505050505081565b60055481565b60045481565b8060055f8282546102749190610668565b9250508190555050565b5f61028761027e565b905090565b60035481565b6002805461029f9061060b565b80601f01602080910402602001604051908101604052809291908181526020018280546102cb9061060b565b80156103165780601f106102ed57610100808354040283529160200191610316565b820191905f5260205f20905b8154815290600101906020018083116102f957829003601f168201915b505050505081565b6060805f805f80600260045460035460055484805461033c9061060b565b80601f01602080910402602001604051908101604052809291908181526020018280546103689061060b565b80156103b35780601f1061038a576101008083540402835291602001916103b3565b820191905f5260205f20905b81548152906001019060200180831161039657829003601f168201915b505050505094508380546103c69061060b565b80601f01602080910402602001604051908101604052809291908181526020018280546103f29061060b565b801561043d5780601f106104145761010080835404028352916020019161043d565b820191905f5260205f20905b81548152906001019060200180831161042057829003601f168201915b50505050509350945094509450945094509091929394565b8060048190555050565b60015481565b5f81519050919050565b5f82825260208201905092915050565b8281835e5f83830152505050565b5f601f19601f8301169050919050565b5f6104a782610465565b6104b1818561046f565b93506104c181856020860161047f565b6104ca8161048d565b840191505092915050565b5f6020820190508181035f8301526104ed818461049d565b905092915050565b5f819050919050565b610507816104f5565b82525050565b5f6020820190506105205f8301846104fe565b92915050565b5f80fd5b610533816104f5565b811461053d575f80fd5b50565b5f8135905061054e8161052a565b92915050565b5f6020828403121561056957610568610526565b5b5f61057684828501610540565b91505092915050565b5f60a0820190508181035f830152610597818861049d565b905081810360208301526105ab818761049d565b90506105ba60408301866104fe565b6105c760608301856104fe565b6105d460808301846104fe565b9695505050505050565b7f4e487b71000000000000000000000000000000000000000000000000000000005f52602260045260245ffd5b5f600282049050600182168061062257607f821691505b602082108103610635576106346105de565b5b50919050565b7f4e487b71000000000000000000000000000000000000000000000000000000005f52601160045260245ffd5b5f610672826104f5565b915061067d836104f5565b92508282019050808211156106955761069461063b565b5b9291505056fea26469706673582212200bf69bfdb490afe861ff6c77a0881638fdafdeb965d31a8301e5757e85e80aca64736f6c634300081a0033a2646970667358221220903b9a145392a8f4c85ef91946b9de3e65673df46db89af28d8a2ad57a45edc364736f6c634300081a0033",
					"opcodes": "PUSH1 0x80 PUSH1 0x40 MSTORE PUSH0 PUSH1 0x5 SSTORE CALLVALUE DUP1 ISZERO PUSH2 0x13 JUMPI PUSH0 DUP1 REVERT JUMPDEST POP PUSH1 0x40 MLOAD PUSH2 0x1B9F CODESIZE SUB DUP1 PUSH2 0x1B9F DUP4 CODECOPY DUP2 DUP2 ADD PUSH1 0x40 MSTORE DUP2 ADD SWAP1 PUSH2 0x35 SWAP2 SWAP1 PUSH2 0x1D3 JUMP JUMPDEST DUP2 PUSH1 0x1 SWAP1 DUP2 PUSH2 0x44 SWAP2 SWAP1 PUSH2 0x431 JUMP JUMPDEST POP DUP1 PUSH1 0x2 DUP2 SWAP1 SSTORE POP POP POP PUSH2 0x500 JUMP JUMPDEST PUSH0 PUSH1 0x40 MLOAD SWAP1 POP SWAP1 JUMP JUMPDEST PUSH0 DUP1 REVERT JUMPDEST PUSH0 DUP1 REVERT JUMPDEST PUSH0 DUP1 REVERT JUMPDEST PUSH0 DUP1 REVERT JUMPDEST PUSH0 PUSH1 0x1F NOT PUSH1 0x1F DUP4 ADD AND SWAP1 POP SWAP2 SWAP1 POP JUMP JUMPDEST PUSH32 0x4E487B7100000000000000000000000000000000000000000000000000000000 PUSH0 MSTORE PUSH1 0x41 PUSH1 0x4 MSTORE PUSH1 0x24 PUSH0 REVERT JUMPDEST PUSH2 0xB2 DUP3 PUSH2 0x6C JUMP JUMPDEST DUP2 ADD DUP2 DUP2 LT PUSH8 0xFFFFFFFFFFFFFFFF DUP3 GT OR ISZERO PUSH2 0xD1 JUMPI PUSH2 0xD0 PUSH2 0x7C JUMP JUMPDEST JUMPDEST DUP1 PUSH1 0x40 MSTORE POP POP POP JUMP JUMPDEST PUSH0 PUSH2 0xE3 PUSH2 0x53 JUMP JUMPDEST SWAP1 POP PUSH2 0xEF DUP3 DUP3 PUSH2 0xA9 JUMP JUMPDEST SWAP2 SWAP1 POP JUMP JUMPDEST PUSH0 PUSH8 0xFFFFFFFFFFFFFFFF DUP3 GT ISZERO PUSH2 0x10E JUMPI PUSH2 0x10D PUSH2 0x7C JUMP JUMPDEST JUMPDEST PUSH2 0x117 DUP3 PUSH2 0x6C JUMP JUMPDEST SWAP1 POP PUSH1 0x20 DUP2 ADD SWAP1 POP SWAP2 SWAP1 POP JUMP JUMPDEST DUP3 DUP2 DUP4 MCOPY PUSH0 DUP4 DUP4 ADD MSTORE POP POP POP JUMP JUMPDEST PUSH0 PUSH2 0x144 PUSH2 0x13F DUP5 PUSH2 0xF4 JUMP JUMPDEST PUSH2 0xDA JUMP JUMPDEST SWAP1 POP DUP3 DUP2 MSTORE PUSH1 0x20 DUP2 ADD DUP5 DUP5 DUP5 ADD GT ISZERO PUSH2 0x160 JUMPI PUSH2 0x15F PUSH2 0x68 JUMP JUMPDEST JUMPDEST PUSH2 0x16B DUP5 DUP3 DUP6 PUSH2 0x124 JUMP JUMPDEST POP SWAP4 SWAP3 POP POP POP JUMP JUMPDEST PUSH0 DUP3 PUSH1 0x1F DUP4 ADD SLT PUSH2 0x187 JUMPI PUSH2 0x186 PUSH2 0x64 JUMP JUMPDEST JUMPDEST DUP2 MLOAD PUSH2 0x197 DUP5 DUP3 PUSH1 0x20 DUP7 ADD PUSH2 0x132 JUMP JUMPDEST SWAP2 POP POP SWAP3 SWAP2 POP POP JUMP JUMPDEST PUSH0 DUP2 SWAP1 POP SWAP2 SWAP1 POP JUMP JUMPDEST PUSH2 0x1B2 DUP2 PUSH2 0x1A0 JUMP JUMPDEST DUP2 EQ PUSH2 0x1BC JUMPI PUSH0 DUP1 REVERT JUMPDEST POP JUMP JUMPDEST PUSH0 DUP2 MLOAD SWAP1 POP PUSH2 0x1CD DUP2 PUSH2 0x1A9 JUMP JUMPDEST SWAP3 SWAP2 POP POP JUMP JUMPDEST PUSH0 DUP1 PUSH1 0x40 DUP4 DUP6 SUB SLT ISZERO PUSH2 0x1E9 JUMPI PUSH2 0x1E8 PUSH2 0x5C JUMP JUMPDEST JUMPDEST PUSH0 DUP4 ADD MLOAD PUSH8 0xFFFFFFFFFFFFFFFF DUP2 GT ISZERO PUSH2 0x206 JUMPI PUSH2 0x205 PUSH2 0x60 JUMP JUMPDEST JUMPDEST PUSH2 0x212 DUP6 DUP3 DUP7 ADD PUSH2 0x173 JUMP JUMPDEST SWAP3 POP POP PUSH1 0x20 PUSH2 0x223 DUP6 DUP3 DUP7 ADD PUSH2 0x1BF JUMP JUMPDEST SWAP2 POP POP SWAP3 POP SWAP3 SWAP1 POP JUMP JUMPDEST PUSH0 DUP2 MLOAD SWAP1 POP SWAP2 SWAP1 POP JUMP JUMPDEST PUSH32 0x4E487B7100000000000000000000000000000000000000000000000000000000 PUSH0 MSTORE PUSH1 0x22 PUSH1 0x4 MSTORE PUSH1 0x24 PUSH0 REVERT JUMPDEST PUSH0 PUSH1 0x2 DUP3 DIV SWAP1 POP PUSH1 0x1 DUP3 AND DUP1 PUSH2 0x27B JUMPI PUSH1 0x7F DUP3 AND SWAP2 POP JUMPDEST PUSH1 0x20 DUP3 LT DUP2 SUB PUSH2 0x28E JUMPI PUSH2 0x28D PUSH2 0x237 JUMP JUMPDEST JUMPDEST POP SWAP2 SWAP1 POP JUMP JUMPDEST PUSH0 DUP2 SWAP1 POP DUP2 PUSH0 MSTORE PUSH1 0x20 PUSH0 KECCAK256 SWAP1 POP SWAP2 SWAP1 POP JUMP JUMPDEST PUSH0 PUSH1 0x20 PUSH1 0x1F DUP4 ADD DIV SWAP1 POP SWAP2 SWAP1 POP JUMP JUMPDEST PUSH0 DUP3 DUP3 SHL SWAP1 POP SWAP3 SWAP2 POP POP JUMP JUMPDEST PUSH0 PUSH1 0x8 DUP4 MUL PUSH2 0x2F0 PUSH32 0xFFFFFFFFFFFFFFFFFFFFFFFFFFFFFFFFFFFFFFFFFFFFFFFFFFFFFFFFFFFFFFFF DUP3 PUSH2 0x2B5 JUMP JUMPDEST PUSH2 0x2FA DUP7 DUP4 PUSH2 0x2B5 JUMP JUMPDEST SWAP6 POP DUP1 NOT DUP5 AND SWAP4 POP DUP1 DUP7 AND DUP5 OR SWAP3 POP POP POP SWAP4 SWAP3 POP POP POP JUMP JUMPDEST PUSH0 DUP2 SWAP1 POP SWAP2 SWAP1 POP JUMP JUMPDEST PUSH0 PUSH2 0x335 PUSH2 0x330 PUSH2 0x32B DUP5 PUSH2 0x1A0 JUMP JUMPDEST PUSH2 0x312 JUMP JUMPDEST PUSH2 0x1A0 JUMP JUMPDEST SWAP1 POP SWAP2 SWAP1 POP JUMP JUMPDEST PUSH0 DUP2 SWAP1 POP SWAP2 SWAP1 POP JUMP JUMPDEST PUSH2 0x34E DUP4 PUSH2 0x31B JUMP JUMPDEST PUSH2 0x362 PUSH2 0x35A DUP3 PUSH2 0x33C JUMP JUMPDEST DUP5 DUP5 SLOAD PUSH2 0x2C1 JUMP JUMPDEST DUP3 SSTORE POP POP POP POP JUMP JUMPDEST PUSH0 SWAP1 JUMP JUMPDEST PUSH2 0x376 PUSH2 0x36A JUMP JUMPDEST PUSH2 0x381 DUP2 DUP5 DUP5 PUSH2 0x345 JUMP JUMPDEST POP POP POP JUMP JUMPDEST JUMPDEST DUP2 DUP2 LT ISZERO PUSH2 0x3A4 JUMPI PUSH2 0x399 PUSH0 DUP3 PUSH2 0x36E JUMP JUMPDEST PUSH1 0x1 DUP2 ADD SWAP1 POP PUSH2 0x387 JUMP JUMPDEST POP POP JUMP JUMPDEST PUSH1 0x1F DUP3 GT ISZERO PUSH2 0x3E9 JUMPI PUSH2 0x3BA DUP2 PUSH2 0x294 JUMP JUMPDEST PUSH2 0x3C3 DUP5 PUSH2 0x2A6 JUMP JUMPDEST DUP2 ADD PUSH1 0x20 DUP6 LT ISZERO PUSH2 0x3D2 JUMPI DUP2 SWAP1 POP JUMPDEST PUSH2 0x3E6 PUSH2 0x3DE DUP6 PUSH2 0x2A6 JUMP JUMPDEST DUP4 ADD DUP3 PUSH2 0x386 JUMP JUMPDEST POP POP JUMPDEST POP POP POP JUMP JUMPDEST PUSH0 DUP3 DUP3 SHR SWAP1 POP SWAP3 SWAP2 POP POP JUMP JUMPDEST PUSH0 PUSH2 0x409 PUSH0 NOT DUP5 PUSH1 0x8 MUL PUSH2 0x3EE JUMP JUMPDEST NOT DUP1 DUP4 AND SWAP2 POP POP SWAP3 SWAP2 POP POP JUMP JUMPDEST PUSH0 PUSH2 0x421 DUP4 DUP4 PUSH2 0x3FA JUMP JUMPDEST SWAP2 POP DUP3 PUSH1 0x2 MUL DUP3 OR SWAP1 POP SWAP3 SWAP2 POP POP JUMP JUMPDEST PUSH2 0x43A DUP3 PUSH2 0x22D JUMP JUMPDEST PUSH8 0xFFFFFFFFFFFFFFFF DUP2 GT ISZERO PUSH2 0x453 JUMPI PUSH2 0x452 PUSH2 0x7C JUMP JUMPDEST JUMPDEST PUSH2 0x45D DUP3 SLOAD PUSH2 0x264 JUMP JUMPDEST PUSH2 0x468 DUP3 DUP3 DUP6 PUSH2 0x3A8 JUMP JUMPDEST PUSH0 PUSH1 0x20 SWAP1 POP PUSH1 0x1F DUP4 GT PUSH1 0x1 DUP2 EQ PUSH2 0x499 JUMPI PUSH0 DUP5 ISZERO PUSH2 0x487 JUMPI DUP3 DUP8 ADD MLOAD SWAP1 POP JUMPDEST PUSH2 0x491 DUP6 DUP3 PUSH2 0x416 JUMP JUMPDEST DUP7 SSTORE POP PUSH2 0x4F8 JUMP JUMPDEST PUSH1 0x1F NOT DUP5 AND PUSH2 0x4A7 DUP7 PUSH2 0x294 JUMP JUMPDEST PUSH0 JUMPDEST DUP3 DUP2 LT ISZERO PUSH2 0x4CE JUMPI DUP5 DUP10 ADD MLOAD DUP3 SSTORE PUSH1 0x1 DUP3 ADD SWAP2 POP PUSH1 0x20 DUP6 ADD SWAP5 POP PUSH1 0x20 DUP2 ADD SWAP1 POP PUSH2 0x4A9 JUMP JUMPDEST DUP7 DUP4 LT ISZERO PUSH2 0x4EB JUMPI DUP5 DUP10 ADD MLOAD PUSH2 0x4E7 PUSH1 0x1F DUP10 AND DUP3 PUSH2 0x3FA JUMP JUMPDEST DUP4 SSTORE POP JUMPDEST PUSH1 0x1 PUSH1 0x2 DUP9 MUL ADD DUP9 SSTORE POP POP POP JUMPDEST POP POP POP POP POP POP JUMP JUMPDEST PUSH2 0x1692 DUP1 PUSH2 0x50D PUSH0 CODECOPY PUSH0 RETURN INVALID PUSH1 0x80 PUSH1 0x40 MSTORE CALLVALUE DUP1 ISZERO PUSH2 0xF JUMPI PUSH0 DUP1 REVERT JUMPDEST POP PUSH1 0x4 CALLDATASIZE LT PUSH2 0x91 JUMPI PUSH0 CALLDATALOAD PUSH1 0xE0 SHR DUP1 PUSH4 0xA6C807A9 GT PUSH2 0x64 JUMPI DUP1 PUSH4 0xA6C807A9 EQ PUSH2 0x11D JUMPI DUP1 PUSH4 0xB74B70A1 EQ PUSH2 0x14D JUMPI DUP1 PUSH4 0xC763E5A1 EQ PUSH2 0x16B JUMPI DUP1 PUSH4 0xE9B42033 EQ PUSH2 0x189 JUMPI DUP1 PUSH4 0xED32A8A1 EQ PUSH2 0x1A5 JUMPI PUSH2 0x91 JUMP JUMPDEST DUP1 PUSH4 0x2B74AD75 EQ PUSH2 0x95 JUMPI DUP1 PUSH4 0x3ABBED8C EQ PUSH2 0xB1 JUMPI DUP1 PUSH4 0x5283CE5F EQ PUSH2 0xCF JUMPI DUP1 PUSH4 0x7DF221E9 EQ PUSH2 0xED JUMPI JUMPDEST PUSH0 DUP1 REVERT JUMPDEST PUSH2 0xAF PUSH1 0x4 DUP1 CALLDATASIZE SUB DUP2 ADD SWAP1 PUSH2 0xAA SWAP2 SWAP1 PUSH2 0x529 JUMP JUMPDEST PUSH2 0x1C1 JUMP JUMPDEST STOP JUMPDEST PUSH2 0xB9 PUSH2 0x230 JUMP JUMPDEST PUSH1 0x40 MLOAD PUSH2 0xC6 SWAP2 SWAP1 PUSH2 0x576 JUMP JUMPDEST PUSH1 0x40 MLOAD DUP1 SWAP2 SUB SWAP1 RETURN JUMPDEST PUSH2 0xD7 PUSH2 0x236 JUMP JUMPDEST PUSH1 0x40 MLOAD PUSH2 0xE4 SWAP2 SWAP1 PUSH2 0x5FF JUMP JUMPDEST PUSH1 0x40 MLOAD DUP1 SWAP2 SUB SWAP1 RETURN JUMPDEST PUSH2 0x107 PUSH1 0x4 DUP1 CALLDATASIZE SUB DUP2 ADD SWAP1 PUSH2 0x102 SWAP2 SWAP1 PUSH2 0x61F JUMP JUMPDEST PUSH2 0x2C2 JUMP JUMPDEST PUSH1 0x40 MLOAD PUSH2 0x114 SWAP2 SWAP1 PUSH2 0x659 JUMP JUMPDEST PUSH1 0x40 MLOAD DUP1 SWAP2 SUB SWAP1 RETURN JUMPDEST PUSH2 0x137 PUSH1 0x4 DUP1 CALLDATASIZE SUB DUP2 ADD SWAP1 PUSH2 0x132 SWAP2 SWAP1 PUSH2 0x672 JUMP JUMPDEST PUSH2 0x2FD JUMP JUMPDEST PUSH1 0x40 MLOAD PUSH2 0x144 SWAP2 SWAP1 PUSH2 0x6F8 JUMP JUMPDEST PUSH1 0x40 MLOAD DUP1 SWAP2 SUB SWAP1 RETURN JUMPDEST PUSH2 0x155 PUSH2 0x32D JUMP JUMPDEST PUSH1 0x40 MLOAD PUSH2 0x162 SWAP2 SWAP1 PUSH2 0x576 JUMP JUMPDEST PUSH1 0x40 MLOAD DUP1 SWAP2 SUB SWAP1 RETURN JUMPDEST PUSH2 0x173 PUSH2 0x333 JUMP JUMPDEST PUSH1 0x40 MLOAD PUSH2 0x180 SWAP2 SWAP1 PUSH2 0x731 JUMP JUMPDEST PUSH1 0x40 MLOAD DUP1 SWAP2 SUB SWAP1 RETURN JUMPDEST PUSH2 0x1A3 PUSH1 0x4 DUP1 CALLDATASIZE SUB DUP2 ADD SWAP1 PUSH2 0x19E SWAP2 SWAP1 PUSH2 0x529 JUMP JUMPDEST PUSH2 0x356 JUMP JUMPDEST STOP JUMPDEST PUSH2 0x1BF PUSH1 0x4 DUP1 CALLDATASIZE SUB DUP2 ADD SWAP1 PUSH2 0x1BA SWAP2 SWAP1 PUSH2 0x876 JUMP JUMPDEST PUSH2 0x3C5 JUMP JUMPDEST STOP JUMPDEST PUSH0 DUP3 SWAP1 POP DUP1 PUSH20 0xFFFFFFFFFFFFFFFFFFFFFFFFFFFFFFFFFFFFFFFF AND PUSH4 0x2AEA58B2 DUP4 PUSH1 0x40 MLOAD DUP3 PUSH4 0xFFFFFFFF AND PUSH1 0xE0 SHL DUP2 MSTORE PUSH1 0x4 ADD PUSH2 0x1FE SWAP2 SWAP1 PUSH2 0x576 JUMP JUMPDEST PUSH0 PUSH1 0x40 MLOAD DUP1 DUP4 SUB DUP2 PUSH0 DUP8 DUP1 EXTCODESIZE ISZERO DUP1 ISZERO PUSH2 0x215 JUMPI PUSH0 DUP1 REVERT JUMPDEST POP GAS CALL ISZERO DUP1 ISZERO PUSH2 0x227 JUMPI RETURNDATASIZE PUSH0 DUP1 RETURNDATACOPY RETURNDATASIZE PUSH0 REVERT JUMPDEST POP POP POP POP POP POP POP JUMP JUMPDEST PUSH1 0x2 SLOAD DUP2 JUMP JUMPDEST PUSH1 0x1 DUP1 SLOAD PUSH2 0x243 SWAP1 PUSH2 0x92B JUMP JUMPDEST DUP1 PUSH1 0x1F ADD PUSH1 0x20 DUP1 SWAP2 DIV MUL PUSH1 0x20 ADD PUSH1 0x40 MLOAD SWAP1 DUP2 ADD PUSH1 0x40 MSTORE DUP1 SWAP3 SWAP2 SWAP1 DUP2 DUP2 MSTORE PUSH1 0x20 ADD DUP3 DUP1 SLOAD PUSH2 0x26F SWAP1 PUSH2 0x92B JUMP JUMPDEST DUP1 ISZERO PUSH2 0x2BA JUMPI DUP1 PUSH1 0x1F LT PUSH2 0x291 JUMPI PUSH2 0x100 DUP1 DUP4 SLOAD DIV MUL DUP4 MSTORE SWAP2 PUSH1 0x20 ADD SWAP2 PUSH2 0x2BA JUMP JUMPDEST DUP3 ADD SWAP2 SWAP1 PUSH0 MSTORE PUSH1 0x20 PUSH0 KECCAK256 SWAP1 JUMPDEST DUP2 SLOAD DUP2 MSTORE SWAP1 PUSH1 0x1 ADD SWAP1 PUSH1 0x20 ADD DUP1 DUP4 GT PUSH2 0x29D JUMPI DUP3 SWAP1 SUB PUSH1 0x1F AND DUP3 ADD SWAP2 JUMPDEST POP POP POP POP POP DUP2 JUMP JUMPDEST PUSH1 0x3 DUP2 DUP2 SLOAD DUP2 LT PUSH2 0x2D1 JUMPI PUSH0 DUP1 REVERT JUMPDEST SWAP1 PUSH0 MSTORE PUSH1 0x20 PUSH0 KECCAK256 ADD PUSH0 SWAP2 POP SLOAD SWAP1 PUSH2 0x100 EXP SWAP1 DIV PUSH20 0xFFFFFFFFFFFFFFFFFFFFFFFFFFFFFFFFFFFFFFFF AND DUP2 JUMP JUMPDEST PUSH1 0x4 PUSH1 0x20 MSTORE DUP1 PUSH0 MSTORE PUSH1 0x40 PUSH0 KECCAK256 PUSH0 SWAP2 POP SLOAD SWAP1 PUSH2 0x100 EXP SWAP1 DIV PUSH20 0xFFFFFFFFFFFFFFFFFFFFFFFFFFFFFFFFFFFFFFFF AND DUP2 JUMP JUMPDEST PUSH1 0x5 SLOAD DUP2 JUMP JUMPDEST PUSH0 DUP1 SLOAD SWAP1 PUSH2 0x100 EXP SWAP1 DIV PUSH20 0xFFFFFFFFFFFFFFFFFFFFFFFFFFFFFFFFFFFFFFFF AND DUP2 JUMP JUMPDEST PUSH0 DUP3 SWAP1 POP DUP1 PUSH20 0xFFFFFFFFFFFFFFFFFFFFFFFFFFFFFFFFFFFFFFFF AND PUSH4 0xD24CC4A9 DUP4 PUSH1 0x40 MLOAD DUP3 PUSH4 0xFFFFFFFF AND PUSH1 0xE0 SHL DUP2 MSTORE PUSH1 0x4 ADD PUSH2 0x393 SWAP2 SWAP1 PUSH2 0x576 JUMP JUMPDEST PUSH0 PUSH1 0x40 MLOAD DUP1 DUP4 SUB DUP2 PUSH0 DUP8 DUP1 EXTCODESIZE ISZERO DUP1 ISZERO PUSH2 0x3AA JUMPI PUSH0 DUP1 REVERT JUMPDEST POP GAS CALL ISZERO DUP1 ISZERO PUSH2 0x3BC JUMPI RETURNDATASIZE PUSH0 DUP1 RETURNDATACOPY RETURNDATASIZE PUSH0 REVERT JUMPDEST POP POP POP POP POP POP POP JUMP JUMPDEST PUSH1 0x5 PUSH0 DUP2 SLOAD DUP1 SWAP3 SWAP2 SWAP1 PUSH2 0x3D7 SWAP1 PUSH2 0x988 JUMP JUMPDEST SWAP2 SWAP1 POP SSTORE POP PUSH0 DUP4 DUP4 DUP4 PUSH1 0x5 SLOAD PUSH1 0x40 MLOAD PUSH2 0x3EF SWAP1 PUSH2 0x47E JUMP JUMPDEST PUSH2 0x3FC SWAP5 SWAP4 SWAP3 SWAP2 SWAP1 PUSH2 0x9CF JUMP JUMPDEST PUSH1 0x40 MLOAD DUP1 SWAP2 SUB SWAP1 PUSH0 CREATE DUP1 ISZERO DUP1 ISZERO PUSH2 0x415 JUMPI RETURNDATASIZE PUSH0 DUP1 RETURNDATACOPY RETURNDATASIZE PUSH0 REVERT JUMPDEST POP SWAP1 POP PUSH1 0x3 DUP2 SWAP1 DUP1 PUSH1 0x1 DUP2 SLOAD ADD DUP1 DUP3 SSTORE DUP1 SWAP2 POP POP PUSH1 0x1 SWAP1 SUB SWAP1 PUSH0 MSTORE PUSH1 0x20 PUSH0 KECCAK256 ADD PUSH0 SWAP1 SWAP2 SWAP1 SWAP2 SWAP1 SWAP2 PUSH2 0x100 EXP DUP2 SLOAD DUP2 PUSH20 0xFFFFFFFFFFFFFFFFFFFFFFFFFFFFFFFFFFFFFFFF MUL NOT AND SWAP1 DUP4 PUSH20 0xFFFFFFFFFFFFFFFFFFFFFFFFFFFFFFFFFFFFFFFF AND MUL OR SWAP1 SSTORE POP POP POP POP POP JUMP JUMPDEST PUSH2 0xC3C DUP1 PUSH2 0xA21 DUP4 CODECOPY ADD SWAP1 JUMP JUMPDEST PUSH0 PUSH1 0x40 MLOAD SWAP1 POP SWAP1 JUMP JUMPDEST PUSH0 DUP1 REVERT JUMPDEST PUSH0 DUP1 REVERT JUMPDEST PUSH0 PUSH20 0xFFFFFFFFFFFFFFFFFFFFFFFFFFFFFFFFFFFFFFFF DUP3 AND SWAP1 POP SWAP2 SWAP1 POP JUMP JUMPDEST PUSH0 PUSH2 0x4C5 DUP3 PUSH2 0x49C JUMP JUMPDEST SWAP1 POP SWAP2 SWAP1 POP JUMP JUMPDEST PUSH2 0x4D5 DUP2 PUSH2 0x4BB JUMP JUMPDEST DUP2 EQ PUSH2 0x4DF JUMPI PUSH0 DUP1 REVERT JUMPDEST POP JUMP JUMPDEST PUSH0 DUP2 CALLDATALOAD SWAP1 POP PUSH2 0x4F0 DUP2 PUSH2 0x4CC JUMP JUMPDEST SWAP3 SWAP2 POP POP JUMP JUMPDEST PUSH0 DUP2 SWAP1 POP SWAP2 SWAP1 POP JUMP JUMPDEST PUSH2 0x508 DUP2 PUSH2 0x4F6 JUMP JUMPDEST DUP2 EQ PUSH2 0x512 JUMPI PUSH0 DUP1 REVERT JUMPDEST POP JUMP JUMPDEST PUSH0 DUP2 CALLDATALOAD SWAP1 POP PUSH2 0x523 DUP2 PUSH2 0x4FF JUMP JUMPDEST SWAP3 SWAP2 POP POP JUMP JUMPDEST PUSH0 DUP1 PUSH1 0x40 DUP4 DUP6 SUB SLT ISZERO PUSH2 0x53F JUMPI PUSH2 0x53E PUSH2 0x494 JUMP JUMPDEST JUMPDEST PUSH0 PUSH2 0x54C DUP6 DUP3 DUP7 ADD PUSH2 0x4E2 JUMP JUMPDEST SWAP3 POP POP PUSH1 0x20 PUSH2 0x55D DUP6 DUP3 DUP7 ADD PUSH2 0x515 JUMP JUMPDEST SWAP2 POP POP SWAP3 POP SWAP3 SWAP1 POP JUMP JUMPDEST PUSH2 0x570 DUP2 PUSH2 0x4F6 JUMP JUMPDEST DUP3 MSTORE POP POP JUMP JUMPDEST PUSH0 PUSH1 0x20 DUP3 ADD SWAP1 POP PUSH2 0x589 PUSH0 DUP4 ADD DUP5 PUSH2 0x567 JUMP JUMPDEST SWAP3 SWAP2 POP POP JUMP JUMPDEST PUSH0 DUP2 MLOAD SWAP1 POP SWAP2 SWAP1 POP JUMP JUMPDEST PUSH0 DUP3 DUP3 MSTORE PUSH1 0x20 DUP3 ADD SWAP1 POP SWAP3 SWAP2 POP POP JUMP JUMPDEST DUP3 DUP2 DUP4 MCOPY PUSH0 DUP4 DUP4 ADD MSTORE POP POP POP JUMP JUMPDEST PUSH0 PUSH1 0x1F NOT PUSH1 0x1F DUP4 ADD AND SWAP1 POP SWAP2 SWAP1 POP JUMP JUMPDEST PUSH0 PUSH2 0x5D1 DUP3 PUSH2 0x58F JUMP JUMPDEST PUSH2 0x5DB DUP2 DUP6 PUSH2 0x599 JUMP JUMPDEST SWAP4 POP PUSH2 0x5EB DUP2 DUP6 PUSH1 0x20 DUP7 ADD PUSH2 0x5A9 JUMP JUMPDEST PUSH2 0x5F4 DUP2 PUSH2 0x5B7 JUMP JUMPDEST DUP5 ADD SWAP2 POP POP SWAP3 SWAP2 POP POP JUMP JUMPDEST PUSH0 PUSH1 0x20 DUP3 ADD SWAP1 POP DUP2 DUP2 SUB PUSH0 DUP4 ADD MSTORE PUSH2 0x617 DUP2 DUP5 PUSH2 0x5C7 JUMP JUMPDEST SWAP1 POP SWAP3 SWAP2 POP POP JUMP JUMPDEST PUSH0 PUSH1 0x20 DUP3 DUP5 SUB SLT ISZERO PUSH2 0x634 JUMPI PUSH2 0x633 PUSH2 0x494 JUMP JUMPDEST JUMPDEST PUSH0 PUSH2 0x641 DUP5 DUP3 DUP6 ADD PUSH2 0x515 JUMP JUMPDEST SWAP2 POP POP SWAP3 SWAP2 POP POP JUMP JUMPDEST PUSH2 0x653 DUP2 PUSH2 0x4BB JUMP JUMPDEST DUP3 MSTORE POP POP JUMP JUMPDEST PUSH0 PUSH1 0x20 DUP3 ADD SWAP1 POP PUSH2 0x66C PUSH0 DUP4 ADD DUP5 PUSH2 0x64A JUMP JUMPDEST SWAP3 SWAP2 POP POP JUMP JUMPDEST PUSH0 PUSH1 0x20 DUP3 DUP5 SUB SLT ISZERO PUSH2 0x687 JUMPI PUSH2 0x686 PUSH2 0x494 JUMP JUMPDEST JUMPDEST PUSH0 PUSH2 0x694 DUP5 DUP3 DUP6 ADD PUSH2 0x4E2 JUMP JUMPDEST SWAP2 POP POP SWAP3 SWAP2 POP POP JUMP JUMPDEST PUSH0 DUP2 SWAP1 POP SWAP2 SWAP1 POP JUMP JUMPDEST PUSH0 PUSH2 0x6C0 PUSH2 0x6BB PUSH2 0x6B6 DUP5 PUSH2 0x49C JUMP JUMPDEST PUSH2 0x69D JUMP JUMPDEST PUSH2 0x49C JUMP JUMPDEST SWAP1 POP SWAP2 SWAP1 POP JUMP JUMPDEST PUSH0 PUSH2 0x6D1 DUP3 PUSH2 0x6A6 JUMP JUMPDEST SWAP1 POP SWAP2 SWAP1 POP JUMP JUMPDEST PUSH0 PUSH2 0x6E2 DUP3 PUSH2 0x6C7 JUMP JUMPDEST SWAP1 POP SWAP2 SWAP1 POP JUMP JUMPDEST PUSH2 0x6F2 DUP2 PUSH2 0x6D8 JUMP JUMPDEST DUP3 MSTORE POP POP JUMP JUMPDEST PUSH0 PUSH1 0x20 DUP3 ADD SWAP1 POP PUSH2 0x70B PUSH0 DUP4 ADD DUP5 PUSH2 0x6E9 JUMP JUMPDEST SWAP3 SWAP2 POP POP JUMP JUMPDEST PUSH0 PUSH2 0x71B DUP3 PUSH2 0x6C7 JUMP JUMPDEST SWAP1 POP SWAP2 SWAP1 POP JUMP JUMPDEST PUSH2 0x72B DUP2 PUSH2 0x711 JUMP JUMPDEST DUP3 MSTORE POP POP JUMP JUMPDEST PUSH0 PUSH1 0x20 DUP3 ADD SWAP1 POP PUSH2 0x744 PUSH0 DUP4 ADD DUP5 PUSH2 0x722 JUMP JUMPDEST SWAP3 SWAP2 POP POP JUMP JUMPDEST PUSH0 DUP1 REVERT JUMPDEST PUSH0 DUP1 REVERT JUMPDEST PUSH32 0x4E487B7100000000000000000000000000000000000000000000000000000000 PUSH0 MSTORE PUSH1 0x41 PUSH1 0x4 MSTORE PUSH1 0x24 PUSH0 REVERT JUMPDEST PUSH2 0x788 DUP3 PUSH2 0x5B7 JUMP JUMPDEST DUP2 ADD DUP2 DUP2 LT PUSH8 0xFFFFFFFFFFFFFFFF DUP3 GT OR ISZERO PUSH2 0x7A7 JUMPI PUSH2 0x7A6 PUSH2 0x752 JUMP JUMPDEST JUMPDEST DUP1 PUSH1 0x40 MSTORE POP POP POP JUMP JUMPDEST PUSH0 PUSH2 0x7B9 PUSH2 0x48B JUMP JUMPDEST SWAP1 POP PUSH2 0x7C5 DUP3 DUP3 PUSH2 0x77F JUMP JUMPDEST SWAP2 SWAP1 POP JUMP JUMPDEST PUSH0 PUSH8 0xFFFFFFFFFFFFFFFF DUP3 GT ISZERO PUSH2 0x7E4 JUMPI PUSH2 0x7E3 PUSH2 0x752 JUMP JUMPDEST JUMPDEST PUSH2 0x7ED DUP3 PUSH2 0x5B7 JUMP JUMPDEST SWAP1 POP PUSH1 0x20 DUP2 ADD SWAP1 POP SWAP2 SWAP1 POP JUMP JUMPDEST DUP3 DUP2 DUP4 CALLDATACOPY PUSH0 DUP4 DUP4 ADD MSTORE POP POP POP JUMP JUMPDEST PUSH0 PUSH2 0x81A PUSH2 0x815 DUP5 PUSH2 0x7CA JUMP JUMPDEST PUSH2 0x7B0 JUMP JUMPDEST SWAP1 POP DUP3 DUP2 MSTORE PUSH1 0x20 DUP2 ADD DUP5 DUP5 DUP5 ADD GT ISZERO PUSH2 0x836 JUMPI PUSH2 0x835 PUSH2 0x74E JUMP JUMPDEST JUMPDEST PUSH2 0x841 DUP5 DUP3 DUP6 PUSH2 0x7FA JUMP JUMPDEST POP SWAP4 SWAP3 POP POP POP JUMP JUMPDEST PUSH0 DUP3 PUSH1 0x1F DUP4 ADD SLT PUSH2 0x85D JUMPI PUSH2 0x85C PUSH2 0x74A JUMP JUMPDEST JUMPDEST DUP2 CALLDATALOAD PUSH2 0x86D DUP5 DUP3 PUSH1 0x20 DUP7 ADD PUSH2 0x808 JUMP JUMPDEST SWAP2 POP POP SWAP3 SWAP2 POP POP JUMP JUMPDEST PUSH0 DUP1 PUSH0 PUSH1 0x60 DUP5 DUP7 SUB SLT ISZERO PUSH2 0x88D JUMPI PUSH2 0x88C PUSH2 0x494 JUMP JUMPDEST JUMPDEST PUSH0 DUP5 ADD CALLDATALOAD PUSH8 0xFFFFFFFFFFFFFFFF DUP2 GT ISZERO PUSH2 0x8AA JUMPI PUSH2 0x8A9 PUSH2 0x498 JUMP JUMPDEST JUMPDEST PUSH2 0x8B6 DUP7 DUP3 DUP8 ADD PUSH2 0x849 JUMP JUMPDEST SWAP4 POP POP PUSH1 0x20 PUSH2 0x8C7 DUP7 DUP3 DUP8 ADD PUSH2 0x515 JUMP JUMPDEST SWAP3 POP POP PUSH1 0x40 DUP5 ADD CALLDATALOAD PUSH8 0xFFFFFFFFFFFFFFFF DUP2 GT ISZERO PUSH2 0x8E8 JUMPI PUSH2 0x8E7 PUSH2 0x498 JUMP JUMPDEST JUMPDEST PUSH2 0x8F4 DUP7 DUP3 DUP8 ADD PUSH2 0x849 JUMP JUMPDEST SWAP2 POP POP SWAP3 POP SWAP3 POP SWAP3 JUMP JUMPDEST PUSH32 0x4E487B7100000000000000000000000000000000000000000000000000000000 PUSH0 MSTORE PUSH1 0x22 PUSH1 0x4 MSTORE PUSH1 0x24 PUSH0 REVERT JUMPDEST PUSH0 PUSH1 0x2 DUP3 DIV SWAP1 POP PUSH1 0x1 DUP3 AND DUP1 PUSH2 0x942 JUMPI PUSH1 0x7F DUP3 AND SWAP2 POP JUMPDEST PUSH1 0x20 DUP3 LT DUP2 SUB PUSH2 0x955 JUMPI PUSH2 0x954 PUSH2 0x8FE JUMP JUMPDEST JUMPDEST POP SWAP2 SWAP1 POP JUMP JUMPDEST PUSH32 0x4E487B7100000000000000000000000000000000000000000000000000000000 PUSH0 MSTORE PUSH1 0x11 PUSH1 0x4 MSTORE PUSH1 0x24 PUSH0 REVERT JUMPDEST PUSH0 PUSH2 0x992 DUP3 PUSH2 0x4F6 JUMP JUMPDEST SWAP2 POP PUSH32 0xFFFFFFFFFFFFFFFFFFFFFFFFFFFFFFFFFFFFFFFFFFFFFFFFFFFFFFFFFFFFFFFF DUP3 SUB PUSH2 0x9C4 JUMPI PUSH2 0x9C3 PUSH2 0x95B JUMP JUMPDEST JUMPDEST PUSH1 0x1 DUP3 ADD SWAP1 POP SWAP2 SWAP1 POP JUMP JUMPDEST PUSH0 PUSH1 0x80 DUP3 ADD SWAP1 POP DUP2 DUP2 SUB PUSH0 DUP4 ADD MSTORE PUSH2 0x9E7 DUP2 DUP8 PUSH2 0x5C7 JUMP JUMPDEST SWAP1 POP PUSH2 0x9F6 PUSH1 0x20 DUP4 ADD DUP7 PUSH2 0x567 JUMP JUMPDEST DUP2 DUP2 SUB PUSH1 0x40 DUP4 ADD MSTORE PUSH2 0xA08 DUP2 DUP6 PUSH2 0x5C7 JUMP JUMPDEST SWAP1 POP PUSH2 0xA17 PUSH1 0x60 DUP4 ADD DUP5 PUSH2 0x567 JUMP JUMPDEST SWAP6 SWAP5 POP POP POP POP POP JUMP INVALID PUSH1 0x80 PUSH1 0x40 MSTORE PUSH0 PUSH1 0x4 SSTORE PUSH0 PUSH1 0x5 SSTORE CALLVALUE DUP1 ISZERO PUSH2 0x17 JUMPI PUSH0 DUP1 REVERT JUMPDEST POP PUSH1 0x40 MLOAD PUSH2 0xC3C CODESIZE SUB DUP1 PUSH2 0xC3C DUP4 CODECOPY DUP2 DUP2 ADD PUSH1 0x40 MSTORE DUP2 ADD SWAP1 PUSH2 0x39 SWAP2 SWAP1 PUSH2 0x1EF JUMP JUMPDEST DUP4 PUSH0 SWAP1 DUP2 PUSH2 0x47 SWAP2 SWAP1 PUSH2 0x48F JUMP JUMPDEST POP DUP3 PUSH1 0x1 DUP2 SWAP1 SSTORE POP DUP2 PUSH1 0x2 SWAP1 DUP2 PUSH2 0x5E SWAP2 SWAP1 PUSH2 0x48F JUMP JUMPDEST POP DUP1 PUSH1 0x3 DUP2 SWAP1 SSTORE POP POP POP POP POP PUSH2 0x55E JUMP JUMPDEST PUSH0 PUSH1 0x40 MLOAD SWAP1 POP SWAP1 JUMP JUMPDEST PUSH0 DUP1 REVERT JUMPDEST PUSH0 DUP1 REVERT JUMPDEST PUSH0 DUP1 REVERT JUMPDEST PUSH0 DUP1 REVERT JUMPDEST PUSH0 PUSH1 0x1F NOT PUSH1 0x1F DUP4 ADD AND SWAP1 POP SWAP2 SWAP1 POP JUMP JUMPDEST PUSH32 0x4E487B7100000000000000000000000000000000000000000000000000000000 PUSH0 MSTORE PUSH1 0x41 PUSH1 0x4 MSTORE PUSH1 0x24 PUSH0 REVERT JUMPDEST PUSH2 0xCE DUP3 PUSH2 0x88 JUMP JUMPDEST DUP2 ADD DUP2 DUP2 LT PUSH8 0xFFFFFFFFFFFFFFFF DUP3 GT OR ISZERO PUSH2 0xED JUMPI PUSH2 0xEC PUSH2 0x98 JUMP JUMPDEST JUMPDEST DUP1 PUSH1 0x40 MSTORE POP POP POP JUMP JUMPDEST PUSH0 PUSH2 0xFF PUSH2 0x6F JUMP JUMPDEST SWAP1 POP PUSH2 0x10B DUP3 DUP3 PUSH2 0xC5 JUMP JUMPDEST SWAP2 SWAP1 POP JUMP JUMPDEST PUSH0 PUSH8 0xFFFFFFFFFFFFFFFF DUP3 GT ISZERO PUSH2 0x12A JUMPI PUSH2 0x129 PUSH2 0x98 JUMP JUMPDEST JUMPDEST PUSH2 0x133 DUP3 PUSH2 0x88 JUMP JUMPDEST SWAP1 POP PUSH1 0x20 DUP2 ADD SWAP1 POP SWAP2 SWAP1 POP JUMP JUMPDEST DUP3 DUP2 DUP4 MCOPY PUSH0 DUP4 DUP4 ADD MSTORE POP POP POP JUMP JUMPDEST PUSH0 PUSH2 0x160 PUSH2 0x15B DUP5 PUSH2 0x110 JUMP JUMPDEST PUSH2 0xF6 JUMP JUMPDEST SWAP1 POP DUP3 DUP2 MSTORE PUSH1 0x20 DUP2 ADD DUP5 DUP5 DUP5 ADD GT ISZERO PUSH2 0x17C JUMPI PUSH2 0x17B PUSH2 0x84 JUMP JUMPDEST JUMPDEST PUSH2 0x187 DUP5 DUP3 DUP6 PUSH2 0x140 JUMP JUMPDEST POP SWAP4 SWAP3 POP POP POP JUMP JUMPDEST PUSH0 DUP3 PUSH1 0x1F DUP4 ADD SLT PUSH2 0x1A3 JUMPI PUSH2 0x1A2 PUSH2 0x80 JUMP JUMPDEST JUMPDEST DUP2 MLOAD PUSH2 0x1B3 DUP5 DUP3 PUSH1 0x20 DUP7 ADD PUSH2 0x14E JUMP JUMPDEST SWAP2 POP POP SWAP3 SWAP2 POP POP JUMP JUMPDEST PUSH0 DUP2 SWAP1 POP SWAP2 SWAP1 POP JUMP JUMPDEST PUSH2 0x1CE DUP2 PUSH2 0x1BC JUMP JUMPDEST DUP2 EQ PUSH2 0x1D8 JUMPI PUSH0 DUP1 REVERT JUMPDEST POP JUMP JUMPDEST PUSH0 DUP2 MLOAD SWAP1 POP PUSH2 0x1E9 DUP2 PUSH2 0x1C5 JUMP JUMPDEST SWAP3 SWAP2 POP POP JUMP JUMPDEST PUSH0 DUP1 PUSH0 DUP1 PUSH1 0x80 DUP6 DUP8 SUB SLT ISZERO PUSH2 0x207 JUMPI PUSH2 0x206 PUSH2 0x78 JUMP JUMPDEST JUMPDEST PUSH0 DUP6 ADD MLOAD PUSH8 0xFFFFFFFFFFFFFFFF DUP2 GT ISZERO PUSH2 0x224 JUMPI PUSH2 0x223 PUSH2 0x7C JUMP JUMPDEST JUMPDEST PUSH2 0x230 DUP8 DUP3 DUP9 ADD PUSH2 0x18F JUMP JUMPDEST SWAP5 POP POP PUSH1 0x20 PUSH2 0x241 DUP8 DUP3 DUP9 ADD PUSH2 0x1DB JUMP JUMPDEST SWAP4 POP POP PUSH1 0x40 DUP6 ADD MLOAD PUSH8 0xFFFFFFFFFFFFFFFF DUP2 GT ISZERO PUSH2 0x262 JUMPI PUSH2 0x261 PUSH2 0x7C JUMP JUMPDEST JUMPDEST PUSH2 0x26E DUP8 DUP3 DUP9 ADD PUSH2 0x18F JUMP JUMPDEST SWAP3 POP POP PUSH1 0x60 PUSH2 0x27F DUP8 DUP3 DUP9 ADD PUSH2 0x1DB JUMP JUMPDEST SWAP2 POP POP SWAP3 SWAP6 SWAP2 SWAP5 POP SWAP3 POP JUMP JUMPDEST PUSH0 DUP2 MLOAD SWAP1 POP SWAP2 SWAP1 POP JUMP JUMPDEST PUSH32 0x4E487B7100000000000000000000000000000000000000000000000000000000 PUSH0 MSTORE PUSH1 0x22 PUSH1 0x4 MSTORE PUSH1 0x24 PUSH0 REVERT JUMPDEST PUSH0 PUSH1 0x2 DUP3 DIV SWAP1 POP PUSH1 0x1 DUP3 AND DUP1 PUSH2 0x2D9 JUMPI PUSH1 0x7F DUP3 AND SWAP2 POP JUMPDEST PUSH1 0x20 DUP3 LT DUP2 SUB PUSH2 0x2EC JUMPI PUSH2 0x2EB PUSH2 0x295 JUMP JUMPDEST JUMPDEST POP SWAP2 SWAP1 POP JUMP JUMPDEST PUSH0 DUP2 SWAP1 POP DUP2 PUSH0 MSTORE PUSH1 0x20 PUSH0 KECCAK256 SWAP1 POP SWAP2 SWAP1 POP JUMP JUMPDEST PUSH0 PUSH1 0x20 PUSH1 0x1F DUP4 ADD DIV SWAP1 POP SWAP2 SWAP1 POP JUMP JUMPDEST PUSH0 DUP3 DUP3 SHL SWAP1 POP SWAP3 SWAP2 POP POP JUMP JUMPDEST PUSH0 PUSH1 0x8 DUP4 MUL PUSH2 0x34E PUSH32 0xFFFFFFFFFFFFFFFFFFFFFFFFFFFFFFFFFFFFFFFFFFFFFFFFFFFFFFFFFFFFFFFF DUP3 PUSH2 0x313 JUMP JUMPDEST PUSH2 0x358 DUP7 DUP4 PUSH2 0x313 JUMP JUMPDEST SWAP6 POP DUP1 NOT DUP5 AND SWAP4 POP DUP1 DUP7 AND DUP5 OR SWAP3 POP POP POP SWAP4 SWAP3 POP POP POP JUMP JUMPDEST PUSH0 DUP2 SWAP1 POP SWAP2 SWAP1 POP JUMP JUMPDEST PUSH0 PUSH2 0x393 PUSH2 0x38E PUSH2 0x389 DUP5 PUSH2 0x1BC JUMP JUMPDEST PUSH2 0x370 JUMP JUMPDEST PUSH2 0x1BC JUMP JUMPDEST SWAP1 POP SWAP2 SWAP1 POP JUMP JUMPDEST PUSH0 DUP2 SWAP1 POP SWAP2 SWAP1 POP JUMP JUMPDEST PUSH2 0x3AC DUP4 PUSH2 0x379 JUMP JUMPDEST PUSH2 0x3C0 PUSH2 0x3B8 DUP3 PUSH2 0x39A JUMP JUMPDEST DUP5 DUP5 SLOAD PUSH2 0x31F JUMP JUMPDEST DUP3 SSTORE POP POP POP POP JUMP JUMPDEST PUSH0 SWAP1 JUMP JUMPDEST PUSH2 0x3D4 PUSH2 0x3C8 JUMP JUMPDEST PUSH2 0x3DF DUP2 DUP5 DUP5 PUSH2 0x3A3 JUMP JUMPDEST POP POP POP JUMP JUMPDEST JUMPDEST DUP2 DUP2 LT ISZERO PUSH2 0x402 JUMPI PUSH2 0x3F7 PUSH0 DUP3 PUSH2 0x3CC JUMP JUMPDEST PUSH1 0x1 DUP2 ADD SWAP1 POP PUSH2 0x3E5 JUMP JUMPDEST POP POP JUMP JUMPDEST PUSH1 0x1F DUP3 GT ISZERO PUSH2 0x447 JUMPI PUSH2 0x418 DUP2 PUSH2 0x2F2 JUMP JUMPDEST PUSH2 0x421 DUP5 PUSH2 0x304 JUMP JUMPDEST DUP2 ADD PUSH1 0x20 DUP6 LT ISZERO PUSH2 0x430 JUMPI DUP2 SWAP1 POP JUMPDEST PUSH2 0x444 PUSH2 0x43C DUP6 PUSH2 0x304 JUMP JUMPDEST DUP4 ADD DUP3 PUSH2 0x3E4 JUMP JUMPDEST POP POP JUMPDEST POP POP POP JUMP JUMPDEST PUSH0 DUP3 DUP3 SHR SWAP1 POP SWAP3 SWAP2 POP POP JUMP JUMPDEST PUSH0 PUSH2 0x467 PUSH0 NOT DUP5 PUSH1 0x8 MUL PUSH2 0x44C JUMP JUMPDEST NOT DUP1 DUP4 AND SWAP2 POP POP SWAP3 SWAP2 POP POP JUMP JUMPDEST PUSH0 PUSH2 0x47F DUP4 DUP4 PUSH2 0x458 JUMP JUMPDEST SWAP2 POP DUP3 PUSH1 0x2 MUL DUP3 OR SWAP1 POP SWAP3 SWAP2 POP POP JUMP JUMPDEST PUSH2 0x498 DUP3 PUSH2 0x28B JUMP JUMPDEST PUSH8 0xFFFFFFFFFFFFFFFF DUP2 GT ISZERO PUSH2 0x4B1 JUMPI PUSH2 0x4B0 PUSH2 0x98 JUMP JUMPDEST JUMPDEST PUSH2 0x4BB DUP3 SLOAD PUSH2 0x2C2 JUMP JUMPDEST PUSH2 0x4C6 DUP3 DUP3 DUP6 PUSH2 0x406 JUMP JUMPDEST PUSH0 PUSH1 0x20 SWAP1 POP PUSH1 0x1F DUP4 GT PUSH1 0x1 DUP2 EQ PUSH2 0x4F7 JUMPI PUSH0 DUP5 ISZERO PUSH2 0x4E5 JUMPI DUP3 DUP8 ADD MLOAD SWAP1 POP JUMPDEST PUSH2 0x4EF DUP6 DUP3 PUSH2 0x474 JUMP JUMPDEST DUP7 SSTORE POP PUSH2 0x556 JUMP JUMPDEST PUSH1 0x1F NOT DUP5 AND PUSH2 0x505 DUP7 PUSH2 0x2F2 JUMP JUMPDEST PUSH0 JUMPDEST DUP3 DUP2 LT ISZERO PUSH2 0x52C JUMPI DUP5 DUP10 ADD MLOAD DUP3 SSTORE PUSH1 0x1 DUP3 ADD SWAP2 POP PUSH1 0x20 DUP6 ADD SWAP5 POP PUSH1 0x20 DUP2 ADD SWAP1 POP PUSH2 0x507 JUMP JUMPDEST DUP7 DUP4 LT ISZERO PUSH2 0x549 JUMPI DUP5 DUP10 ADD MLOAD PUSH2 0x545 PUSH1 0x1F DUP10 AND DUP3 PUSH2 0x458 JUMP JUMPDEST DUP4 SSTORE POP JUMPDEST PUSH1 0x1 PUSH1 0x2 DUP9 MUL ADD DUP9 SSTORE POP POP POP JUMPDEST POP POP POP POP POP POP JUMP JUMPDEST PUSH2 0x6D1 DUP1 PUSH2 0x56B PUSH0 CODECOPY PUSH0 RETURN INVALID PUSH1 0x80 PUSH1 0x40 MSTORE CALLVALUE DUP1 ISZERO PUSH2 0xF JUMPI PUSH0 DUP1 REVERT JUMPDEST POP PUSH1 0x4 CALLDATASIZE LT PUSH2 0x9C JUMPI PUSH0 CALLDATALOAD PUSH1 0xE0 SHR DUP1 PUSH4 0x5750653D GT PUSH2 0x64 JUMPI DUP1 PUSH4 0x5750653D EQ PUSH2 0x134 JUMPI DUP1 PUSH4 0x68852BC0 EQ PUSH2 0x152 JUMPI DUP1 PUSH4 0xBC658659 EQ PUSH2 0x170 JUMPI DUP1 PUSH4 0xD24CC4A9 EQ PUSH2 0x192 JUMPI DUP1 PUSH4 0xDE734F70 EQ PUSH2 0x1AE JUMPI PUSH2 0x9C JUMP JUMPDEST DUP1 PUSH4 0x6FDDE03 EQ PUSH2 0xA0 JUMPI DUP1 PUSH4 0xB50ECDE EQ PUSH2 0xBE JUMPI DUP1 PUSH4 0x19CF67CE EQ PUSH2 0xDC JUMPI DUP1 PUSH4 0x2AEA58B2 EQ PUSH2 0xFA JUMPI DUP1 PUSH4 0x4FCB113F EQ PUSH2 0x116 JUMPI JUMPDEST PUSH0 DUP1 REVERT JUMPDEST PUSH2 0xA8 PUSH2 0x1CC JUMP JUMPDEST PUSH1 0x40 MLOAD PUSH2 0xB5 SWAP2 SWAP1 PUSH2 0x4D5 JUMP JUMPDEST PUSH1 0x40 MLOAD DUP1 SWAP2 SUB SWAP1 RETURN JUMPDEST PUSH2 0xC6 PUSH2 0x257 JUMP JUMPDEST PUSH1 0x40 MLOAD PUSH2 0xD3 SWAP2 SWAP1 PUSH2 0x50D JUMP JUMPDEST PUSH1 0x40 MLOAD DUP1 SWAP2 SUB SWAP1 RETURN JUMPDEST PUSH2 0xE4 PUSH2 0x25D JUMP JUMPDEST PUSH1 0x40 MLOAD PUSH2 0xF1 SWAP2 SWAP1 PUSH2 0x50D JUMP JUMPDEST PUSH1 0x40 MLOAD DUP1 SWAP2 SUB SWAP1 RETURN JUMPDEST PUSH2 0x114 PUSH1 0x4 DUP1 CALLDATASIZE SUB DUP2 ADD SWAP1 PUSH2 0x10F SWAP2 SWAP1 PUSH2 0x554 JUMP JUMPDEST PUSH2 0x263 JUMP JUMPDEST STOP JUMPDEST PUSH2 0x11E PUSH2 0x27E JUMP JUMPDEST PUSH1 0x40 MLOAD PUSH2 0x12B SWAP2 SWAP1 PUSH2 0x50D JUMP JUMPDEST PUSH1 0x40 MLOAD DUP1 SWAP2 SUB SWAP1 RETURN JUMPDEST PUSH2 0x13C PUSH2 0x28C JUMP JUMPDEST PUSH1 0x40 MLOAD PUSH2 0x149 SWAP2 SWAP1 PUSH2 0x50D JUMP JUMPDEST PUSH1 0x40 MLOAD DUP1 SWAP2 SUB SWAP1 RETURN JUMPDEST PUSH2 0x15A PUSH2 0x292 JUMP JUMPDEST PUSH1 0x40 MLOAD PUSH2 0x167 SWAP2 SWAP1 PUSH2 0x4D5 JUMP JUMPDEST PUSH1 0x40 MLOAD DUP1 SWAP2 SUB SWAP1 RETURN JUMPDEST PUSH2 0x178 PUSH2 0x31E JUMP JUMPDEST PUSH1 0x40 MLOAD PUSH2 0x189 SWAP6 SWAP5 SWAP4 SWAP3 SWAP2 SWAP1 PUSH2 0x57F JUMP JUMPDEST PUSH1 0x40 MLOAD DUP1 SWAP2 SUB SWAP1 RETURN JUMPDEST PUSH2 0x1AC PUSH1 0x4 DUP1 CALLDATASIZE SUB DUP2 ADD SWAP1 PUSH2 0x1A7 SWAP2 SWAP1 PUSH2 0x554 JUMP JUMPDEST PUSH2 0x455 JUMP JUMPDEST STOP JUMPDEST PUSH2 0x1B6 PUSH2 0x45F JUMP JUMPDEST PUSH1 0x40 MLOAD PUSH2 0x1C3 SWAP2 SWAP1 PUSH2 0x50D JUMP JUMPDEST PUSH1 0x40 MLOAD DUP1 SWAP2 SUB SWAP1 RETURN JUMPDEST PUSH0 DUP1 SLOAD PUSH2 0x1D8 SWAP1 PUSH2 0x60B JUMP JUMPDEST DUP1 PUSH1 0x1F ADD PUSH1 0x20 DUP1 SWAP2 DIV MUL PUSH1 0x20 ADD PUSH1 0x40 MLOAD SWAP1 DUP2 ADD PUSH1 0x40 MSTORE DUP1 SWAP3 SWAP2 SWAP1 DUP2 DUP2 MSTORE PUSH1 0x20 ADD DUP3 DUP1 SLOAD PUSH2 0x204 SWAP1 PUSH2 0x60B JUMP JUMPDEST DUP1 ISZERO PUSH2 0x24F JUMPI DUP1 PUSH1 0x1F LT PUSH2 0x226 JUMPI PUSH2 0x100 DUP1 DUP4 SLOAD DIV MUL DUP4 MSTORE SWAP2 PUSH1 0x20 ADD SWAP2 PUSH2 0x24F JUMP JUMPDEST DUP3 ADD SWAP2 SWAP1 PUSH0 MSTORE PUSH1 0x20 PUSH0 KECCAK256 SWAP1 JUMPDEST DUP2 SLOAD DUP2 MSTORE SWAP1 PUSH1 0x1 ADD SWAP1 PUSH1 0x20 ADD DUP1 DUP4 GT PUSH2 0x232 JUMPI DUP3 SWAP1 SUB PUSH1 0x1F AND DUP3 ADD SWAP2 JUMPDEST POP POP POP POP POP DUP2 JUMP JUMPDEST PUSH1 0x5 SLOAD DUP2 JUMP JUMPDEST PUSH1 0x4 SLOAD DUP2 JUMP JUMPDEST DUP1 PUSH1 0x5 PUSH0 DUP3 DUP3 SLOAD PUSH2 0x274 SWAP2 SWAP1 PUSH2 0x668 JUMP JUMPDEST SWAP3 POP POP DUP2 SWAP1 SSTORE POP POP JUMP JUMPDEST PUSH0 PUSH2 0x287 PUSH2 0x27E JUMP JUMPDEST SWAP1 POP SWAP1 JUMP JUMPDEST PUSH1 0x3 SLOAD DUP2 JUMP JUMPDEST PUSH1 0x2 DUP1 SLOAD PUSH2 0x29F SWAP1 PUSH2 0x60B JUMP JUMPDEST DUP1 PUSH1 0x1F ADD PUSH1 0x20 DUP1 SWAP2 DIV MUL PUSH1 0x20 ADD PUSH1 0x40 MLOAD SWAP1 DUP2 ADD PUSH1 0x40 MSTORE DUP1 SWAP3 SWAP2 SWAP1 DUP2 DUP2 MSTORE PUSH1 0x20 ADD DUP3 DUP1 SLOAD PUSH2 0x2CB SWAP1 PUSH2 0x60B JUMP JUMPDEST DUP1 ISZERO PUSH2 0x316 JUMPI DUP1 PUSH1 0x1F LT PUSH2 0x2ED JUMPI PUSH2 0x100 DUP1 DUP4 SLOAD DIV MUL DUP4 MSTORE SWAP2 PUSH1 0x20 ADD SWAP2 PUSH2 0x316 JUMP JUMPDEST DUP3 ADD SWAP2 SWAP1 PUSH0 MSTORE PUSH1 0x20 PUSH0 KECCAK256 SWAP1 JUMPDEST DUP2 SLOAD DUP2 MSTORE SWAP1 PUSH1 0x1 ADD SWAP1 PUSH1 0x20 ADD DUP1 DUP4 GT PUSH2 0x2F9 JUMPI DUP3 SWAP1 SUB PUSH1 0x1F AND DUP3 ADD SWAP2 JUMPDEST POP POP POP POP POP DUP2 JUMP JUMPDEST PUSH1 0x60 DUP1 PUSH0 DUP1 PUSH0 DUP1 PUSH1 0x2 PUSH1 0x4 SLOAD PUSH1 0x3 SLOAD PUSH1 0x5 SLOAD DUP5 DUP1 SLOAD PUSH2 0x33C SWAP1 PUSH2 0x60B JUMP JUMPDEST DUP1 PUSH1 0x1F ADD PUSH1 0x20 DUP1 SWAP2 DIV MUL PUSH1 0x20 ADD PUSH1 0x40 MLOAD SWAP1 DUP2 ADD PUSH1 0x40 MSTORE DUP1 SWAP3 SWAP2 SWAP1 DUP2 DUP2 MSTORE PUSH1 0x20 ADD DUP3 DUP1 SLOAD PUSH2 0x368 SWAP1 PUSH2 0x60B JUMP JUMPDEST DUP1 ISZERO PUSH2 0x3B3 JUMPI DUP1 PUSH1 0x1F LT PUSH2 0x38A JUMPI PUSH2 0x100 DUP1 DUP4 SLOAD DIV MUL DUP4 MSTORE SWAP2 PUSH1 0x20 ADD SWAP2 PUSH2 0x3B3 JUMP JUMPDEST DUP3 ADD SWAP2 SWAP1 PUSH0 MSTORE PUSH1 0x20 PUSH0 KECCAK256 SWAP1 JUMPDEST DUP2 SLOAD DUP2 MSTORE SWAP1 PUSH1 0x1 ADD SWAP1 PUSH1 0x20 ADD DUP1 DUP4 GT PUSH2 0x396 JUMPI DUP3 SWAP1 SUB PUSH1 0x1F AND DUP3 ADD SWAP2 JUMPDEST POP POP POP POP POP SWAP5 POP DUP4 DUP1 SLOAD PUSH2 0x3C6 SWAP1 PUSH2 0x60B JUMP JUMPDEST DUP1 PUSH1 0x1F ADD PUSH1 0x20 DUP1 SWAP2 DIV MUL PUSH1 0x20 ADD PUSH1 0x40 MLOAD SWAP1 DUP2 ADD PUSH1 0x40 MSTORE DUP1 SWAP3 SWAP2 SWAP1 DUP2 DUP2 MSTORE PUSH1 0x20 ADD DUP3 DUP1 SLOAD PUSH2 0x3F2 SWAP1 PUSH2 0x60B JUMP JUMPDEST DUP1 ISZERO PUSH2 0x43D JUMPI DUP1 PUSH1 0x1F LT PUSH2 0x414 JUMPI PUSH2 0x100 DUP1 DUP4 SLOAD DIV MUL DUP4 MSTORE SWAP2 PUSH1 0x20 ADD SWAP2 PUSH2 0x43D JUMP JUMPDEST DUP3 ADD SWAP2 SWAP1 PUSH0 MSTORE PUSH1 0x20 PUSH0 KECCAK256 SWAP1 JUMPDEST DUP2 SLOAD DUP2 MSTORE SWAP1 PUSH1 0x1 ADD SWAP1 PUSH1 0x20 ADD DUP1 DUP4 GT PUSH2 0x420 JUMPI DUP3 SWAP1 SUB PUSH1 0x1F AND DUP3 ADD SWAP2 JUMPDEST POP POP POP POP POP SWAP4 POP SWAP5 POP SWAP5 POP SWAP5 POP SWAP5 POP SWAP5 POP SWAP1 SWAP2 SWAP3 SWAP4 SWAP5 JUMP JUMPDEST DUP1 PUSH1 0x4 DUP2 SWAP1 SSTORE POP POP JUMP JUMPDEST PUSH1 0x1 SLOAD DUP2 JUMP JUMPDEST PUSH0 DUP2 MLOAD SWAP1 POP SWAP2 SWAP1 POP JUMP JUMPDEST PUSH0 DUP3 DUP3 MSTORE PUSH1 0x20 DUP3 ADD SWAP1 POP SWAP3 SWAP2 POP POP JUMP JUMPDEST DUP3 DUP2 DUP4 MCOPY PUSH0 DUP4 DUP4 ADD MSTORE POP POP POP JUMP JUMPDEST PUSH0 PUSH1 0x1F NOT PUSH1 0x1F DUP4 ADD AND SWAP1 POP SWAP2 SWAP1 POP JUMP JUMPDEST PUSH0 PUSH2 0x4A7 DUP3 PUSH2 0x465 JUMP JUMPDEST PUSH2 0x4B1 DUP2 DUP6 PUSH2 0x46F JUMP JUMPDEST SWAP4 POP PUSH2 0x4C1 DUP2 DUP6 PUSH1 0x20 DUP7 ADD PUSH2 0x47F JUMP JUMPDEST PUSH2 0x4CA DUP2 PUSH2 0x48D JUMP JUMPDEST DUP5 ADD SWAP2 POP POP SWAP3 SWAP2 POP POP JUMP JUMPDEST PUSH0 PUSH1 0x20 DUP3 ADD SWAP1 POP DUP2 DUP2 SUB PUSH0 DUP4 ADD MSTORE PUSH2 0x4ED DUP2 DUP5 PUSH2 0x49D JUMP JUMPDEST SWAP1 POP SWAP3 SWAP2 POP POP JUMP JUMPDEST PUSH0 DUP2 SWAP1 POP SWAP2 SWAP1 POP JUMP JUMPDEST PUSH2 0x507 DUP2 PUSH2 0x4F5 JUMP JUMPDEST DUP3 MSTORE POP POP JUMP JUMPDEST PUSH0 PUSH1 0x20 DUP3 ADD SWAP1 POP PUSH2 0x520 PUSH0 DUP4 ADD DUP5 PUSH2 0x4FE JUMP JUMPDEST SWAP3 SWAP2 POP POP JUMP JUMPDEST PUSH0 DUP1 REVERT JUMPDEST PUSH2 0x533 DUP2 PUSH2 0x4F5 JUMP JUMPDEST DUP2 EQ PUSH2 0x53D JUMPI PUSH0 DUP1 REVERT JUMPDEST POP JUMP JUMPDEST PUSH0 DUP2 CALLDATALOAD SWAP1 POP PUSH2 0x54E DUP2 PUSH2 0x52A JUMP JUMPDEST SWAP3 SWAP2 POP POP JUMP JUMPDEST PUSH0 PUSH1 0x20 DUP3 DUP5 SUB SLT ISZERO PUSH2 0x569 JUMPI PUSH2 0x568 PUSH2 0x526 JUMP JUMPDEST JUMPDEST PUSH0 PUSH2 0x576 DUP5 DUP3 DUP6 ADD PUSH2 0x540 JUMP JUMPDEST SWAP2 POP POP SWAP3 SWAP2 POP POP JUMP JUMPDEST PUSH0 PUSH1 0xA0 DUP3 ADD SWAP1 POP DUP2 DUP2 SUB PUSH0 DUP4 ADD MSTORE PUSH2 0x597 DUP2 DUP9 PUSH2 0x49D JUMP JUMPDEST SWAP1 POP DUP2 DUP2 SUB PUSH1 0x20 DUP4 ADD MSTORE PUSH2 0x5AB DUP2 DUP8 PUSH2 0x49D JUMP JUMPDEST SWAP1 POP PUSH2 0x5BA PUSH1 0x40 DUP4 ADD DUP7 PUSH2 0x4FE JUMP JUMPDEST PUSH2 0x5C7 PUSH1 0x60 DUP4 ADD DUP6 PUSH2 0x4FE JUMP JUMPDEST PUSH2 0x5D4 PUSH1 0x80 DUP4 ADD DUP5 PUSH2 0x4FE JUMP JUMPDEST SWAP7 SWAP6 POP POP POP POP POP POP JUMP JUMPDEST PUSH32 0x4E487B7100000000000000000000000000000000000000000000000000000000 PUSH0 MSTORE PUSH1 0x22 PUSH1 0x4 MSTORE PUSH1 0x24 PUSH0 REVERT JUMPDEST PUSH0 PUSH1 0x2 DUP3 DIV SWAP1 POP PUSH1 0x1 DUP3 AND DUP1 PUSH2 0x622 JUMPI PUSH1 0x7F DUP3 AND SWAP2 POP JUMPDEST PUSH1 0x20 DUP3 LT DUP2 SUB PUSH2 0x635 JUMPI PUSH2 0x634 PUSH2 0x5DE JUMP JUMPDEST JUMPDEST POP SWAP2 SWAP1 POP JUMP JUMPDEST PUSH32 0x4E487B7100000000000000000000000000000000000000000000000000000000 PUSH0 MSTORE PUSH1 0x11 PUSH1 0x4 MSTORE PUSH1 0x24 PUSH0 REVERT JUMPDEST PUSH0 PUSH2 0x672 DUP3 PUSH2 0x4F5 JUMP JUMPDEST SWAP2 POP PUSH2 0x67D DUP4 PUSH2 0x4F5 JUMP JUMPDEST SWAP3 POP DUP3 DUP3 ADD SWAP1 POP DUP1 DUP3 GT ISZERO PUSH2 0x695 JUMPI PUSH2 0x694 PUSH2 0x63B JUMP JUMPDEST JUMPDEST SWAP3 SWAP2 POP POP JUMP INVALID LOG2 PUSH5 0x6970667358 0x22 SLT KECCAK256 SIGNEXTEND 0xF6 SWAP12 REVERT 0xB4 SWAP1 0xAF 0xE8 PUSH2 0xFF6C PUSH24 0xA0881638FDAFDEB965D31A8301E5757E85E80ACA64736F6C PUSH4 0x4300081A STOP CALLER LOG2 PUSH5 0x6970667358 0x22 SLT KECCAK256 SWAP1 EXTCODESIZE SWAP11 EQ MSTORE8 SWAP3 0xA8 DELEGATECALL 0xC8 MCOPY 0xF9 NOT CHAINID 0xB9 0xDE RETURNDATACOPY PUSH6 0x673DF46DB89A CALLCODE DUP14 DUP11 0x2A 0xD5 PUSH27 0x45EDC364736F6C634300081A003300000000000000000000000000 "
				},
				"gasEstimates": {
					"creation": {
						"codeDepositCost": "1155600",
						"executionCost": "infinite",
						"totalCost": "infinite"
					},
					"external": {
						"UniName()": "infinite",
						"addStudent(string,uint256,string)": "infinite",
						"chain()": "infinite",
						"changeStudentsCGPA(address,uint256)": "infinite",
						"concedeStudentsCredits(address,uint256)": "infinite",
						"fundationYear()": "2448",
						"studentList(uint256)": "5011",
						"students(address)": "infinite",
						"studentsSubscribed()": "2447"
					}
				},
				"methodIdentifiers": {
					"UniName()": "5283ce5f",
					"addStudent(string,uint256,string)": "ed32a8a1",
					"chain()": "c763e5a1",
					"changeStudentsCGPA(address,uint256)": "e9b42033",
					"concedeStudentsCredits(address,uint256)": "2b74ad75",
					"fundationYear()": "3abbed8c",
					"studentList(uint256)": "7df221e9",
					"students(address)": "a6c807a9",
					"studentsSubscribed()": "b74b70a1"
				}
			},
			"storageLayout": {
				"storage": [
					{
						"astId": 155,
						"contract": "contracts/DUUID/university.sol:University",
						"label": "chain",
						"offset": 0,
						"slot": "0",
						"type": "t_contract(duuid)52"
					},
					{
						"astId": 157,
						"contract": "contracts/DUUID/university.sol:University",
						"label": "UniName",
						"offset": 0,
						"slot": "1",
						"type": "t_string_storage"
					},
					{
						"astId": 159,
						"contract": "contracts/DUUID/university.sol:University",
						"label": "fundationYear",
						"offset": 0,
						"slot": "2",
						"type": "t_uint256"
					},
					{
						"astId": 162,
						"contract": "contracts/DUUID/university.sol:University",
						"label": "studentList",
						"offset": 0,
						"slot": "3",
						"type": "t_array(t_address)dyn_storage"
					},
					{
						"astId": 167,
						"contract": "contracts/DUUID/university.sol:University",
						"label": "students",
						"offset": 0,
						"slot": "4",
						"type": "t_mapping(t_address,t_contract(Student)148)"
					},
					{
						"astId": 170,
						"contract": "contracts/DUUID/university.sol:University",
						"label": "studentsSubscribed",
						"offset": 0,
						"slot": "5",
						"type": "t_uint256"
					}
				],
				"types": {
					"t_address": {
						"encoding": "inplace",
						"label": "address",
						"numberOfBytes": "20"
					},
					"t_array(t_address)dyn_storage": {
						"base": "t_address",
						"encoding": "dynamic_array",
						"label": "address[]",
						"numberOfBytes": "32"
					},
					"t_contract(Student)148": {
						"encoding": "inplace",
						"label": "contract Student",
						"numberOfBytes": "20"
					},
					"t_contract(duuid)52": {
						"encoding": "inplace",
						"label": "contract duuid",
						"numberOfBytes": "20"
					},
					"t_mapping(t_address,t_contract(Student)148)": {
						"encoding": "mapping",
						"key": "t_address",
						"label": "mapping(address => contract Student)",
						"numberOfBytes": "32",
						"value": "t_contract(Student)148"
					},
					"t_string_storage": {
						"encoding": "bytes",
						"label": "string",
						"numberOfBytes": "32"
					},
					"t_uint256": {
						"encoding": "inplace",
						"label": "uint256",
						"numberOfBytes": "32"
					}
				}
			},
			"userdoc": {
				"kind": "user",
				"methods": {},
				"version": 1
			}
		}
	}
}