{
	"data": {
		"bytecode": {
			"linkReferences": {},
			"object": "60806040525f6004555f600555348015610017575f80fd5b50604051610c3c380380610c3c833981810160405281019061003991906101ef565b835f9081610047919061048f565b5082600181905550816002908161005e919061048f565b50806003819055505050505061055e565b5f604051905090565b5f80fd5b5f80fd5b5f80fd5b5f80fd5b5f601f19601f8301169050919050565b7f4e487b71000000000000000000000000000000000000000000000000000000005f52604160045260245ffd5b6100ce82610088565b810181811067ffffffffffffffff821117156100ed576100ec610098565b5b80604052505050565b5f6100ff61006f565b905061010b82826100c5565b919050565b5f67ffffffffffffffff82111561012a57610129610098565b5b61013382610088565b9050602081019050919050565b8281835e5f83830152505050565b5f61016061015b84610110565b6100f6565b90508281526020810184848401111561017c5761017b610084565b5b610187848285610140565b509392505050565b5f82601f8301126101a3576101a2610080565b5b81516101b384826020860161014e565b91505092915050565b5f819050919050565b6101ce816101bc565b81146101d8575f80fd5b50565b5f815190506101e9816101c5565b92915050565b5f805f806080858703121561020757610206610078565b5b5f85015167ffffffffffffffff8111156102245761022361007c565b5b6102308782880161018f565b9450506020610241878288016101db565b935050604085015167ffffffffffffffff8111156102625761026161007c565b5b61026e8782880161018f565b925050606061027f878288016101db565b91505092959194509250565b5f81519050919050565b7f4e487b71000000000000000000000000000000000000000000000000000000005f52602260045260245ffd5b5f60028204905060018216806102d957607f821691505b6020821081036102ec576102eb610295565b5b50919050565b5f819050815f5260205f209050919050565b5f6020601f8301049050919050565b5f82821b905092915050565b5f6008830261034e7fffffffffffffffffffffffffffffffffffffffffffffffffffffffffffffffff82610313565b6103588683610313565b95508019841693508086168417925050509392505050565b5f819050919050565b5f61039361038e610389846101bc565b610370565b6101bc565b9050919050565b5f819050919050565b6103ac83610379565b6103c06103b88261039a565b84845461031f565b825550505050565b5f90565b6103d46103c8565b6103df8184846103a3565b505050565b5b81811015610402576103f75f826103cc565b6001810190506103e5565b5050565b601f82111561044757610418816102f2565b61042184610304565b81016020851015610430578190505b61044461043c85610304565b8301826103e4565b50505b505050565b5f82821c905092915050565b5f6104675f198460080261044c565b1980831691505092915050565b5f61047f8383610458565b9150826002028217905092915050565b6104988261028b565b67ffffffffffffffff8111156104b1576104b0610098565b5b6104bb82546102c2565b6104c6828285610406565b5f60209050601f8311600181146104f7575f84156104e5578287015190505b6104ef8582610474565b865550610556565b601f198416610505866102f2565b5f5b8281101561052c57848901518255600182019150602085019450602081019050610507565b868310156105495784890151610545601f891682610458565b8355505b6001600288020188555050505b505050505050565b6106d18061056b5f395ff3fe608060405234801561000f575f80fd5b506004361061009c575f3560e01c80635750653d116100645780635750653d1461013457806368852bc014610152578063bc65865914610170578063d24cc4a914610192578063de734f70146101ae5761009c565b806306fdde03146100a05780630b50ecde146100be57806319cf67ce146100dc5780632aea58b2146100fa5780634fcb113f14610116575b5f80fd5b6100a86101cc565b6040516100b591906104d5565b60405180910390f35b6100c6610257565b6040516100d3919061050d565b60405180910390f35b6100e461025d565b6040516100f1919061050d565b60405180910390f35b610114600480360381019061010f9190610554565b610263565b005b61011e61027e565b60405161012b919061050d565b60405180910390f35b61013c61028c565b604051610149919061050d565b60405180910390f35b61015a610292565b60405161016791906104d5565b60405180910390f35b61017861031e565b60405161018995949392919061057f565b60405180910390f35b6101ac60048036038101906101a79190610554565b610455565b005b6101b661045f565b6040516101c3919061050d565b60405180910390f35b5f80546101d89061060b565b80601f01602080910402602001604051908101604052809291908181526020018280546102049061060b565b801561024f5780601f106102265761010080835404028352916020019161024f565b820191905f5260205f20905b81548152906001019060200180831161023257829003601f168201915b505050505081565b60055481565b60045481565b8060055f8282546102749190610668565b9250508190555050565b5f61028761027e565b905090565b60035481565b6002805461029f9061060b565b80601f01602080910402602001604051908101604052809291908181526020018280546102cb9061060b565b80156103165780601f106102ed57610100808354040283529160200191610316565b820191905f5260205f20905b8154815290600101906020018083116102f957829003601f168201915b505050505081565b6060805f805f80600260045460035460055484805461033c9061060b565b80601f01602080910402602001604051908101604052809291908181526020018280546103689061060b565b80156103b35780601f1061038a576101008083540402835291602001916103b3565b820191905f5260205f20905b81548152906001019060200180831161039657829003601f168201915b505050505094508380546103c69061060b565b80601f01602080910402602001604051908101604052809291908181526020018280546103f29061060b565b801561043d5780601f106104145761010080835404028352916020019161043d565b820191905f5260205f20905b81548152906001019060200180831161042057829003601f168201915b50505050509350945094509450945094509091929394565b8060048190555050565b60015481565b5f81519050919050565b5f82825260208201905092915050565b8281835e5f83830152505050565b5f601f19601f8301169050919050565b5f6104a782610465565b6104b1818561046f565b93506104c181856020860161047f565b6104ca8161048d565b840191505092915050565b5f6020820190508181035f8301526104ed818461049d565b905092915050565b5f819050919050565b610507816104f5565b82525050565b5f6020820190506105205f8301846104fe565b92915050565b5f80fd5b610533816104f5565b811461053d575f80fd5b50565b5f8135905061054e8161052a565b92915050565b5f6020828403121561056957610568610526565b5b5f61057684828501610540565b91505092915050565b5f60a0820190508181035f830152610597818861049d565b905081810360208301526105ab818761049d565b90506105ba60408301866104fe565b6105c760608301856104fe565b6105d460808301846104fe565b9695505050505050565b7f4e487b71000000000000000000000000000000000000000000000000000000005f52602260045260245ffd5b5f600282049050600182168061062257607f821691505b602082108103610635576106346105de565b5b50919050565b7f4e487b71000000000000000000000000000000000000000000000000000000005f52601160045260245ffd5b5f610672826104f5565b915061067d836104f5565b92508282019050808211156106955761069461063b565b5b9291505056fea2646970667358221220c5edbbcf19391d114792263edbf4c7ec339b2a1a67eb39f4f777baa4ecd9f78664736f6c634300081a0033",
			"opcodes": "PUSH1 0x80 PUSH1 0x40 MSTORE PUSH0 PUSH1 0x4 SSTORE PUSH0 PUSH1 0x5 SSTORE CALLVALUE DUP1 ISZERO PUSH2 0x17 JUMPI PUSH0 DUP1 REVERT JUMPDEST POP PUSH1 0x40 MLOAD PUSH2 0xC3C CODESIZE SUB DUP1 PUSH2 0xC3C DUP4 CODECOPY DUP2 DUP2 ADD PUSH1 0x40 MSTORE DUP2 ADD SWAP1 PUSH2 0x39 SWAP2 SWAP1 PUSH2 0x1EF JUMP JUMPDEST DUP4 PUSH0 SWAP1 DUP2 PUSH2 0x47 SWAP2 SWAP1 PUSH2 0x48F JUMP JUMPDEST POP DUP3 PUSH1 0x1 DUP2 SWAP1 SSTORE POP DUP2 PUSH1 0x2 SWAP1 DUP2 PUSH2 0x5E SWAP2 SWAP1 PUSH2 0x48F JUMP JUMPDEST POP DUP1 PUSH1 0x3 DUP2 SWAP1 SSTORE POP POP POP POP POP PUSH2 0x55E JUMP JUMPDEST PUSH0 PUSH1 0x40 MLOAD SWAP1 POP SWAP1 JUMP JUMPDEST PUSH0 DUP1 REVERT JUMPDEST PUSH0 DUP1 REVERT JUMPDEST PUSH0 DUP1 REVERT JUMPDEST PUSH0 DUP1 REVERT JUMPDEST PUSH0 PUSH1 0x1F NOT PUSH1 0x1F DUP4 ADD AND SWAP1 POP SWAP2 SWAP1 POP JUMP JUMPDEST PUSH32 0x4E487B7100000000000000000000000000000000000000000000000000000000 PUSH0 MSTORE PUSH1 0x41 PUSH1 0x4 MSTORE PUSH1 0x24 PUSH0 REVERT JUMPDEST PUSH2 0xCE DUP3 PUSH2 0x88 JUMP JUMPDEST DUP2 ADD DUP2 DUP2 LT PUSH8 0xFFFFFFFFFFFFFFFF DUP3 GT OR ISZERO PUSH2 0xED JUMPI PUSH2 0xEC PUSH2 0x98 JUMP JUMPDEST JUMPDEST DUP1 PUSH1 0x40 MSTORE POP POP POP JUMP JUMPDEST PUSH0 PUSH2 0xFF PUSH2 0x6F JUMP JUMPDEST SWAP1 POP PUSH2 0x10B DUP3 DUP3 PUSH2 0xC5 JUMP JUMPDEST SWAP2 SWAP1 POP JUMP JUMPDEST PUSH0 PUSH8 0xFFFFFFFFFFFFFFFF DUP3 GT ISZERO PUSH2 0x12A JUMPI PUSH2 0x129 PUSH2 0x98 JUMP JUMPDEST JUMPDEST PUSH2 0x133 DUP3 PUSH2 0x88 JUMP JUMPDEST SWAP1 POP PUSH1 0x20 DUP2 ADD SWAP1 POP SWAP2 SWAP1 POP JUMP JUMPDEST DUP3 DUP2 DUP4 MCOPY PUSH0 DUP4 DUP4 ADD MSTORE POP POP POP JUMP JUMPDEST PUSH0 PUSH2 0x160 PUSH2 0x15B DUP5 PUSH2 0x110 JUMP JUMPDEST PUSH2 0xF6 JUMP JUMPDEST SWAP1 POP DUP3 DUP2 MSTORE PUSH1 0x20 DUP2 ADD DUP5 DUP5 DUP5 ADD GT ISZERO PUSH2 0x17C JUMPI PUSH2 0x17B PUSH2 0x84 JUMP JUMPDEST JUMPDEST PUSH2 0x187 DUP5 DUP3 DUP6 PUSH2 0x140 JUMP JUMPDEST POP SWAP4 SWAP3 POP POP POP JUMP JUMPDEST PUSH0 DUP3 PUSH1 0x1F DUP4 ADD SLT PUSH2 0x1A3 JUMPI PUSH2 0x1A2 PUSH2 0x80 JUMP JUMPDEST JUMPDEST DUP2 MLOAD PUSH2 0x1B3 DUP5 DUP3 PUSH1 0x20 DUP7 ADD PUSH2 0x14E JUMP JUMPDEST SWAP2 POP POP SWAP3 SWAP2 POP POP JUMP JUMPDEST PUSH0 DUP2 SWAP1 POP SWAP2 SWAP1 POP JUMP JUMPDEST PUSH2 0x1CE DUP2 PUSH2 0x1BC JUMP JUMPDEST DUP2 EQ PUSH2 0x1D8 JUMPI PUSH0 DUP1 REVERT JUMPDEST POP JUMP JUMPDEST PUSH0 DUP2 MLOAD SWAP1 POP PUSH2 0x1E9 DUP2 PUSH2 0x1C5 JUMP JUMPDEST SWAP3 SWAP2 POP POP JUMP JUMPDEST PUSH0 DUP1 PUSH0 DUP1 PUSH1 0x80 DUP6 DUP8 SUB SLT ISZERO PUSH2 0x207 JUMPI PUSH2 0x206 PUSH2 0x78 JUMP JUMPDEST JUMPDEST PUSH0 DUP6 ADD MLOAD PUSH8 0xFFFFFFFFFFFFFFFF DUP2 GT ISZERO PUSH2 0x224 JUMPI PUSH2 0x223 PUSH2 0x7C JUMP JUMPDEST JUMPDEST PUSH2 0x230 DUP8 DUP3 DUP9 ADD PUSH2 0x18F JUMP JUMPDEST SWAP5 POP POP PUSH1 0x20 PUSH2 0x241 DUP8 DUP3 DUP9 ADD PUSH2 0x1DB JUMP JUMPDEST SWAP4 POP POP PUSH1 0x40 DUP6 ADD MLOAD PUSH8 0xFFFFFFFFFFFFFFFF DUP2 GT ISZERO PUSH2 0x262 JUMPI PUSH2 0x261 PUSH2 0x7C JUMP JUMPDEST JUMPDEST PUSH2 0x26E DUP8 DUP3 DUP9 ADD PUSH2 0x18F JUMP JUMPDEST SWAP3 POP POP PUSH1 0x60 PUSH2 0x27F DUP8 DUP3 DUP9 ADD PUSH2 0x1DB JUMP JUMPDEST SWAP2 POP POP SWAP3 SWAP6 SWAP2 SWAP5 POP SWAP3 POP JUMP JUMPDEST PUSH0 DUP2 MLOAD SWAP1 POP SWAP2 SWAP1 POP JUMP JUMPDEST PUSH32 0x4E487B7100000000000000000000000000000000000000000000000000000000 PUSH0 MSTORE PUSH1 0x22 PUSH1 0x4 MSTORE PUSH1 0x24 PUSH0 REVERT JUMPDEST PUSH0 PUSH1 0x2 DUP3 DIV SWAP1 POP PUSH1 0x1 DUP3 AND DUP1 PUSH2 0x2D9 JUMPI PUSH1 0x7F DUP3 AND SWAP2 POP JUMPDEST PUSH1 0x20 DUP3 LT DUP2 SUB PUSH2 0x2EC JUMPI PUSH2 0x2EB PUSH2 0x295 JUMP JUMPDEST JUMPDEST POP SWAP2 SWAP1 POP JUMP JUMPDEST PUSH0 DUP2 SWAP1 POP DUP2 PUSH0 MSTORE PUSH1 0x20 PUSH0 KECCAK256 SWAP1 POP SWAP2 SWAP1 POP JUMP JUMPDEST PUSH0 PUSH1 0x20 PUSH1 0x1F DUP4 ADD DIV SWAP1 POP SWAP2 SWAP1 POP JUMP JUMPDEST PUSH0 DUP3 DUP3 SHL SWAP1 POP SWAP3 SWAP2 POP POP JUMP JUMPDEST PUSH0 PUSH1 0x8 DUP4 MUL PUSH2 0x34E PUSH32 0xFFFFFFFFFFFFFFFFFFFFFFFFFFFFFFFFFFFFFFFFFFFFFFFFFFFFFFFFFFFFFFFF DUP3 PUSH2 0x313 JUMP JUMPDEST PUSH2 0x358 DUP7 DUP4 PUSH2 0x313 JUMP JUMPDEST SWAP6 POP DUP1 NOT DUP5 AND SWAP4 POP DUP1 DUP7 AND DUP5 OR SWAP3 POP POP POP SWAP4 SWAP3 POP POP POP JUMP JUMPDEST PUSH0 DUP2 SWAP1 POP SWAP2 SWAP1 POP JUMP JUMPDEST PUSH0 PUSH2 0x393 PUSH2 0x38E PUSH2 0x389 DUP5 PUSH2 0x1BC JUMP JUMPDEST PUSH2 0x370 JUMP JUMPDEST PUSH2 0x1BC JUMP JUMPDEST SWAP1 POP SWAP2 SWAP1 POP JUMP JUMPDEST PUSH0 DUP2 SWAP1 POP SWAP2 SWAP1 POP JUMP JUMPDEST PUSH2 0x3AC DUP4 PUSH2 0x379 JUMP JUMPDEST PUSH2 0x3C0 PUSH2 0x3B8 DUP3 PUSH2 0x39A JUMP JUMPDEST DUP5 DUP5 SLOAD PUSH2 0x31F JUMP JUMPDEST DUP3 SSTORE POP POP POP POP JUMP JUMPDEST PUSH0 SWAP1 JUMP JUMPDEST PUSH2 0x3D4 PUSH2 0x3C8 JUMP JUMPDEST PUSH2 0x3DF DUP2 DUP5 DUP5 PUSH2 0x3A3 JUMP JUMPDEST POP POP POP JUMP JUMPDEST JUMPDEST DUP2 DUP2 LT ISZERO PUSH2 0x402 JUMPI PUSH2 0x3F7 PUSH0 DUP3 PUSH2 0x3CC JUMP JUMPDEST PUSH1 0x1 DUP2 ADD SWAP1 POP PUSH2 0x3E5 JUMP JUMPDEST POP POP JUMP JUMPDEST PUSH1 0x1F DUP3 GT ISZERO PUSH2 0x447 JUMPI PUSH2 0x418 DUP2 PUSH2 0x2F2 JUMP JUMPDEST PUSH2 0x421 DUP5 PUSH2 0x304 JUMP JUMPDEST DUP2 ADD PUSH1 0x20 DUP6 LT ISZERO PUSH2 0x430 JUMPI DUP2 SWAP1 POP JUMPDEST PUSH2 0x444 PUSH2 0x43C DUP6 PUSH2 0x304 JUMP JUMPDEST DUP4 ADD DUP3 PUSH2 0x3E4 JUMP JUMPDEST POP POP JUMPDEST POP POP POP JUMP JUMPDEST PUSH0 DUP3 DUP3 SHR SWAP1 POP SWAP3 SWAP2 POP POP JUMP JUMPDEST PUSH0 PUSH2 0x467 PUSH0 NOT DUP5 PUSH1 0x8 MUL PUSH2 0x44C JUMP JUMPDEST NOT DUP1 DUP4 AND SWAP2 POP POP SWAP3 SWAP2 POP POP JUMP JUMPDEST PUSH0 PUSH2 0x47F DUP4 DUP4 PUSH2 0x458 JUMP JUMPDEST SWAP2 POP DUP3 PUSH1 0x2 MUL DUP3 OR SWAP1 POP SWAP3 SWAP2 POP POP JUMP JUMPDEST PUSH2 0x498 DUP3 PUSH2 0x28B JUMP JUMPDEST PUSH8 0xFFFFFFFFFFFFFFFF DUP2 GT ISZERO PUSH2 0x4B1 JUMPI PUSH2 0x4B0 PUSH2 0x98 JUMP JUMPDEST JUMPDEST PUSH2 0x4BB DUP3 SLOAD PUSH2 0x2C2 JUMP JUMPDEST PUSH2 0x4C6 DUP3 DUP3 DUP6 PUSH2 0x406 JUMP JUMPDEST PUSH0 PUSH1 0x20 SWAP1 POP PUSH1 0x1F DUP4 GT PUSH1 0x1 DUP2 EQ PUSH2 0x4F7 JUMPI PUSH0 DUP5 ISZERO PUSH2 0x4E5 JUMPI DUP3 DUP8 ADD MLOAD SWAP1 POP JUMPDEST PUSH2 0x4EF DUP6 DUP3 PUSH2 0x474 JUMP JUMPDEST DUP7 SSTORE POP PUSH2 0x556 JUMP JUMPDEST PUSH1 0x1F NOT DUP5 AND PUSH2 0x505 DUP7 PUSH2 0x2F2 JUMP JUMPDEST PUSH0 JUMPDEST DUP3 DUP2 LT ISZERO PUSH2 0x52C JUMPI DUP5 DUP10 ADD MLOAD DUP3 SSTORE PUSH1 0x1 DUP3 ADD SWAP2 POP PUSH1 0x20 DUP6 ADD SWAP5 POP PUSH1 0x20 DUP2 ADD SWAP1 POP PUSH2 0x507 JUMP JUMPDEST DUP7 DUP4 LT ISZERO PUSH2 0x549 JUMPI DUP5 DUP10 ADD MLOAD PUSH2 0x545 PUSH1 0x1F DUP10 AND DUP3 PUSH2 0x458 JUMP JUMPDEST DUP4 SSTORE POP JUMPDEST PUSH1 0x1 PUSH1 0x2 DUP9 MUL ADD DUP9 SSTORE POP POP POP JUMPDEST POP POP POP POP POP POP JUMP JUMPDEST PUSH2 0x6D1 DUP1 PUSH2 0x56B PUSH0 CODECOPY PUSH0 RETURN INVALID PUSH1 0x80 PUSH1 0x40 MSTORE CALLVALUE DUP1 ISZERO PUSH2 0xF JUMPI PUSH0 DUP1 REVERT JUMPDEST POP PUSH1 0x4 CALLDATASIZE LT PUSH2 0x9C JUMPI PUSH0 CALLDATALOAD PUSH1 0xE0 SHR DUP1 PUSH4 0x5750653D GT PUSH2 0x64 JUMPI DUP1 PUSH4 0x5750653D EQ PUSH2 0x134 JUMPI DUP1 PUSH4 0x68852BC0 EQ PUSH2 0x152 JUMPI DUP1 PUSH4 0xBC658659 EQ PUSH2 0x170 JUMPI DUP1 PUSH4 0xD24CC4A9 EQ PUSH2 0x192 JUMPI DUP1 PUSH4 0xDE734F70 EQ PUSH2 0x1AE JUMPI PUSH2 0x9C JUMP JUMPDEST DUP1 PUSH4 0x6FDDE03 EQ PUSH2 0xA0 JUMPI DUP1 PUSH4 0xB50ECDE EQ PUSH2 0xBE JUMPI DUP1 PUSH4 0x19CF67CE EQ PUSH2 0xDC JUMPI DUP1 PUSH4 0x2AEA58B2 EQ PUSH2 0xFA JUMPI DUP1 PUSH4 0x4FCB113F EQ PUSH2 0x116 JUMPI JUMPDEST PUSH0 DUP1 REVERT JUMPDEST PUSH2 0xA8 PUSH2 0x1CC JUMP JUMPDEST PUSH1 0x40 MLOAD PUSH2 0xB5 SWAP2 SWAP1 PUSH2 0x4D5 JUMP JUMPDEST PUSH1 0x40 MLOAD DUP1 SWAP2 SUB SWAP1 RETURN JUMPDEST PUSH2 0xC6 PUSH2 0x257 JUMP JUMPDEST PUSH1 0x40 MLOAD PUSH2 0xD3 SWAP2 SWAP1 PUSH2 0x50D JUMP JUMPDEST PUSH1 0x40 MLOAD DUP1 SWAP2 SUB SWAP1 RETURN JUMPDEST PUSH2 0xE4 PUSH2 0x25D JUMP JUMPDEST PUSH1 0x40 MLOAD PUSH2 0xF1 SWAP2 SWAP1 PUSH2 0x50D JUMP JUMPDEST PUSH1 0x40 MLOAD DUP1 SWAP2 SUB SWAP1 RETURN JUMPDEST PUSH2 0x114 PUSH1 0x4 DUP1 CALLDATASIZE SUB DUP2 ADD SWAP1 PUSH2 0x10F SWAP2 SWAP1 PUSH2 0x554 JUMP JUMPDEST PUSH2 0x263 JUMP JUMPDEST STOP JUMPDEST PUSH2 0x11E PUSH2 0x27E JUMP JUMPDEST PUSH1 0x40 MLOAD PUSH2 0x12B SWAP2 SWAP1 PUSH2 0x50D JUMP JUMPDEST PUSH1 0x40 MLOAD DUP1 SWAP2 SUB SWAP1 RETURN JUMPDEST PUSH2 0x13C PUSH2 0x28C JUMP JUMPDEST PUSH1 0x40 MLOAD PUSH2 0x149 SWAP2 SWAP1 PUSH2 0x50D JUMP JUMPDEST PUSH1 0x40 MLOAD DUP1 SWAP2 SUB SWAP1 RETURN JUMPDEST PUSH2 0x15A PUSH2 0x292 JUMP JUMPDEST PUSH1 0x40 MLOAD PUSH2 0x167 SWAP2 SWAP1 PUSH2 0x4D5 JUMP JUMPDEST PUSH1 0x40 MLOAD DUP1 SWAP2 SUB SWAP1 RETURN JUMPDEST PUSH2 0x178 PUSH2 0x31E JUMP JUMPDEST PUSH1 0x40 MLOAD PUSH2 0x189 SWAP6 SWAP5 SWAP4 SWAP3 SWAP2 SWAP1 PUSH2 0x57F JUMP JUMPDEST PUSH1 0x40 MLOAD DUP1 SWAP2 SUB SWAP1 RETURN JUMPDEST PUSH2 0x1AC PUSH1 0x4 DUP1 CALLDATASIZE SUB DUP2 ADD SWAP1 PUSH2 0x1A7 SWAP2 SWAP1 PUSH2 0x554 JUMP JUMPDEST PUSH2 0x455 JUMP JUMPDEST STOP JUMPDEST PUSH2 0x1B6 PUSH2 0x45F JUMP JUMPDEST PUSH1 0x40 MLOAD PUSH2 0x1C3 SWAP2 SWAP1 PUSH2 0x50D JUMP JUMPDEST PUSH1 0x40 MLOAD DUP1 SWAP2 SUB SWAP1 RETURN JUMPDEST PUSH0 DUP1 SLOAD PUSH2 0x1D8 SWAP1 PUSH2 0x60B JUMP JUMPDEST DUP1 PUSH1 0x1F ADD PUSH1 0x20 DUP1 SWAP2 DIV MUL PUSH1 0x20 ADD PUSH1 0x40 MLOAD SWAP1 DUP2 ADD PUSH1 0x40 MSTORE DUP1 SWAP3 SWAP2 SWAP1 DUP2 DUP2 MSTORE PUSH1 0x20 ADD DUP3 DUP1 SLOAD PUSH2 0x204 SWAP1 PUSH2 0x60B JUMP JUMPDEST DUP1 ISZERO PUSH2 0x24F JUMPI DUP1 PUSH1 0x1F LT PUSH2 0x226 JUMPI PUSH2 0x100 DUP1 DUP4 SLOAD DIV MUL DUP4 MSTORE SWAP2 PUSH1 0x20 ADD SWAP2 PUSH2 0x24F JUMP JUMPDEST DUP3 ADD SWAP2 SWAP1 PUSH0 MSTORE PUSH1 0x20 PUSH0 KECCAK256 SWAP1 JUMPDEST DUP2 SLOAD DUP2 MSTORE SWAP1 PUSH1 0x1 ADD SWAP1 PUSH1 0x20 ADD DUP1 DUP4 GT PUSH2 0x232 JUMPI DUP3 SWAP1 SUB PUSH1 0x1F AND DUP3 ADD SWAP2 JUMPDEST POP POP POP POP POP DUP2 JUMP JUMPDEST PUSH1 0x5 SLOAD DUP2 JUMP JUMPDEST PUSH1 0x4 SLOAD DUP2 JUMP JUMPDEST DUP1 PUSH1 0x5 PUSH0 DUP3 DUP3 SLOAD PUSH2 0x274 SWAP2 SWAP1 PUSH2 0x668 JUMP JUMPDEST SWAP3 POP POP DUP2 SWAP1 SSTORE POP POP JUMP JUMPDEST PUSH0 PUSH2 0x287 PUSH2 0x27E JUMP JUMPDEST SWAP1 POP SWAP1 JUMP JUMPDEST PUSH1 0x3 SLOAD DUP2 JUMP JUMPDEST PUSH1 0x2 DUP1 SLOAD PUSH2 0x29F SWAP1 PUSH2 0x60B JUMP JUMPDEST DUP1 PUSH1 0x1F ADD PUSH1 0x20 DUP1 SWAP2 DIV MUL PUSH1 0x20 ADD PUSH1 0x40 MLOAD SWAP1 DUP2 ADD PUSH1 0x40 MSTORE DUP1 SWAP3 SWAP2 SWAP1 DUP2 DUP2 MSTORE PUSH1 0x20 ADD DUP3 DUP1 SLOAD PUSH2 0x2CB SWAP1 PUSH2 0x60B JUMP JUMPDEST DUP1 ISZERO PUSH2 0x316 JUMPI DUP1 PUSH1 0x1F LT PUSH2 0x2ED JUMPI PUSH2 0x100 DUP1 DUP4 SLOAD DIV MUL DUP4 MSTORE SWAP2 PUSH1 0x20 ADD SWAP2 PUSH2 0x316 JUMP JUMPDEST DUP3 ADD SWAP2 SWAP1 PUSH0 MSTORE PUSH1 0x20 PUSH0 KECCAK256 SWAP1 JUMPDEST DUP2 SLOAD DUP2 MSTORE SWAP1 PUSH1 0x1 ADD SWAP1 PUSH1 0x20 ADD DUP1 DUP4 GT PUSH2 0x2F9 JUMPI DUP3 SWAP1 SUB PUSH1 0x1F AND DUP3 ADD SWAP2 JUMPDEST POP POP POP POP POP DUP2 JUMP JUMPDEST PUSH1 0x60 DUP1 PUSH0 DUP1 PUSH0 DUP1 PUSH1 0x2 PUSH1 0x4 SLOAD PUSH1 0x3 SLOAD PUSH1 0x5 SLOAD DUP5 DUP1 SLOAD PUSH2 0x33C SWAP1 PUSH2 0x60B JUMP JUMPDEST DUP1 PUSH1 0x1F ADD PUSH1 0x20 DUP1 SWAP2 DIV MUL PUSH1 0x20 ADD PUSH1 0x40 MLOAD SWAP1 DUP2 ADD PUSH1 0x40 MSTORE DUP1 SWAP3 SWAP2 SWAP1 DUP2 DUP2 MSTORE PUSH1 0x20 ADD DUP3 DUP1 SLOAD PUSH2 0x368 SWAP1 PUSH2 0x60B JUMP JUMPDEST DUP1 ISZERO PUSH2 0x3B3 JUMPI DUP1 PUSH1 0x1F LT PUSH2 0x38A JUMPI PUSH2 0x100 DUP1 DUP4 SLOAD DIV MUL DUP4 MSTORE SWAP2 PUSH1 0x20 ADD SWAP2 PUSH2 0x3B3 JUMP JUMPDEST DUP3 ADD SWAP2 SWAP1 PUSH0 MSTORE PUSH1 0x20 PUSH0 KECCAK256 SWAP1 JUMPDEST DUP2 SLOAD DUP2 MSTORE SWAP1 PUSH1 0x1 ADD SWAP1 PUSH1 0x20 ADD DUP1 DUP4 GT PUSH2 0x396 JUMPI DUP3 SWAP1 SUB PUSH1 0x1F AND DUP3 ADD SWAP2 JUMPDEST POP POP POP POP POP SWAP5 POP DUP4 DUP1 SLOAD PUSH2 0x3C6 SWAP1 PUSH2 0x60B JUMP JUMPDEST DUP1 PUSH1 0x1F ADD PUSH1 0x20 DUP1 SWAP2 DIV MUL PUSH1 0x20 ADD PUSH1 0x40 MLOAD SWAP1 DUP2 ADD PUSH1 0x40 MSTORE DUP1 SWAP3 SWAP2 SWAP1 DUP2 DUP2 MSTORE PUSH1 0x20 ADD DUP3 DUP1 SLOAD PUSH2 0x3F2 SWAP1 PUSH2 0x60B JUMP JUMPDEST DUP1 ISZERO PUSH2 0x43D JUMPI DUP1 PUSH1 0x1F LT PUSH2 0x414 JUMPI PUSH2 0x100 DUP1 DUP4 SLOAD DIV MUL DUP4 MSTORE SWAP2 PUSH1 0x20 ADD SWAP2 PUSH2 0x43D JUMP JUMPDEST DUP3 ADD SWAP2 SWAP1 PUSH0 MSTORE PUSH1 0x20 PUSH0 KECCAK256 SWAP1 JUMPDEST DUP2 SLOAD DUP2 MSTORE SWAP1 PUSH1 0x1 ADD SWAP1 PUSH1 0x20 ADD DUP1 DUP4 GT PUSH2 0x420 JUMPI DUP3 SWAP1 SUB PUSH1 0x1F AND DUP3 ADD SWAP2 JUMPDEST POP POP POP POP POP SWAP4 POP SWAP5 POP SWAP5 POP SWAP5 POP SWAP5 POP SWAP5 POP SWAP1 SWAP2 SWAP3 SWAP4 SWAP5 JUMP JUMPDEST DUP1 PUSH1 0x4 DUP2 SWAP1 SSTORE POP POP JUMP JUMPDEST PUSH1 0x1 SLOAD DUP2 JUMP JUMPDEST PUSH0 DUP2 MLOAD SWAP1 POP SWAP2 SWAP1 POP JUMP JUMPDEST PUSH0 DUP3 DUP3 MSTORE PUSH1 0x20 DUP3 ADD SWAP1 POP SWAP3 SWAP2 POP POP JUMP JUMPDEST DUP3 DUP2 DUP4 MCOPY PUSH0 DUP4 DUP4 ADD MSTORE POP POP POP JUMP JUMPDEST PUSH0 PUSH1 0x1F NOT PUSH1 0x1F DUP4 ADD AND SWAP1 POP SWAP2 SWAP1 POP JUMP JUMPDEST PUSH0 PUSH2 0x4A7 DUP3 PUSH2 0x465 JUMP JUMPDEST PUSH2 0x4B1 DUP2 DUP6 PUSH2 0x46F JUMP JUMPDEST SWAP4 POP PUSH2 0x4C1 DUP2 DUP6 PUSH1 0x20 DUP7 ADD PUSH2 0x47F JUMP JUMPDEST PUSH2 0x4CA DUP2 PUSH2 0x48D JUMP JUMPDEST DUP5 ADD SWAP2 POP POP SWAP3 SWAP2 POP POP JUMP JUMPDEST PUSH0 PUSH1 0x20 DUP3 ADD SWAP1 POP DUP2 DUP2 SUB PUSH0 DUP4 ADD MSTORE PUSH2 0x4ED DUP2 DUP5 PUSH2 0x49D JUMP JUMPDEST SWAP1 POP SWAP3 SWAP2 POP POP JUMP JUMPDEST PUSH0 DUP2 SWAP1 POP SWAP2 SWAP1 POP JUMP JUMPDEST PUSH2 0x507 DUP2 PUSH2 0x4F5 JUMP JUMPDEST DUP3 MSTORE POP POP JUMP JUMPDEST PUSH0 PUSH1 0x20 DUP3 ADD SWAP1 POP PUSH2 0x520 PUSH0 DUP4 ADD DUP5 PUSH2 0x4FE JUMP JUMPDEST SWAP3 SWAP2 POP POP JUMP JUMPDEST PUSH0 DUP1 REVERT JUMPDEST PUSH2 0x533 DUP2 PUSH2 0x4F5 JUMP JUMPDEST DUP2 EQ PUSH2 0x53D JUMPI PUSH0 DUP1 REVERT JUMPDEST POP JUMP JUMPDEST PUSH0 DUP2 CALLDATALOAD SWAP1 POP PUSH2 0x54E DUP2 PUSH2 0x52A JUMP JUMPDEST SWAP3 SWAP2 POP POP JUMP JUMPDEST PUSH0 PUSH1 0x20 DUP3 DUP5 SUB SLT ISZERO PUSH2 0x569 JUMPI PUSH2 0x568 PUSH2 0x526 JUMP JUMPDEST JUMPDEST PUSH0 PUSH2 0x576 DUP5 DUP3 DUP6 ADD PUSH2 0x540 JUMP JUMPDEST SWAP2 POP POP SWAP3 SWAP2 POP POP JUMP JUMPDEST PUSH0 PUSH1 0xA0 DUP3 ADD SWAP1 POP DUP2 DUP2 SUB PUSH0 DUP4 ADD MSTORE PUSH2 0x597 DUP2 DUP9 PUSH2 0x49D JUMP JUMPDEST SWAP1 POP DUP2 DUP2 SUB PUSH1 0x20 DUP4 ADD MSTORE PUSH2 0x5AB DUP2 DUP8 PUSH2 0x49D JUMP JUMPDEST SWAP1 POP PUSH2 0x5BA PUSH1 0x40 DUP4 ADD DUP7 PUSH2 0x4FE JUMP JUMPDEST PUSH2 0x5C7 PUSH1 0x60 DUP4 ADD DUP6 PUSH2 0x4FE JUMP JUMPDEST PUSH2 0x5D4 PUSH1 0x80 DUP4 ADD DUP5 PUSH2 0x4FE JUMP JUMPDEST SWAP7 SWAP6 POP POP POP POP POP POP JUMP JUMPDEST PUSH32 0x4E487B7100000000000000000000000000000000000000000000000000000000 PUSH0 MSTORE PUSH1 0x22 PUSH1 0x4 MSTORE PUSH1 0x24 PUSH0 REVERT JUMPDEST PUSH0 PUSH1 0x2 DUP3 DIV SWAP1 POP PUSH1 0x1 DUP3 AND DUP1 PUSH2 0x622 JUMPI PUSH1 0x7F DUP3 AND SWAP2 POP JUMPDEST PUSH1 0x20 DUP3 LT DUP2 SUB PUSH2 0x635 JUMPI PUSH2 0x634 PUSH2 0x5DE JUMP JUMPDEST JUMPDEST POP SWAP2 SWAP1 POP JUMP JUMPDEST PUSH32 0x4E487B7100000000000000000000000000000000000000000000000000000000 PUSH0 MSTORE PUSH1 0x11 PUSH1 0x4 MSTORE PUSH1 0x24 PUSH0 REVERT JUMPDEST PUSH0 PUSH2 0x672 DUP3 PUSH2 0x4F5 JUMP JUMPDEST SWAP2 POP PUSH2 0x67D DUP4 PUSH2 0x4F5 JUMP JUMPDEST SWAP3 POP DUP3 DUP3 ADD SWAP1 POP DUP1 DUP3 GT ISZERO PUSH2 0x695 JUMPI PUSH2 0x694 PUSH2 0x63B JUMP JUMPDEST JUMPDEST SWAP3 SWAP2 POP POP JUMP INVALID LOG2 PUSH5 0x6970667358 0x22 SLT KECCAK256 0xC5 0xED 0xBB 0xCF NOT CODECOPY SAR GT SELFBALANCE SWAP3 0x26 RETURNDATACOPY 0xDB DELEGATECALL 0xC7 0xEC CALLER SWAP12 0x2A BYTE PUSH8 0xEB39F4F777BAA4EC 0xD9 0xF7 DUP7 PUSH5 0x736F6C6343 STOP ADDMOD BYTE STOP CALLER "
		},
		"gasEstimates": {
			"creation": {
				"codeDepositCost": "349000",
				"executionCost": "infinite",
				"totalCost": "infinite"
			},
			"external": {
				"CGPA()": "2470",
				"addCredits(uint256)": "infinite",
				"creditsEarned()": "2448",
				"duuID_number()": "2425",
				"enrollmentYear()": "2513",
				"getStudentDetails()": "infinite",
				"giveStudentChainID()": "infinite",
				"institutional_ID()": "infinite",
				"name()": "infinite",
				"updateCGPA(uint256)": "22581"
			}
		},
		"methodIdentifiers": {
			"CGPA()": "19cf67ce",
			"addCredits(uint256)": "2aea58b2",
			"creditsEarned()": "0b50ecde",
			"duuID_number()": "5750653d",
			"enrollmentYear()": "de734f70",
			"getStudentDetails()": "bc658659",
			"giveStudentChainID()": "4fcb113f",
			"institutional_ID()": "68852bc0",
			"name()": "06fdde03",
			"updateCGPA(uint256)": "d24cc4a9"
		}
	},
	"abi": [
		{
			"inputs": [
				{
					"internalType": "string",
					"name": "_name",
					"type": "string"
				},
				{
					"internalType": "uint256",
					"name": "_enrollmentYear",
					"type": "uint256"
				},
				{
					"internalType": "string",
					"name": "_institutional_ID",
					"type": "string"
				},
				{
					"internalType": "uint256",
					"name": "_duuID_number",
					"type": "uint256"
				}
			],
			"stateMutability": "nonpayable",
			"type": "constructor"
		},
		{
			"inputs": [],
			"name": "CGPA",
			"outputs": [
				{
					"internalType": "uint256",
					"name": "",
					"type": "uint256"
				}
			],
			"stateMutability": "view",
			"type": "function"
		},
		{
			"inputs": [
				{
					"internalType": "uint256",
					"name": "credits",
					"type": "uint256"
				}
			],
			"name": "addCredits",
			"outputs": [],
			"stateMutability": "nonpayable",
			"type": "function"
		},
		{
			"inputs": [],
			"name": "creditsEarned",
			"outputs": [
				{
					"internalType": "uint256",
					"name": "",
					"type": "uint256"
				}
			],
			"stateMutability": "view",
			"type": "function"
		},
		{
			"inputs": [],
			"name": "duuID_number",
			"outputs": [
				{
					"internalType": "uint256",
					"name": "",
					"type": "uint256"
				}
			],
			"stateMutability": "view",
			"type": "function"
		},
		{
			"inputs": [],
			"name": "enrollmentYear",
			"outputs": [
				{
					"internalType": "uint256",
					"name": "",
					"type": "uint256"
				}
			],
			"stateMutability": "view",
			"type": "function"
		},
		{
			"inputs": [],
			"name": "getStudentDetails",
			"outputs": [
				{
					"internalType": "string",
					"name": "",
					"type": "string"
				},
				{
					"internalType": "string",
					"name": "",
					"type": "string"
				},
				{
					"internalType": "uint256",
					"name": "",
					"type": "uint256"
				},
				{
					"internalType": "uint256",
					"name": "",
					"type": "uint256"
				},
				{
					"internalType": "uint256",
					"name": "",
					"type": "uint256"
				}
			],
			"stateMutability": "view",
			"type": "function"
		},
		{
			"inputs": [],
			"name": "giveStudentChainID",
			"outputs": [
				{
					"internalType": "uint256",
					"name": "",
					"type": "uint256"
				}
			],
			"stateMutability": "view",
			"type": "function"
		},
		{
			"inputs": [],
			"name": "institutional_ID",
			"outputs": [
				{
					"internalType": "string",
					"name": "",
					"type": "string"
				}
			],
			"stateMutability": "view",
			"type": "function"
		},
		{
			"inputs": [],
			"name": "name",
			"outputs": [
				{
					"internalType": "string",
					"name": "",
					"type": "string"
				}
			],
			"stateMutability": "view",
			"type": "function"
		},
		{
			"inputs": [
				{
					"internalType": "uint256",
					"name": "_CGPA",
					"type": "uint256"
				}
			],
			"name": "updateCGPA",
			"outputs": [],
			"stateMutability": "nonpayable",
			"type": "function"
		}
	]
}